{
  "_format": "hh-sol-artifact-1",
  "contractName": "Airdrop",
  "sourceName": "contracts/Airdrop.sol",
  "abi": [
    {
      "inputs": [
        {
          "internalType": "contract ISemaphore",
          "name": "_semaphore",
          "type": "address"
        },
        {
          "internalType": "contract EngagementToken",
          "name": "_token",
          "type": "address"
        }
      ],
      "stateMutability": "nonpayable",
      "type": "constructor"
    },
    {
      "inputs": [],
      "name": "InvalidNullifier",
      "type": "error"
    },
    {
      "inputs": [],
      "name": "airdropAmount",
      "outputs": [
        {
          "internalType": "uint256",
          "name": "",
          "type": "uint256"
        }
      ],
      "stateMutability": "view",
      "type": "function"
    },
    {
      "inputs": [
        {
          "internalType": "address",
          "name": "receiver",
          "type": "address"
        },
        {
          "internalType": "uint256",
          "name": "root",
          "type": "uint256"
        },
        {
          "internalType": "uint256",
          "name": "nullifierHash",
          "type": "uint256"
        },
        {
          "internalType": "uint256[8]",
          "name": "proof",
          "type": "uint256[8]"
        }
      ],
      "name": "claim",
      "outputs": [],
      "stateMutability": "nonpayable",
      "type": "function"
    },
    {
      "inputs": [],
      "name": "token",
      "outputs": [
        {
          "internalType": "contract EngagementToken",
          "name": "",
          "type": "address"
        }
      ],
      "stateMutability": "view",
      "type": "function"
    }
  ],
  "bytecode": "0x610100604052600160a090815250682086ac35105260000060e09081525034801561002957600080fd5b506040516106c13803806106c1833981810160405281019061004b91906101e6565b8173ffffffffffffffffffffffffffffffffffffffff1660808173ffffffffffffffffffffffffffffffffffffffff16815250508073ffffffffffffffffffffffffffffffffffffffff1660c08173ffffffffffffffffffffffffffffffffffffffff168152505060c05173ffffffffffffffffffffffffffffffffffffffff166340c10f193069152d02c7e14af68000006040518363ffffffff1660e01b81526004016100fa929190610284565b600060405180830381600087803b15801561011457600080fd5b505af1158015610128573d6000803e3d6000fd5b5050505050506102ad565b600080fd5b600073ffffffffffffffffffffffffffffffffffffffff82169050919050565b600061016382610138565b9050919050565b600061017582610158565b9050919050565b6101858161016a565b811461019057600080fd5b50565b6000815190506101a28161017c565b92915050565b60006101b382610158565b9050919050565b6101c3816101a8565b81146101ce57600080fd5b50565b6000815190506101e0816101ba565b92915050565b600080604083850312156101fd576101fc610133565b5b600061020b85828601610193565b925050602061021c858286016101d1565b9150509250929050565b61022f81610158565b82525050565b6000819050919050565b6000819050919050565b6000819050919050565b600061026e61026961026484610235565b610249565b61023f565b9050919050565b61027e81610253565b82525050565b60006040820190506102996000830185610226565b6102a66020830184610275565b9392505050565b60805160a05160c05160e0516103e16102e0600039600061018e0152600061016a015260005050600050506103e16000f3fe608060405234801561001057600080fd5b50600436106100415760003560e01c80637bdc1df714610046578063fc0c546a14610062578063fc2ea8a514610080575b600080fd5b610060600480360381019061005b9190610270565b61009e565b005b61006a610168565b6040516100779190610337565b60405180910390f35b61008861018c565b6040516100959190610361565b60405180910390f35b600160008084815260200190815260200160002060006101000a81548160ff021916908315150217905550600180600085815260200190815260200160002060006101000a81548160ff021916908315150217905550806001600881106101085761010761037c565b5b50506001600260008673ffffffffffffffffffffffffffffffffffffffff1673ffffffffffffffffffffffffffffffffffffffff16815260200190815260200160002060006101000a81548160ff02191690831515021790555050505050565b7f000000000000000000000000000000000000000000000000000000000000000081565b7f000000000000000000000000000000000000000000000000000000000000000081565b600080fd5b600073ffffffffffffffffffffffffffffffffffffffff82169050919050565b60006101e0826101b5565b9050919050565b6101f0816101d5565b81146101fb57600080fd5b50565b60008135905061020d816101e7565b92915050565b6000819050919050565b61022681610213565b811461023157600080fd5b50565b6000813590506102438161021d565b92915050565b600080fd5b60008190508260206008028201111561026a57610269610249565b5b92915050565b600080600080610160858703121561028b5761028a6101b0565b5b6000610299878288016101fe565b94505060206102aa87828801610234565b93505060406102bb87828801610234565b92505060606102cc8782880161024e565b91505092959194509250565b6000819050919050565b60006102fd6102f86102f3846101b5565b6102d8565b6101b5565b9050919050565b600061030f826102e2565b9050919050565b600061032182610304565b9050919050565b61033181610316565b82525050565b600060208201905061034c6000830184610328565b92915050565b61035b81610213565b82525050565b60006020820190506103766000830184610352565b92915050565b7f4e487b7100000000000000000000000000000000000000000000000000000000600052603260045260246000fdfea26469706673582212203089a034ada391e6d2fd591f7d854aee93a4c96964a21a6bb37d977b89387cbe64736f6c63430008090033",
  "linkReferences": {},
  "deployedLinkReferences": {}
}