{
  "_format": "hh-sol-artifact-1",
  "contractName": "Airdrop",
  "sourceName": "contracts/Airdrop.sol",
  "abi": [
    {
      "inputs": [
        {
          "internalType": "contract ISemaphore",
          "name": "_semaphore",
          "type": "address"
        }
      ],
      "stateMutability": "nonpayable",
      "type": "constructor"
    },
    {
      "inputs": [],
      "name": "InvalidNullifier",
      "type": "error"
    },
    {
      "inputs": [],
      "name": "airdropAmount",
      "outputs": [
        {
          "internalType": "uint256",
          "name": "",
          "type": "uint256"
        }
      ],
      "stateMutability": "view",
      "type": "function"
    },
    {
      "inputs": [
        {
          "internalType": "address",
          "name": "token",
          "type": "address"
        },
        {
          "internalType": "address",
          "name": "receiver",
          "type": "address"
        },
        {
          "internalType": "uint256",
          "name": "root",
          "type": "uint256"
        },
        {
          "internalType": "uint256",
          "name": "nullifierHash",
          "type": "uint256"
        },
        {
          "internalType": "uint256[8]",
          "name": "proof",
          "type": "uint256[8]"
        }
      ],
      "name": "claim",
      "outputs": [],
      "stateMutability": "nonpayable",
      "type": "function"
    }
  ],
  "bytecode": "0x60e0604052600160a090815250682086ac35105260000060c09081525034801561002857600080fd5b5060405161078f38038061078f833981810160405281019061004a91906100f9565b8073ffffffffffffffffffffffffffffffffffffffff1660808173ffffffffffffffffffffffffffffffffffffffff168152505050610126565b600080fd5b600073ffffffffffffffffffffffffffffffffffffffff82169050919050565b60006100b482610089565b9050919050565b60006100c6826100a9565b9050919050565b6100d6816100bb565b81146100e157600080fd5b50565b6000815190506100f3816100cd565b92915050565b60006020828403121561010f5761010e610084565b5b600061011d848285016100e4565b91505092915050565b60805160a05160c05161063561015a60003960008181610195015261022d0152600060b401526000607701526106356000f3fe608060405234801561001057600080fd5b50600436106100365760003560e01c80632be35ce81461003b578063fc2ea8a514610057575b600080fd5b61005560048036038101906100509190610346565b610075565b005b61005f61022b565b60405161006c91906103d1565b60405180910390f35b7f000000000000000000000000000000000000000000000000000000000000000073ffffffffffffffffffffffffffffffffffffffff16633bc778e3847f00000000000000000000000000000000000000000000000000000000000000006100fb886040516020016100e79190610434565b60405160208183030381529060405261024f565b86610124306040516020016101109190610434565b60405160208183030381529060405261024f565b876040518763ffffffff1660e01b81526004016101469695949392919061046f565b60006040518083038186803b15801561015e57600080fd5b505afa158015610172573d6000803e3d6000fd5b505050508473ffffffffffffffffffffffffffffffffffffffff1663a9059cbb857f00000000000000000000000000000000000000000000000000000000000000006040518363ffffffff1660e01b81526004016101d19291906104e0565b602060405180830381600087803b1580156101eb57600080fd5b505af11580156101ff573d6000803e3d6000fd5b505050506040513d601f19601f820116820180604052508101906102239190610541565b505050505050565b7f000000000000000000000000000000000000000000000000000000000000000081565b600060088260405160200161026491906105e8565b6040516020818303038152906040528051906020012060001c901c9050919050565b600080fd5b600073ffffffffffffffffffffffffffffffffffffffff82169050919050565b60006102b68261028b565b9050919050565b6102c6816102ab565b81146102d157600080fd5b50565b6000813590506102e3816102bd565b92915050565b6000819050919050565b6102fc816102e9565b811461030757600080fd5b50565b600081359050610319816102f3565b92915050565b600080fd5b6000819050826020600802820111156103405761033f61031f565b5b92915050565b6000806000806000610180868803121561036357610362610286565b5b6000610371888289016102d4565b9550506020610382888289016102d4565b94505060406103938882890161030a565b93505060606103a48882890161030a565b92505060806103b588828901610324565b9150509295509295909350565b6103cb816102e9565b82525050565b60006020820190506103e660008301846103c2565b92915050565b60008160601b9050919050565b6000610404826103ec565b9050919050565b6000610416826103f9565b9050919050565b61042e610429826102ab565b61040b565b82525050565b6000610440828461041d565b60148201915081905092915050565b82818337600083830152505050565b61046b610100838361044f565b5050565b60006101a08201905061048560008301896103c2565b61049260208301886103c2565b61049f60408301876103c2565b6104ac60608301866103c2565b6104b960808301856103c2565b6104c660a083018461045e565b979650505050505050565b6104da816102ab565b82525050565b60006040820190506104f560008301856104d1565b61050260208301846103c2565b9392505050565b60008115159050919050565b61051e81610509565b811461052957600080fd5b50565b60008151905061053b81610515565b92915050565b60006020828403121561055757610556610286565b5b60006105658482850161052c565b91505092915050565b600081519050919050565b600081905092915050565b60005b838110156105a2578082015181840152602081019050610587565b838111156105b1576000848401525b50505050565b60006105c28261056e565b6105cc8185610579565b93506105dc818560208601610584565b80840191505092915050565b60006105f482846105b7565b91508190509291505056fea26469706673582212205d0a4d35e4ee8c1d86db32318bde80548d350aef170dd3a128db81ca79aa2e0264736f6c63430008090033",
  "linkReferences": {},
  "deployedLinkReferences": {}
}