{
  "_format": "hh-sol-artifact-1",
  "contractName": "Engagement",
  "sourceName": "contracts/Engagement.sol",
  "abi": [
    {
      "inputs": [
        {
          "internalType": "contract Token",
          "name": "_valu",
          "type": "address"
        }
      ],
      "stateMutability": "nonpayable",
      "type": "constructor"
    },
    {
      "anonymous": false,
      "inputs": [
        {
          "indexed": true,
          "internalType": "address",
          "name": "owner",
          "type": "address"
        },
        {
          "indexed": true,
          "internalType": "address",
          "name": "spender",
          "type": "address"
        },
        {
          "indexed": false,
          "internalType": "uint256",
          "name": "amount",
          "type": "uint256"
        }
      ],
      "name": "Approval",
      "type": "event"
    },
    {
      "anonymous": false,
      "inputs": [
        {
          "indexed": true,
          "internalType": "address",
          "name": "_address",
          "type": "address"
        },
        {
          "indexed": true,
          "internalType": "uint256",
          "name": "discord_id",
          "type": "uint256"
        }
      ],
      "name": "Authenticate",
      "type": "event"
    },
    {
      "anonymous": false,
      "inputs": [
        {
          "indexed": true,
          "internalType": "address",
          "name": "caller",
          "type": "address"
        },
        {
          "indexed": true,
          "internalType": "address",
          "name": "owner",
          "type": "address"
        },
        {
          "indexed": false,
          "internalType": "uint256",
          "name": "assets",
          "type": "uint256"
        },
        {
          "indexed": false,
          "internalType": "uint256",
          "name": "shares",
          "type": "uint256"
        }
      ],
      "name": "Deposit",
      "type": "event"
    },
    {
      "anonymous": false,
      "inputs": [
        {
          "indexed": true,
          "internalType": "uint256",
          "name": "from_discord_id",
          "type": "uint256"
        },
        {
          "indexed": true,
          "internalType": "uint256",
          "name": "to_discord_id",
          "type": "uint256"
        },
        {
          "indexed": true,
          "internalType": "uint256",
          "name": "time",
          "type": "uint256"
        },
        {
          "indexed": false,
          "internalType": "uint256",
          "name": "value",
          "type": "uint256"
        }
      ],
      "name": "Engaged",
      "type": "event"
    },
    {
      "anonymous": false,
      "inputs": [
        {
          "indexed": false,
          "internalType": "uint256",
          "name": "time",
          "type": "uint256"
        },
        {
          "indexed": false,
          "internalType": "uint256",
          "name": "amount",
          "type": "uint256"
        }
      ],
      "name": "Inflation",
      "type": "event"
    },
    {
      "anonymous": false,
      "inputs": [
        {
          "indexed": true,
          "internalType": "uint256",
          "name": "server_id",
          "type": "uint256"
        },
        {
          "indexed": true,
          "internalType": "uint256",
          "name": "owner_id",
          "type": "uint256"
        }
      ],
      "name": "OwnerAssigned",
      "type": "event"
    },
    {
      "anonymous": false,
      "inputs": [
        {
          "indexed": true,
          "internalType": "uint256",
          "name": "discord_id",
          "type": "uint256"
        },
        {
          "indexed": true,
          "internalType": "address",
          "name": "_address",
          "type": "address"
        },
        {
          "indexed": false,
          "internalType": "uint256",
          "name": "amount",
          "type": "uint256"
        }
      ],
      "name": "PowerDown",
      "type": "event"
    },
    {
      "anonymous": false,
      "inputs": [
        {
          "indexed": true,
          "internalType": "uint256",
          "name": "discord_id",
          "type": "uint256"
        },
        {
          "indexed": true,
          "internalType": "address",
          "name": "_address",
          "type": "address"
        },
        {
          "indexed": false,
          "internalType": "uint256",
          "name": "amount",
          "type": "uint256"
        }
      ],
      "name": "PowerUp",
      "type": "event"
    },
    {
      "anonymous": false,
      "inputs": [
        {
          "indexed": true,
          "internalType": "address",
          "name": "from",
          "type": "address"
        },
        {
          "indexed": true,
          "internalType": "address",
          "name": "to",
          "type": "address"
        },
        {
          "indexed": false,
          "internalType": "uint256",
          "name": "amount",
          "type": "uint256"
        }
      ],
      "name": "Transfer",
      "type": "event"
    },
    {
      "anonymous": false,
      "inputs": [
        {
          "indexed": true,
          "internalType": "address",
          "name": "caller",
          "type": "address"
        },
        {
          "indexed": true,
          "internalType": "address",
          "name": "receiver",
          "type": "address"
        },
        {
          "indexed": true,
          "internalType": "address",
          "name": "owner",
          "type": "address"
        },
        {
          "indexed": false,
          "internalType": "uint256",
          "name": "assets",
          "type": "uint256"
        },
        {
          "indexed": false,
          "internalType": "uint256",
          "name": "shares",
          "type": "uint256"
        }
      ],
      "name": "Withdraw",
      "type": "event"
    },
    {
      "inputs": [],
      "name": "DOMAIN_SEPARATOR",
      "outputs": [
        {
          "internalType": "bytes32",
          "name": "",
          "type": "bytes32"
        }
      ],
      "stateMutability": "view",
      "type": "function"
    },
    {
      "inputs": [
        {
          "internalType": "address",
          "name": "",
          "type": "address"
        },
        {
          "internalType": "address",
          "name": "",
          "type": "address"
        }
      ],
      "name": "allowance",
      "outputs": [
        {
          "internalType": "uint256",
          "name": "",
          "type": "uint256"
        }
      ],
      "stateMutability": "view",
      "type": "function"
    },
    {
      "inputs": [
        {
          "internalType": "address",
          "name": "spender",
          "type": "address"
        },
        {
          "internalType": "uint256",
          "name": "amount",
          "type": "uint256"
        }
      ],
      "name": "approve",
      "outputs": [
        {
          "internalType": "bool",
          "name": "",
          "type": "bool"
        }
      ],
      "stateMutability": "nonpayable",
      "type": "function"
    },
    {
      "inputs": [],
      "name": "asset",
      "outputs": [
        {
          "internalType": "contract ERC20",
          "name": "",
          "type": "address"
        }
      ],
      "stateMutability": "view",
      "type": "function"
    },
    {
      "inputs": [
        {
          "internalType": "uint256",
          "name": "discord_id",
          "type": "uint256"
        },
        {
          "internalType": "address",
          "name": "_address",
          "type": "address"
        }
      ],
      "name": "authenticate",
      "outputs": [],
      "stateMutability": "nonpayable",
      "type": "function"
    },
    {
      "inputs": [
        {
          "internalType": "address",
          "name": "",
          "type": "address"
        }
      ],
      "name": "balanceOf",
      "outputs": [
        {
          "internalType": "uint256",
          "name": "",
          "type": "uint256"
        }
      ],
      "stateMutability": "view",
      "type": "function"
    },
    {
      "inputs": [
        {
          "internalType": "uint256",
          "name": "shares",
          "type": "uint256"
        }
      ],
      "name": "convertToAssets",
      "outputs": [
        {
          "internalType": "uint256",
          "name": "",
          "type": "uint256"
        }
      ],
      "stateMutability": "view",
      "type": "function"
    },
    {
      "inputs": [
        {
          "internalType": "uint256",
          "name": "assets",
          "type": "uint256"
        }
      ],
      "name": "convertToShares",
      "outputs": [
        {
          "internalType": "uint256",
          "name": "",
          "type": "uint256"
        }
      ],
      "stateMutability": "view",
      "type": "function"
    },
    {
      "inputs": [],
      "name": "core",
      "outputs": [
        {
          "internalType": "uint256",
          "name": "",
          "type": "uint256"
        }
      ],
      "stateMutability": "view",
      "type": "function"
    },
    {
      "inputs": [],
      "name": "decimals",
      "outputs": [
        {
          "internalType": "uint8",
          "name": "",
          "type": "uint8"
        }
      ],
      "stateMutability": "view",
      "type": "function"
    },
    {
      "inputs": [
        {
          "internalType": "uint256",
          "name": "assets",
          "type": "uint256"
        },
        {
          "internalType": "address",
          "name": "receiver",
          "type": "address"
        }
      ],
      "name": "deposit",
      "outputs": [
        {
          "internalType": "uint256",
          "name": "shares",
          "type": "uint256"
        }
      ],
      "stateMutability": "nonpayable",
      "type": "function"
    },
    {
      "inputs": [],
      "name": "duration",
      "outputs": [
        {
          "internalType": "uint256",
          "name": "",
          "type": "uint256"
        }
      ],
      "stateMutability": "view",
      "type": "function"
    },
    {
      "inputs": [
        {
          "internalType": "uint256",
          "name": "engager_id",
          "type": "uint256"
        },
        {
          "internalType": "uint256",
          "name": "engagee_id",
          "type": "uint256"
        }
      ],
      "name": "engage",
      "outputs": [
        {
          "internalType": "bool",
          "name": "engaged",
          "type": "bool"
        }
      ],
      "stateMutability": "nonpayable",
      "type": "function"
    },
    {
      "inputs": [],
      "name": "inflate",
      "outputs": [],
      "stateMutability": "nonpayable",
      "type": "function"
    },
    {
      "inputs": [],
      "name": "inflation",
      "outputs": [
        {
          "internalType": "uint256",
          "name": "",
          "type": "uint256"
        }
      ],
      "stateMutability": "view",
      "type": "function"
    },
    {
      "inputs": [
        {
          "internalType": "uint256",
          "name": "discord_id",
          "type": "uint256"
        }
      ],
      "name": "isAuthenticated",
      "outputs": [
        {
          "internalType": "bool",
          "name": "authenticated",
          "type": "bool"
        }
      ],
      "stateMutability": "view",
      "type": "function"
    },
    {
      "inputs": [],
      "name": "last",
      "outputs": [
        {
          "internalType": "uint256",
          "name": "",
          "type": "uint256"
        }
      ],
      "stateMutability": "view",
      "type": "function"
    },
    {
      "inputs": [
        {
          "internalType": "address",
          "name": "",
          "type": "address"
        }
      ],
      "name": "maxDeposit",
      "outputs": [
        {
          "internalType": "uint256",
          "name": "",
          "type": "uint256"
        }
      ],
      "stateMutability": "view",
      "type": "function"
    },
    {
      "inputs": [
        {
          "internalType": "address",
          "name": "",
          "type": "address"
        }
      ],
      "name": "maxMint",
      "outputs": [
        {
          "internalType": "uint256",
          "name": "",
          "type": "uint256"
        }
      ],
      "stateMutability": "view",
      "type": "function"
    },
    {
      "inputs": [
        {
          "internalType": "address",
          "name": "owner",
          "type": "address"
        }
      ],
      "name": "maxRedeem",
      "outputs": [
        {
          "internalType": "uint256",
          "name": "",
          "type": "uint256"
        }
      ],
      "stateMutability": "view",
      "type": "function"
    },
    {
      "inputs": [
        {
          "internalType": "address",
          "name": "owner",
          "type": "address"
        }
      ],
      "name": "maxWithdraw",
      "outputs": [
        {
          "internalType": "uint256",
          "name": "",
          "type": "uint256"
        }
      ],
      "stateMutability": "view",
      "type": "function"
    },
    {
      "inputs": [
        {
          "internalType": "uint256",
          "name": "shares",
          "type": "uint256"
        },
        {
          "internalType": "address",
          "name": "receiver",
          "type": "address"
        }
      ],
      "name": "mint",
      "outputs": [
        {
          "internalType": "uint256",
          "name": "assets",
          "type": "uint256"
        }
      ],
      "stateMutability": "nonpayable",
      "type": "function"
    },
    {
      "inputs": [],
      "name": "multiple",
      "outputs": [
        {
          "internalType": "uint256",
          "name": "",
          "type": "uint256"
        }
      ],
      "stateMutability": "view",
      "type": "function"
    },
    {
      "inputs": [],
      "name": "name",
      "outputs": [
        {
          "internalType": "string",
          "name": "",
          "type": "string"
        }
      ],
      "stateMutability": "view",
      "type": "function"
    },
    {
      "inputs": [
        {
          "internalType": "address",
          "name": "",
          "type": "address"
        }
      ],
      "name": "nonces",
      "outputs": [
        {
          "internalType": "uint256",
          "name": "",
          "type": "uint256"
        }
      ],
      "stateMutability": "view",
      "type": "function"
    },
    {
      "inputs": [
        {
          "internalType": "uint256",
          "name": "",
          "type": "uint256"
        }
      ],
      "name": "owner",
      "outputs": [
        {
          "internalType": "uint256",
          "name": "",
          "type": "uint256"
        }
      ],
      "stateMutability": "view",
      "type": "function"
    },
    {
      "inputs": [
        {
          "internalType": "address",
          "name": "owner",
          "type": "address"
        },
        {
          "internalType": "address",
          "name": "spender",
          "type": "address"
        },
        {
          "internalType": "uint256",
          "name": "value",
          "type": "uint256"
        },
        {
          "internalType": "uint256",
          "name": "deadline",
          "type": "uint256"
        },
        {
          "internalType": "uint8",
          "name": "v",
          "type": "uint8"
        },
        {
          "internalType": "bytes32",
          "name": "r",
          "type": "bytes32"
        },
        {
          "internalType": "bytes32",
          "name": "s",
          "type": "bytes32"
        }
      ],
      "name": "permit",
      "outputs": [],
      "stateMutability": "nonpayable",
      "type": "function"
    },
    {
      "inputs": [
        {
          "internalType": "uint256",
          "name": "discord_id",
          "type": "uint256"
        },
        {
          "internalType": "uint256",
          "name": "amount",
          "type": "uint256"
        }
      ],
      "name": "powerDown",
      "outputs": [
        {
          "internalType": "bool",
          "name": "depowered",
          "type": "bool"
        }
      ],
      "stateMutability": "nonpayable",
      "type": "function"
    },
    {
      "inputs": [
        {
          "internalType": "uint256",
          "name": "discord_id",
          "type": "uint256"
        },
        {
          "internalType": "uint256",
          "name": "amount",
          "type": "uint256"
        }
      ],
      "name": "powerUp",
      "outputs": [
        {
          "internalType": "bool",
          "name": "powered",
          "type": "bool"
        }
      ],
      "stateMutability": "nonpayable",
      "type": "function"
    },
    {
      "inputs": [
        {
          "internalType": "uint256",
          "name": "assets",
          "type": "uint256"
        }
      ],
      "name": "previewDeposit",
      "outputs": [
        {
          "internalType": "uint256",
          "name": "",
          "type": "uint256"
        }
      ],
      "stateMutability": "view",
      "type": "function"
    },
    {
      "inputs": [
        {
          "internalType": "uint256",
          "name": "shares",
          "type": "uint256"
        }
      ],
      "name": "previewMint",
      "outputs": [
        {
          "internalType": "uint256",
          "name": "",
          "type": "uint256"
        }
      ],
      "stateMutability": "view",
      "type": "function"
    },
    {
      "inputs": [
        {
          "internalType": "uint256",
          "name": "shares",
          "type": "uint256"
        }
      ],
      "name": "previewRedeem",
      "outputs": [
        {
          "internalType": "uint256",
          "name": "",
          "type": "uint256"
        }
      ],
      "stateMutability": "view",
      "type": "function"
    },
    {
      "inputs": [
        {
          "internalType": "uint256",
          "name": "assets",
          "type": "uint256"
        }
      ],
      "name": "previewWithdraw",
      "outputs": [
        {
          "internalType": "uint256",
          "name": "",
          "type": "uint256"
        }
      ],
      "stateMutability": "view",
      "type": "function"
    },
    {
      "inputs": [],
      "name": "rate",
      "outputs": [
        {
          "internalType": "uint256",
          "name": "",
          "type": "uint256"
        }
      ],
      "stateMutability": "view",
      "type": "function"
    },
    {
      "inputs": [
        {
          "internalType": "uint256",
          "name": "shares",
          "type": "uint256"
        },
        {
          "internalType": "address",
          "name": "receiver",
          "type": "address"
        },
        {
          "internalType": "address",
          "name": "owner",
          "type": "address"
        }
      ],
      "name": "redeem",
      "outputs": [
        {
          "internalType": "uint256",
          "name": "assets",
          "type": "uint256"
        }
      ],
      "stateMutability": "nonpayable",
      "type": "function"
    },
    {
      "inputs": [],
      "name": "rewardPool",
      "outputs": [
        {
          "internalType": "uint256",
          "name": "",
          "type": "uint256"
        }
      ],
      "stateMutability": "view",
      "type": "function"
    },
    {
      "inputs": [
        {
          "internalType": "uint256",
          "name": "discord_id",
          "type": "uint256"
        },
        {
          "internalType": "uint256",
          "name": "server_id",
          "type": "uint256"
        }
      ],
      "name": "setServerOwner",
      "outputs": [],
      "stateMutability": "nonpayable",
      "type": "function"
    },
    {
      "inputs": [],
      "name": "symbol",
      "outputs": [
        {
          "internalType": "string",
          "name": "",
          "type": "string"
        }
      ],
      "stateMutability": "view",
      "type": "function"
    },
    {
      "inputs": [],
      "name": "totalAssets",
      "outputs": [
        {
          "internalType": "uint256",
          "name": "total",
          "type": "uint256"
        }
      ],
      "stateMutability": "view",
      "type": "function"
    },
    {
      "inputs": [],
      "name": "totalSupply",
      "outputs": [
        {
          "internalType": "uint256",
          "name": "",
          "type": "uint256"
        }
      ],
      "stateMutability": "view",
      "type": "function"
    },
    {
      "inputs": [
        {
          "internalType": "address",
          "name": "to",
          "type": "address"
        },
        {
          "internalType": "uint256",
          "name": "amount",
          "type": "uint256"
        }
      ],
      "name": "transfer",
      "outputs": [
        {
          "internalType": "bool",
          "name": "",
          "type": "bool"
        }
      ],
      "stateMutability": "nonpayable",
      "type": "function"
    },
    {
      "inputs": [
        {
          "internalType": "address",
          "name": "from",
          "type": "address"
        },
        {
          "internalType": "address",
          "name": "to",
          "type": "address"
        },
        {
          "internalType": "uint256",
          "name": "amount",
          "type": "uint256"
        }
      ],
      "name": "transferFrom",
      "outputs": [
        {
          "internalType": "bool",
          "name": "",
          "type": "bool"
        }
      ],
      "stateMutability": "nonpayable",
      "type": "function"
    },
    {
      "inputs": [
        {
          "internalType": "uint256",
          "name": "",
          "type": "uint256"
        }
      ],
      "name": "user",
      "outputs": [
        {
          "internalType": "address",
          "name": "eoa",
          "type": "address"
        },
        {
          "internalType": "uint256",
          "name": "mana",
          "type": "uint256"
        },
        {
          "internalType": "uint256",
          "name": "lastEngagement",
          "type": "uint256"
        }
      ],
      "stateMutability": "view",
      "type": "function"
    },
    {
      "inputs": [],
      "name": "valu",
      "outputs": [
        {
          "internalType": "contract Token",
          "name": "",
          "type": "address"
        }
      ],
      "stateMutability": "view",
      "type": "function"
    },
    {
      "inputs": [
        {
          "internalType": "uint256",
          "name": "assets",
          "type": "uint256"
        },
        {
          "internalType": "address",
          "name": "receiver",
          "type": "address"
        },
        {
          "internalType": "address",
          "name": "owner",
          "type": "address"
        }
      ],
      "name": "withdraw",
      "outputs": [
        {
          "internalType": "uint256",
          "name": "shares",
          "type": "uint256"
        }
      ],
      "stateMutability": "nonpayable",
      "type": "function"
    }
  ],
  "bytecode": "0x61012060405242600a55610708600b556007600c55620186a0600e553480156200002857600080fd5b50604051620046343803806200463483398181016040528101906200004e9190620005d7565b808173ffffffffffffffffffffffffffffffffffffffff166306fdde036040518163ffffffff1660e01b815260040160006040518083038186803b1580156200009657600080fd5b505afa158015620000ab573d6000803e3d6000fd5b505050506040513d6000823e3d601f19601f82011682018060405250810190620000d6919062000792565b604051602001620000e8919062000880565b6040516020818303038152906040528273ffffffffffffffffffffffffffffffffffffffff166395d89b416040518163ffffffff1660e01b815260040160006040518083038186803b1580156200013e57600080fd5b505afa15801562000153573d6000803e3d6000fd5b505050506040513d6000823e3d601f19601f820116820180604052508101906200017e919062000792565b604051602001620001909190620008f6565b60405160208183030381529060405281818473ffffffffffffffffffffffffffffffffffffffff1663313ce5676040518163ffffffff1660e01b815260040160206040518083038186803b158015620001e857600080fd5b505afa158015620001fd573d6000803e3d6000fd5b505050506040513d601f19601f820116820180604052508101906200022391906200095a565b82600090805190602001906200023b9291906200049a565b508160019080519060200190620002549291906200049a565b508060ff1660808160ff16815250504660a081815250506200027b6200033660201b60201c565b60c081815250505050508273ffffffffffffffffffffffffffffffffffffffff1660e08173ffffffffffffffffffffffffffffffffffffffff16815250505050508073ffffffffffffffffffffffffffffffffffffffff166101008173ffffffffffffffffffffffffffffffffffffffff168152505060006a084595161401484a0000009050620003133082620003c660201b60201c565b8060086000828254620003279190620009c5565b92505081905550505062000c02565b60007f8b73c3c69bb8fe3d512ecc4cf759cc79239f7b179b0ffacaa9a75d522b39400f60006040516200036a919062000b32565b60405180910390207fc89efdaa54c0f20c7adf612882df0950f5a951637e0307cdcb4c672f298b8bc64630604051602001620003ab95949392919062000b88565b60405160208183030381529060405280519060200120905090565b8060026000828254620003da9190620009c5565b9250508190555080600360008473ffffffffffffffffffffffffffffffffffffffff1673ffffffffffffffffffffffffffffffffffffffff168152602001908152602001600020600082825401925050819055508173ffffffffffffffffffffffffffffffffffffffff16600073ffffffffffffffffffffffffffffffffffffffff167fddf252ad1be2c89b69c2b068fc378daa952ba7f163c4a11628f55a4df523b3ef836040516200048e919062000be5565b60405180910390a35050565b828054620004a89062000a51565b90600052602060002090601f016020900481019282620004cc576000855562000518565b82601f10620004e757805160ff191683800117855562000518565b8280016001018555821562000518579182015b8281111562000517578251825591602001919060010190620004fa565b5b5090506200052791906200052b565b5090565b5b80821115620005465760008160009055506001016200052c565b5090565b6000604051905090565b600080fd5b600080fd5b600073ffffffffffffffffffffffffffffffffffffffff82169050919050565b60006200058b826200055e565b9050919050565b60006200059f826200057e565b9050919050565b620005b18162000592565b8114620005bd57600080fd5b50565b600081519050620005d181620005a6565b92915050565b600060208284031215620005f057620005ef62000554565b5b60006200060084828501620005c0565b91505092915050565b600080fd5b600080fd5b6000601f19601f8301169050919050565b7f4e487b7100000000000000000000000000000000000000000000000000000000600052604160045260246000fd5b6200065e8262000613565b810181811067ffffffffffffffff8211171562000680576200067f62000624565b5b80604052505050565b6000620006956200054a565b9050620006a3828262000653565b919050565b600067ffffffffffffffff821115620006c657620006c562000624565b5b620006d18262000613565b9050602081019050919050565b60005b83811015620006fe578082015181840152602081019050620006e1565b838111156200070e576000848401525b50505050565b60006200072b6200072584620006a8565b62000689565b9050828152602081018484840111156200074a57620007496200060e565b5b62000757848285620006de565b509392505050565b600082601f83011262000777576200077662000609565b5b81516200078984826020860162000714565b91505092915050565b600060208284031215620007ab57620007aa62000554565b5b600082015167ffffffffffffffff811115620007cc57620007cb62000559565b5b620007da848285016200075f565b91505092915050565b600081905092915050565b7f506f776572656420557020000000000000000000000000000000000000000000600082015250565b600062000826600b83620007e3565b91506200083382620007ee565b600b82019050919050565b600081519050919050565b600062000856826200083e565b620008628185620007e3565b935062000874818560208601620006de565b80840191505092915050565b60006200088d8262000817565b91506200089b828462000849565b915081905092915050565b7f7000000000000000000000000000000000000000000000000000000000000000600082015250565b6000620008de600183620007e3565b9150620008eb82620008a6565b600182019050919050565b60006200090382620008cf565b915062000911828462000849565b915081905092915050565b600060ff82169050919050565b62000934816200091c565b81146200094057600080fd5b50565b600081519050620009548162000929565b92915050565b60006020828403121562000973576200097262000554565b5b6000620009838482850162000943565b91505092915050565b6000819050919050565b7f4e487b7100000000000000000000000000000000000000000000000000000000600052601160045260246000fd5b6000620009d2826200098c565b9150620009df836200098c565b9250827fffffffffffffffffffffffffffffffffffffffffffffffffffffffffffffffff0382111562000a175762000a1662000996565b5b828201905092915050565b7f4e487b7100000000000000000000000000000000000000000000000000000000600052602260045260246000fd5b6000600282049050600182168062000a6a57607f821691505b6020821081141562000a815762000a8062000a22565b5b50919050565b600081905092915050565b60008190508160005260206000209050919050565b6000815462000ab68162000a51565b62000ac2818662000a87565b9450600182166000811462000ae0576001811462000af25762000b29565b60ff1983168652818601935062000b29565b62000afd8562000a92565b60005b8381101562000b215781548189015260018201915060208101905062000b00565b838801955050505b50505092915050565b600062000b40828462000aa7565b915081905092915050565b6000819050919050565b62000b608162000b4b565b82525050565b62000b71816200098c565b82525050565b62000b82816200057e565b82525050565b600060a08201905062000b9f600083018862000b55565b62000bae602083018762000b55565b62000bbd604083018662000b55565b62000bcc606083018562000b66565b62000bdb608083018462000b77565b9695505050505050565b600060208201905062000bfc600083018462000b66565b92915050565b60805160a05160c05160e051610100516139c362000c71600039600081816110340152818161109b015261159e015260008181610e650152818161128901528181611394015281816118740152611b7d01526000610e3e01526000610e0a01526000610de401526139c36000f3fe608060405234801561001057600080fd5b506004361061027f5760003560e01c80636e553f651161015c578063be0522e0116100ce578063d905777e11610087578063d905777e14610878578063dd62ed3e146108a8578063ef8b30f7146108d8578063f2439f0c14610908578063f2f4eb2614610938578063fd41c9c7146109565761027f565b8063be0522e01461077e578063be2bf6f81461079c578063c63d75b6146107cc578063c6e6f592146107fc578063ce96cb771461082c578063d505accf1461085c5761027f565b8063a123c33e11610120578063a123c33e14610684578063a5a98d78146106b4578063a9059cbb146106be578063b3d7f6b9146106ee578063b460af941461071e578063ba0876521461074e5761027f565b80636e553f65146105a657806370a08231146105d65780637ecebe001461060657806394bf804d1461063657806395d89b41146106665761027f565b806338d52e0f116101f5578063553275be116101b9578063553275be146104d0578063586ffae81461050257806361e0b2531461051e57806366666aa91461053c57806366ccfb6e1461055a578063670844e11461058a5761027f565b806338d52e0f14610416578063402d267d14610434578063437a8ae61461046457806347799da8146104825780634cdad506146104a05761027f565b80630fb5a6b4116102475780630fb5a6b41461035057806318160ddd1461036e57806323b872dd1461038c5780632c4e722e146103bc578063313ce567146103da5780633644e515146103f85761027f565b806301e1d1141461028457806306fdde03146102a257806307a2d13a146102c0578063095ea7b3146102f05780630a28a47714610320575b600080fd5b61028c610986565b6040516102999190612a0b565b60405180910390f35b6102aa610990565b6040516102b79190612abf565b60405180910390f35b6102da60048036038101906102d59190612b12565b610a1e565b6040516102e79190612a0b565b60405180910390f35b61030a60048036038101906103059190612b9d565b610a59565b6040516103179190612bf8565b60405180910390f35b61033a60048036038101906103359190612b12565b610b4b565b6040516103479190612a0b565b60405180910390f35b610358610b86565b6040516103659190612a0b565b60405180910390f35b610376610b8c565b6040516103839190612a0b565b60405180910390f35b6103a660048036038101906103a19190612c13565b610b92565b6040516103b39190612bf8565b60405180910390f35b6103c4610ddc565b6040516103d19190612a0b565b60405180910390f35b6103e2610de2565b6040516103ef9190612c82565b60405180910390f35b610400610e06565b60405161040d9190612cb6565b60405180910390f35b61041e610e63565b60405161042b9190612d30565b60405180910390f35b61044e60048036038101906104499190612d4b565b610e87565b60405161045b9190612a0b565b60405180910390f35b61046c610eb1565b6040516104799190612a0b565b60405180910390f35b61048a610eb7565b6040516104979190612a0b565b60405180910390f35b6104ba60048036038101906104b59190612b12565b610ebd565b6040516104c79190612a0b565b60405180910390f35b6104ea60048036038101906104e59190612b12565b610ecf565b6040516104f993929190612d87565b60405180910390f35b61051c60048036038101906105179190612dbe565b610f19565b005b610526611032565b6040516105339190612e1f565b60405180910390f35b610544611056565b6040516105519190612a0b565b60405180910390f35b610574600480360381019061056f9190612e3a565b61105c565b6040516105819190612bf8565b60405180910390f35b6105a4600480360381019061059f9190612e3a565b6111e7565b005b6105c060048036038101906105bb9190612dbe565b611231565b6040516105cd9190612a0b565b60405180910390f35b6105f060048036038101906105eb9190612d4b565b61134f565b6040516105fd9190612a0b565b60405180910390f35b610620600480360381019061061b9190612d4b565b611367565b60405161062d9190612a0b565b60405180910390f35b610650600480360381019061064b9190612dbe565b61137f565b60405161065d9190612a0b565b60405180910390f35b61066e61145a565b60405161067b9190612abf565b60405180910390f35b61069e60048036038101906106999190612b12565b6114e8565b6040516106ab9190612a0b565b60405180910390f35b6106bc611500565b005b6106d860048036038101906106d39190612b9d565b61168e565b6040516106e59190612bf8565b60405180910390f35b61070860048036038101906107039190612b12565b6117a2565b6040516107159190612a0b565b60405180910390f35b61073860048036038101906107339190612e7a565b6117dd565b6040516107459190612a0b565b60405180910390f35b61076860048036038101906107639190612e7a565b611929565b6040516107759190612a0b565b60405180910390f35b610786611bc8565b6040516107939190612a0b565b60405180910390f35b6107b660048036038101906107b19190612e3a565b611bce565b6040516107c39190612bf8565b60405180910390f35b6107e660048036038101906107e19190612d4b565b611cfc565b6040516107f39190612a0b565b60405180910390f35b61081660048036038101906108119190612b12565b611d26565b6040516108239190612a0b565b60405180910390f35b61084660048036038101906108419190612d4b565b611d61565b6040516108539190612a0b565b60405180910390f35b61087660048036038101906108719190612f25565b611db2565b005b610892600480360381019061088d9190612d4b565b6120ab565b60405161089f9190612a0b565b60405180910390f35b6108c260048036038101906108bd9190612fc7565b6120f4565b6040516108cf9190612a0b565b60405180910390f35b6108f260048036038101906108ed9190612b12565b612119565b6040516108ff9190612a0b565b60405180910390f35b610922600480360381019061091d9190612b12565b61212b565b60405161092f9190612bf8565b60405180910390f35b61094061219a565b60405161094d9190612a0b565b60405180910390f35b610970600480360381019061096b9190612e3a565b6121a0565b60405161097d9190612bf8565b60405180910390f35b6000600254905090565b6000805461099d90613036565b80601f01602080910402602001604051908101604052809291908181526020018280546109c990613036565b8015610a165780601f106109eb57610100808354040283529160200191610a16565b820191906000526020600020905b8154815290600101906020018083116109f957829003601f168201915b505050505081565b600080600254905060008114610a4f57610a4a610a39610986565b82856123929092919063ffffffff16565b610a51565b825b915050919050565b600081600460003373ffffffffffffffffffffffffffffffffffffffff1673ffffffffffffffffffffffffffffffffffffffff16815260200190815260200160002060008573ffffffffffffffffffffffffffffffffffffffff1673ffffffffffffffffffffffffffffffffffffffff168152602001908152602001600020819055508273ffffffffffffffffffffffffffffffffffffffff163373ffffffffffffffffffffffffffffffffffffffff167f8c5be1e5ebec7d5bd14f71427d1e84f3dd0314c0f7b2291e5b200ac8c7c3b92584604051610b399190612a0b565b60405180910390a36001905092915050565b600080600254905060008114610b7c57610b7781610b67610986565b856123ba9092919063ffffffff16565b610b7e565b825b915050919050565b600b5481565b60025481565b600080600460008673ffffffffffffffffffffffffffffffffffffffff1673ffffffffffffffffffffffffffffffffffffffff16815260200190815260200160002060003373ffffffffffffffffffffffffffffffffffffffff1673ffffffffffffffffffffffffffffffffffffffff1681526020019081526020016000205490507fffffffffffffffffffffffffffffffffffffffffffffffffffffffffffffffff8114610cc8578281610c479190613097565b600460008773ffffffffffffffffffffffffffffffffffffffff1673ffffffffffffffffffffffffffffffffffffffff16815260200190815260200160002060003373ffffffffffffffffffffffffffffffffffffffff1673ffffffffffffffffffffffffffffffffffffffff168152602001908152602001600020819055505b82600360008773ffffffffffffffffffffffffffffffffffffffff1673ffffffffffffffffffffffffffffffffffffffff1681526020019081526020016000206000828254610d179190613097565b9250508190555082600360008673ffffffffffffffffffffffffffffffffffffffff1673ffffffffffffffffffffffffffffffffffffffff168152602001908152602001600020600082825401925050819055508373ffffffffffffffffffffffffffffffffffffffff168573ffffffffffffffffffffffffffffffffffffffff167fddf252ad1be2c89b69c2b068fc378daa952ba7f163c4a11628f55a4df523b3ef85604051610dc89190612a0b565b60405180910390a360019150509392505050565b600c5481565b7f000000000000000000000000000000000000000000000000000000000000000081565b60007f00000000000000000000000000000000000000000000000000000000000000004614610e3c57610e376123ec565b610e5e565b7f00000000000000000000000000000000000000000000000000000000000000005b905090565b7f000000000000000000000000000000000000000000000000000000000000000081565b60007fffffffffffffffffffffffffffffffffffffffffffffffffffffffffffffffff9050919050565b600e5481565b600a5481565b6000610ec882610a1e565b9050919050565b60066020528060005260406000206000915090508060000160009054906101000a900473ffffffffffffffffffffffffffffffffffffffff16908060010154908060020154905083565b610f216129bb565b81816000019073ffffffffffffffffffffffffffffffffffffffff16908173ffffffffffffffffffffffffffffffffffffffff16815250506064816020018181525050806006600085815260200190815260200160002060008201518160000160006101000a81548173ffffffffffffffffffffffffffffffffffffffff021916908373ffffffffffffffffffffffffffffffffffffffff1602179055506020820151816001015560408201518160020155905050610fe982681b1ae4d6e2ef500000612478565b828273ffffffffffffffffffffffffffffffffffffffff167f2a08ab3d12dd2274a5880242f4d8e507c798938a27b56ee6a8a6828e9d4cddb460405160405180910390a3505050565b7f000000000000000000000000000000000000000000000000000000000000000081565b60085481565b6000806006600085815260200190815260200160002060000160009054906101000a900473ffffffffffffffffffffffffffffffffffffffff169050827f000000000000000000000000000000000000000000000000000000000000000073ffffffffffffffffffffffffffffffffffffffff166370a08231836040518263ffffffff1660e01b81526004016110f291906130cb565b60206040518083038186803b15801561110a57600080fd5b505afa15801561111e573d6000803e3d6000fd5b505050506040513d601f19601f8201168201806040525081019061114291906130fb565b1015915081611186576040517f08c379a000000000000000000000000000000000000000000000000000000000815260040161117d90613174565b60405180910390fd5b6111908382611231565b508073ffffffffffffffffffffffffffffffffffffffff16847f6053794844fb083c3cadb63a00ddef7ff8b7c16367fc70229748fa904d7f655c856040516111d89190612a0b565b60405180910390a35092915050565b81600760008381526020019081526020016000208190555081817f18fa8f47f5376f40dc1e84823dd86896057d6264054982e7ce4e6db9955bcdd860405160405180910390a35050565b60008061123d84612119565b9150811415611281576040517f08c379a0000000000000000000000000000000000000000000000000000000008152600401611278906131e0565b60405180910390fd5b6112ce3330857f000000000000000000000000000000000000000000000000000000000000000073ffffffffffffffffffffffffffffffffffffffff16612548909392919063ffffffff16565b6112d88282612478565b8173ffffffffffffffffffffffffffffffffffffffff163373ffffffffffffffffffffffffffffffffffffffff167fdcbc1c05240f31ff3ad067ef1ee35ce4997762752e3a095284754544f4c709d78584604051611337929190613200565b60405180910390a361134983826125e7565b92915050565b60036020528060005260406000206000915090505481565b60056020528060005260406000206000915090505481565b600061138a836117a2565b90506113d93330837f000000000000000000000000000000000000000000000000000000000000000073ffffffffffffffffffffffffffffffffffffffff16612548909392919063ffffffff16565b6113e38284612478565b8173ffffffffffffffffffffffffffffffffffffffff163373ffffffffffffffffffffffffffffffffffffffff167fdcbc1c05240f31ff3ad067ef1ee35ce4997762752e3a095284754544f4c709d78386604051611442929190613200565b60405180910390a361145481846125e7565b92915050565b6001805461146790613036565b80601f016020809104026020016040519081016040528092919081815260200182805461149390613036565b80156114e05780601f106114b5576101008083540402835291602001916114e0565b820191906000526020600020905b8154815290600101906020018083116114c357829003601f168201915b505050505081565b60076020528060005260406000206000915090505481565b60004290506000600b54600a54836115189190613097565b6115229190613258565b9050600254600d8190555060005b8181101561158057600e54600c54600d5461154b9190613289565b6115559190613258565b600d600082825461156691906132e3565b92505081905550808061157890613339565b915050611530565b50600254600d60008282546115959190613097565b925050819055507f000000000000000000000000000000000000000000000000000000000000000073ffffffffffffffffffffffffffffffffffffffff166340c10f1930600d546040518363ffffffff1660e01b81526004016115f9929190613382565b600060405180830381600087803b15801561161357600080fd5b505af1158015611627573d6000803e3d6000fd5b50505050600d546008600082825461163f91906132e3565b9250508190555081600a819055507f4df34928a73fc3e550b40b9a054bd4f8f210ffbde0cfa807499993fa2d1715db600a54600d54604051611682929190613200565b60405180910390a15050565b600081600360003373ffffffffffffffffffffffffffffffffffffffff1673ffffffffffffffffffffffffffffffffffffffff16815260200190815260200160002060008282546116df9190613097565b9250508190555081600360008573ffffffffffffffffffffffffffffffffffffffff1673ffffffffffffffffffffffffffffffffffffffff168152602001908152602001600020600082825401925050819055508273ffffffffffffffffffffffffffffffffffffffff163373ffffffffffffffffffffffffffffffffffffffff167fddf252ad1be2c89b69c2b068fc378daa952ba7f163c4a11628f55a4df523b3ef846040516117909190612a0b565b60405180910390a36001905092915050565b6000806002549050600081146117d3576117ce6117bd610986565b82856123ba9092919063ffffffff16565b6117d5565b825b915050919050565b60006117e884610b4b565b90506117f482826125eb565b8173ffffffffffffffffffffffffffffffffffffffff168373ffffffffffffffffffffffffffffffffffffffff163373ffffffffffffffffffffffffffffffffffffffff167ffbde797d201c681b91056529119e0b02407c7bb96a4a2c75c01fc9667232c8db878560405161186a929190613200565b60405180910390a47f000000000000000000000000000000000000000000000000000000000000000073ffffffffffffffffffffffffffffffffffffffff166323b872dd3385876040518463ffffffff1660e01b81526004016118cf939291906133ab565b602060405180830381600087803b1580156118e957600080fd5b505af11580156118fd573d6000803e3d6000fd5b505050506040513d601f19601f82011682018060405250810190611921919061340e565b509392505050565b60008173ffffffffffffffffffffffffffffffffffffffff163373ffffffffffffffffffffffffffffffffffffffff1614611a95576000600460008473ffffffffffffffffffffffffffffffffffffffff1673ffffffffffffffffffffffffffffffffffffffff16815260200190815260200160002060003373ffffffffffffffffffffffffffffffffffffffff1673ffffffffffffffffffffffffffffffffffffffff1681526020019081526020016000205490507fffffffffffffffffffffffffffffffffffffffffffffffffffffffffffffffff8114611a93578481611a129190613097565b600460008573ffffffffffffffffffffffffffffffffffffffff1673ffffffffffffffffffffffffffffffffffffffff16815260200190815260200160002060003373ffffffffffffffffffffffffffffffffffffffff1673ffffffffffffffffffffffffffffffffffffffff168152602001908152602001600020819055505b505b6000611aa085610ebd565b9150811415611ae4576040517f08c379a0000000000000000000000000000000000000000000000000000000008152600401611adb90613487565b60405180910390fd5b611aee81856126bb565b611af882856125eb565b8173ffffffffffffffffffffffffffffffffffffffff168373ffffffffffffffffffffffffffffffffffffffff163373ffffffffffffffffffffffffffffffffffffffff167ffbde797d201c681b91056529119e0b02407c7bb96a4a2c75c01fc9667232c8db8488604051611b6e929190613200565b60405180910390a4611bc183827f000000000000000000000000000000000000000000000000000000000000000073ffffffffffffffffffffffffffffffffffffffff166126bf9092919063ffffffff16565b9392505050565b600d5481565b6000806006600085815260200190815260200160002060000160009054906101000a900473ffffffffffffffffffffffffffffffffffffffff16905082600360008373ffffffffffffffffffffffffffffffffffffffff1673ffffffffffffffffffffffffffffffffffffffff168152602001908152602001600020541015915081611c8f576040517f08c379a0000000000000000000000000000000000000000000000000000000008152600401611c8690613174565b60405180910390fd5b611c9a813085612757565b611ca58382836117dd565b508073ffffffffffffffffffffffffffffffffffffffff16847f2161c25a76b379e01c2eebcd077217a1bdcec52b712e9003af484a647148efda85604051611ced9190612a0b565b60405180910390a35092915050565b60007fffffffffffffffffffffffffffffffffffffffffffffffffffffffffffffffff9050919050565b600080600254905060008114611d5757611d5281611d42610986565b856123929092919063ffffffff16565b611d59565b825b915050919050565b6000611dab600360008473ffffffffffffffffffffffffffffffffffffffff1673ffffffffffffffffffffffffffffffffffffffff16815260200190815260200160002054610a1e565b9050919050565b42841015611df5576040517f08c379a0000000000000000000000000000000000000000000000000000000008152600401611dec906134f3565b60405180910390fd5b60006001611e01610e06565b7f6e71edae12b1b97f4d1f60370fef10105fa2faae0126114a169c64845d6126c98a8a8a600560008f73ffffffffffffffffffffffffffffffffffffffff1673ffffffffffffffffffffffffffffffffffffffff1681526020019081526020016000206000815480929190600101919050558b604051602001611e8996959493929190613513565b60405160208183030381529060405280519060200120604051602001611eb09291906135ec565b6040516020818303038152906040528051906020012085858560405160008152602001604052604051611ee69493929190613623565b6020604051602081039080840390855afa158015611f08573d6000803e3d6000fd5b505050602060405103519050600073ffffffffffffffffffffffffffffffffffffffff168173ffffffffffffffffffffffffffffffffffffffff1614158015611f7c57508773ffffffffffffffffffffffffffffffffffffffff168173ffffffffffffffffffffffffffffffffffffffff16145b611fbb576040517f08c379a0000000000000000000000000000000000000000000000000000000008152600401611fb2906136b4565b60405180910390fd5b85600460008373ffffffffffffffffffffffffffffffffffffffff1673ffffffffffffffffffffffffffffffffffffffff16815260200190815260200160002060008973ffffffffffffffffffffffffffffffffffffffff1673ffffffffffffffffffffffffffffffffffffffff16815260200190815260200160002081905550508573ffffffffffffffffffffffffffffffffffffffff168773ffffffffffffffffffffffffffffffffffffffff167f8c5be1e5ebec7d5bd14f71427d1e84f3dd0314c0f7b2291e5b200ac8c7c3b9258760405161209a9190612a0b565b60405180910390a350505050505050565b6000600360008373ffffffffffffffffffffffffffffffffffffffff1673ffffffffffffffffffffffffffffffffffffffff168152602001908152602001600020549050919050565b6004602052816000526040600020602052806000526040600020600091509150505481565b600061212482611d26565b9050919050565b60008073ffffffffffffffffffffffffffffffffffffffff166006600084815260200190815260200160002060000160009054906101000a900473ffffffffffffffffffffffffffffffffffffffff1673ffffffffffffffffffffffffffffffffffffffff1614159050919050565b60095481565b60006121aa611500565b6121b383612922565b6000600660008581526020019081526020016000209050600081600101546064600360008560000160009054906101000a900473ffffffffffffffffffffffffffffffffffffffff1673ffffffffffffffffffffffffffffffffffffffff1673ffffffffffffffffffffffffffffffffffffffff168152602001908152602001600020546008546122449190613258565b61224e9190613258565b6122589190613289565b9050670de0b6b3a76400008161226e9190613289565b90506122b68260000160009054906101000a900473ffffffffffffffffffffffffffffffffffffffff1660646014846122a79190613289565b6122b19190613258565b612478565b61230e6006600086815260200190815260200160002060000160009054906101000a900473ffffffffffffffffffffffffffffffffffffffff1660646050846122ff9190613289565b6123099190613258565b612478565b80600860008282546123209190613097565b92505081905550428260020181905550600a8260010160008282546123459190613097565b92505081905550600192504284867fac3b8ab89a07bbb8dd4670bcfe29ef7d4eccea237222f49f997884d89947d53d846040516123829190612a0b565b60405180910390a4505092915050565b600082840290508284820414841517821515166123ae57600080fd5b81810490509392505050565b600082840290508284820414841517821515166123d657600080fd5b6001826001830304018115150290509392505050565b60007f8b73c3c69bb8fe3d512ecc4cf759cc79239f7b179b0ffacaa9a75d522b39400f600060405161241e9190613773565b60405180910390207fc89efdaa54c0f20c7adf612882df0950f5a951637e0307cdcb4c672f298b8bc6463060405160200161245d95949392919061378a565b60405160208183030381529060405280519060200120905090565b806002600082825461248a91906132e3565b9250508190555080600360008473ffffffffffffffffffffffffffffffffffffffff1673ffffffffffffffffffffffffffffffffffffffff168152602001908152602001600020600082825401925050819055508173ffffffffffffffffffffffffffffffffffffffff16600073ffffffffffffffffffffffffffffffffffffffff167fddf252ad1be2c89b69c2b068fc378daa952ba7f163c4a11628f55a4df523b3ef8360405161253c9190612a0b565b60405180910390a35050565b60006040517f23b872dd0000000000000000000000000000000000000000000000000000000081528460048201528360248201528260448201526020600060648360008a5af13d15601f3d11600160005114161716915050806125e0576040517f08c379a00000000000000000000000000000000000000000000000000000000081526004016125d790613829565b60405180910390fd5b5050505050565b5050565b80600360008473ffffffffffffffffffffffffffffffffffffffff1673ffffffffffffffffffffffffffffffffffffffff168152602001908152602001600020600082825461263a9190613097565b9250508190555080600260008282540392505081905550600073ffffffffffffffffffffffffffffffffffffffff168273ffffffffffffffffffffffffffffffffffffffff167fddf252ad1be2c89b69c2b068fc378daa952ba7f163c4a11628f55a4df523b3ef836040516126af9190612a0b565b60405180910390a35050565b5050565b60006040517fa9059cbb000000000000000000000000000000000000000000000000000000008152836004820152826024820152602060006044836000895af13d15601f3d1160016000511416171691505080612751576040517f08c379a000000000000000000000000000000000000000000000000000000000815260040161274890613895565b60405180910390fd5b50505050565b600073ffffffffffffffffffffffffffffffffffffffff168373ffffffffffffffffffffffffffffffffffffffff1614156127c7576040517f08c379a00000000000000000000000000000000000000000000000000000000081526004016127be90613901565b60405180910390fd5b600073ffffffffffffffffffffffffffffffffffffffff168273ffffffffffffffffffffffffffffffffffffffff161415612837576040517f08c379a000000000000000000000000000000000000000000000000000000000815260040161282e9061396d565b60405180910390fd5b80600460008573ffffffffffffffffffffffffffffffffffffffff1673ffffffffffffffffffffffffffffffffffffffff16815260200190815260200160002060008473ffffffffffffffffffffffffffffffffffffffff1673ffffffffffffffffffffffffffffffffffffffff168152602001908152602001600020819055508173ffffffffffffffffffffffffffffffffffffffff168373ffffffffffffffffffffffffffffffffffffffff167f8c5be1e5ebec7d5bd14f71427d1e84f3dd0314c0f7b2291e5b200ac8c7c3b925836040516129159190612a0b565b60405180910390a3505050565b60246006600083815260200190815260200160002060020154426129469190613097565b6129509190613258565b60066000838152602001908152602001600020600101600082825461297591906132e3565b925050819055506064600660008381526020019081526020016000206001015411156129b857606460066000838152602001908152602001600020600101819055505b50565b6040518060600160405280600073ffffffffffffffffffffffffffffffffffffffff16815260200160008152602001600081525090565b6000819050919050565b612a05816129f2565b82525050565b6000602082019050612a2060008301846129fc565b92915050565b600081519050919050565b600082825260208201905092915050565b60005b83811015612a60578082015181840152602081019050612a45565b83811115612a6f576000848401525b50505050565b6000601f19601f8301169050919050565b6000612a9182612a26565b612a9b8185612a31565b9350612aab818560208601612a42565b612ab481612a75565b840191505092915050565b60006020820190508181036000830152612ad98184612a86565b905092915050565b600080fd5b612aef816129f2565b8114612afa57600080fd5b50565b600081359050612b0c81612ae6565b92915050565b600060208284031215612b2857612b27612ae1565b5b6000612b3684828501612afd565b91505092915050565b600073ffffffffffffffffffffffffffffffffffffffff82169050919050565b6000612b6a82612b3f565b9050919050565b612b7a81612b5f565b8114612b8557600080fd5b50565b600081359050612b9781612b71565b92915050565b60008060408385031215612bb457612bb3612ae1565b5b6000612bc285828601612b88565b9250506020612bd385828601612afd565b9150509250929050565b60008115159050919050565b612bf281612bdd565b82525050565b6000602082019050612c0d6000830184612be9565b92915050565b600080600060608486031215612c2c57612c2b612ae1565b5b6000612c3a86828701612b88565b9350506020612c4b86828701612b88565b9250506040612c5c86828701612afd565b9150509250925092565b600060ff82169050919050565b612c7c81612c66565b82525050565b6000602082019050612c976000830184612c73565b92915050565b6000819050919050565b612cb081612c9d565b82525050565b6000602082019050612ccb6000830184612ca7565b92915050565b6000819050919050565b6000612cf6612cf1612cec84612b3f565b612cd1565b612b3f565b9050919050565b6000612d0882612cdb565b9050919050565b6000612d1a82612cfd565b9050919050565b612d2a81612d0f565b82525050565b6000602082019050612d456000830184612d21565b92915050565b600060208284031215612d6157612d60612ae1565b5b6000612d6f84828501612b88565b91505092915050565b612d8181612b5f565b82525050565b6000606082019050612d9c6000830186612d78565b612da960208301856129fc565b612db660408301846129fc565b949350505050565b60008060408385031215612dd557612dd4612ae1565b5b6000612de385828601612afd565b9250506020612df485828601612b88565b9150509250929050565b6000612e0982612cfd565b9050919050565b612e1981612dfe565b82525050565b6000602082019050612e346000830184612e10565b92915050565b60008060408385031215612e5157612e50612ae1565b5b6000612e5f85828601612afd565b9250506020612e7085828601612afd565b9150509250929050565b600080600060608486031215612e9357612e92612ae1565b5b6000612ea186828701612afd565b9350506020612eb286828701612b88565b9250506040612ec386828701612b88565b9150509250925092565b612ed681612c66565b8114612ee157600080fd5b50565b600081359050612ef381612ecd565b92915050565b612f0281612c9d565b8114612f0d57600080fd5b50565b600081359050612f1f81612ef9565b92915050565b600080600080600080600060e0888a031215612f4457612f43612ae1565b5b6000612f528a828b01612b88565b9750506020612f638a828b01612b88565b9650506040612f748a828b01612afd565b9550506060612f858a828b01612afd565b9450506080612f968a828b01612ee4565b93505060a0612fa78a828b01612f10565b92505060c0612fb88a828b01612f10565b91505092959891949750929550565b60008060408385031215612fde57612fdd612ae1565b5b6000612fec85828601612b88565b9250506020612ffd85828601612b88565b9150509250929050565b7f4e487b7100000000000000000000000000000000000000000000000000000000600052602260045260246000fd5b6000600282049050600182168061304e57607f821691505b6020821081141561306257613061613007565b5b50919050565b7f4e487b7100000000000000000000000000000000000000000000000000000000600052601160045260246000fd5b60006130a2826129f2565b91506130ad836129f2565b9250828210156130c0576130bf613068565b5b828203905092915050565b60006020820190506130e06000830184612d78565b92915050565b6000815190506130f581612ae6565b92915050565b60006020828403121561311157613110612ae1565b5b600061311f848285016130e6565b91505092915050565b7f494e53554646494349454e545f42414c414e4345000000000000000000000000600082015250565b600061315e601483612a31565b915061316982613128565b602082019050919050565b6000602082019050818103600083015261318d81613151565b9050919050565b7f5a45524f5f534841524553000000000000000000000000000000000000000000600082015250565b60006131ca600b83612a31565b91506131d582613194565b602082019050919050565b600060208201905081810360008301526131f9816131bd565b9050919050565b600060408201905061321560008301856129fc565b61322260208301846129fc565b9392505050565b7f4e487b7100000000000000000000000000000000000000000000000000000000600052601260045260246000fd5b6000613263826129f2565b915061326e836129f2565b92508261327e5761327d613229565b5b828204905092915050565b6000613294826129f2565b915061329f836129f2565b9250817fffffffffffffffffffffffffffffffffffffffffffffffffffffffffffffffff04831182151516156132d8576132d7613068565b5b828202905092915050565b60006132ee826129f2565b91506132f9836129f2565b9250827fffffffffffffffffffffffffffffffffffffffffffffffffffffffffffffffff0382111561332e5761332d613068565b5b828201905092915050565b6000613344826129f2565b91507fffffffffffffffffffffffffffffffffffffffffffffffffffffffffffffffff82141561337757613376613068565b5b600182019050919050565b60006040820190506133976000830185612d78565b6133a460208301846129fc565b9392505050565b60006060820190506133c06000830186612d78565b6133cd6020830185612d78565b6133da60408301846129fc565b949350505050565b6133eb81612bdd565b81146133f657600080fd5b50565b600081519050613408816133e2565b92915050565b60006020828403121561342457613423612ae1565b5b6000613432848285016133f9565b91505092915050565b7f5a45524f5f415353455453000000000000000000000000000000000000000000600082015250565b6000613471600b83612a31565b915061347c8261343b565b602082019050919050565b600060208201905081810360008301526134a081613464565b9050919050565b7f5045524d49545f444541444c494e455f45585049524544000000000000000000600082015250565b60006134dd601783612a31565b91506134e8826134a7565b602082019050919050565b6000602082019050818103600083015261350c816134d0565b9050919050565b600060c0820190506135286000830189612ca7565b6135356020830188612d78565b6135426040830187612d78565b61354f60608301866129fc565b61355c60808301856129fc565b61356960a08301846129fc565b979650505050505050565b600081905092915050565b7f1901000000000000000000000000000000000000000000000000000000000000600082015250565b60006135b5600283613574565b91506135c08261357f565b600282019050919050565b6000819050919050565b6135e66135e182612c9d565b6135cb565b82525050565b60006135f7826135a8565b915061360382856135d5565b60208201915061361382846135d5565b6020820191508190509392505050565b60006080820190506136386000830187612ca7565b6136456020830186612c73565b6136526040830185612ca7565b61365f6060830184612ca7565b95945050505050565b7f494e56414c49445f5349474e4552000000000000000000000000000000000000600082015250565b600061369e600e83612a31565b91506136a982613668565b602082019050919050565b600060208201905081810360008301526136cd81613691565b9050919050565b600081905092915050565b60008190508160005260206000209050919050565b6000815461370181613036565b61370b81866136d4565b9450600182166000811461372657600181146137375761376a565b60ff1983168652818601935061376a565b613740856136df565b60005b8381101561376257815481890152600182019150602081019050613743565b838801955050505b50505092915050565b600061377f82846136f4565b915081905092915050565b600060a08201905061379f6000830188612ca7565b6137ac6020830187612ca7565b6137b96040830186612ca7565b6137c660608301856129fc565b6137d36080830184612d78565b9695505050505050565b7f5452414e534645525f46524f4d5f4641494c4544000000000000000000000000600082015250565b6000613813601483612a31565b915061381e826137dd565b602082019050919050565b6000602082019050818103600083015261384281613806565b9050919050565b7f5452414e534645525f4641494c45440000000000000000000000000000000000600082015250565b600061387f600f83612a31565b915061388a82613849565b602082019050919050565b600060208201905081810360008301526138ae81613872565b9050919050565b7f5a45524f5f414444524553535f4f574e45520000000000000000000000000000600082015250565b60006138eb601283612a31565b91506138f6826138b5565b602082019050919050565b6000602082019050818103600083015261391a816138de565b9050919050565b7f5a45524f5f414444524553535f5350454e444552000000000000000000000000600082015250565b6000613957601483612a31565b915061396282613921565b602082019050919050565b600060208201905081810360008301526139868161394a565b905091905056fea2646970667358221220e32310a8990acac26b042dd25a784d555165852da1aa18d845cef716852db39d64736f6c63430008090033",
  "linkReferences": {},
  "deployedLinkReferences": {}
}