{
  "_format": "hh-sol-artifact-1",
  "contractName": "Engagement",
  "sourceName": "contracts/Engagement.sol",
  "abi": [
    {
      "inputs": [
        {
          "internalType": "contract Token",
          "name": "_token",
          "type": "address"
        }
      ],
      "stateMutability": "nonpayable",
      "type": "constructor"
    },
    {
      "anonymous": false,
      "inputs": [
        {
          "indexed": true,
          "internalType": "address",
          "name": "owner",
          "type": "address"
        },
        {
          "indexed": true,
          "internalType": "address",
          "name": "spender",
          "type": "address"
        },
        {
          "indexed": false,
          "internalType": "uint256",
          "name": "amount",
          "type": "uint256"
        }
      ],
      "name": "Approval",
      "type": "event"
    },
    {
      "anonymous": false,
      "inputs": [
        {
          "indexed": true,
          "internalType": "address",
          "name": "_address",
          "type": "address"
        },
        {
          "indexed": true,
          "internalType": "uint256",
          "name": "discord_id",
          "type": "uint256"
        }
      ],
      "name": "Authenticate",
      "type": "event"
    },
    {
      "anonymous": false,
      "inputs": [
        {
          "indexed": true,
          "internalType": "uint256",
          "name": "from_discord_id",
          "type": "uint256"
        },
        {
          "indexed": true,
          "internalType": "uint256",
          "name": "to_discord_id",
          "type": "uint256"
        },
        {
          "indexed": true,
          "internalType": "uint256",
          "name": "time",
          "type": "uint256"
        },
        {
          "indexed": false,
          "internalType": "uint256",
          "name": "value",
          "type": "uint256"
        }
      ],
      "name": "Engaged",
      "type": "event"
    },
    {
      "anonymous": false,
      "inputs": [
        {
          "indexed": false,
          "internalType": "uint256",
          "name": "time",
          "type": "uint256"
        },
        {
          "indexed": false,
          "internalType": "uint256",
          "name": "amount",
          "type": "uint256"
        }
      ],
      "name": "Inflation",
      "type": "event"
    },
    {
      "anonymous": false,
      "inputs": [
        {
          "indexed": true,
          "internalType": "uint256",
          "name": "server_id",
          "type": "uint256"
        },
        {
          "indexed": true,
          "internalType": "uint256",
          "name": "owner_id",
          "type": "uint256"
        }
      ],
      "name": "OwnerAssigned",
      "type": "event"
    },
    {
      "anonymous": false,
      "inputs": [
        {
          "indexed": true,
          "internalType": "uint256",
          "name": "discord_id",
          "type": "uint256"
        },
        {
          "indexed": true,
          "internalType": "address",
          "name": "_address",
          "type": "address"
        },
        {
          "indexed": false,
          "internalType": "uint256",
          "name": "amount",
          "type": "uint256"
        }
      ],
      "name": "PowerDown",
      "type": "event"
    },
    {
      "anonymous": false,
      "inputs": [
        {
          "indexed": true,
          "internalType": "uint256",
          "name": "discord_id",
          "type": "uint256"
        },
        {
          "indexed": true,
          "internalType": "address",
          "name": "_address",
          "type": "address"
        },
        {
          "indexed": false,
          "internalType": "uint256",
          "name": "amount",
          "type": "uint256"
        }
      ],
      "name": "PowerUp",
      "type": "event"
    },
    {
      "anonymous": false,
      "inputs": [
        {
          "indexed": true,
          "internalType": "address",
          "name": "from",
          "type": "address"
        },
        {
          "indexed": true,
          "internalType": "address",
          "name": "to",
          "type": "address"
        },
        {
          "indexed": false,
          "internalType": "uint256",
          "name": "amount",
          "type": "uint256"
        }
      ],
      "name": "Transfer",
      "type": "event"
    },
    {
      "inputs": [],
      "name": "DOMAIN_SEPARATOR",
      "outputs": [
        {
          "internalType": "bytes32",
          "name": "",
          "type": "bytes32"
        }
      ],
      "stateMutability": "view",
      "type": "function"
    },
    {
      "inputs": [
        {
          "internalType": "address",
          "name": "",
          "type": "address"
        },
        {
          "internalType": "address",
          "name": "",
          "type": "address"
        }
      ],
      "name": "allowance",
      "outputs": [
        {
          "internalType": "uint256",
          "name": "",
          "type": "uint256"
        }
      ],
      "stateMutability": "view",
      "type": "function"
    },
    {
      "inputs": [
        {
          "internalType": "address",
          "name": "spender",
          "type": "address"
        },
        {
          "internalType": "uint256",
          "name": "amount",
          "type": "uint256"
        }
      ],
      "name": "approve",
      "outputs": [
        {
          "internalType": "bool",
          "name": "",
          "type": "bool"
        }
      ],
      "stateMutability": "nonpayable",
      "type": "function"
    },
    {
      "inputs": [
        {
          "internalType": "uint256",
          "name": "discord_id",
          "type": "uint256"
        },
        {
          "internalType": "bytes32",
          "name": "hash",
          "type": "bytes32"
        },
        {
          "internalType": "uint8",
          "name": "v",
          "type": "uint8"
        },
        {
          "internalType": "bytes32",
          "name": "r",
          "type": "bytes32"
        },
        {
          "internalType": "bytes32",
          "name": "s",
          "type": "bytes32"
        }
      ],
      "name": "authenticate",
      "outputs": [],
      "stateMutability": "nonpayable",
      "type": "function"
    },
    {
      "inputs": [
        {
          "internalType": "address",
          "name": "",
          "type": "address"
        }
      ],
      "name": "balanceOf",
      "outputs": [
        {
          "internalType": "uint256",
          "name": "",
          "type": "uint256"
        }
      ],
      "stateMutability": "view",
      "type": "function"
    },
    {
      "inputs": [],
      "name": "core",
      "outputs": [
        {
          "internalType": "uint256",
          "name": "",
          "type": "uint256"
        }
      ],
      "stateMutability": "view",
      "type": "function"
    },
    {
      "inputs": [],
      "name": "decimals",
      "outputs": [
        {
          "internalType": "uint8",
          "name": "",
          "type": "uint8"
        }
      ],
      "stateMutability": "view",
      "type": "function"
    },
    {
      "inputs": [],
      "name": "duration",
      "outputs": [
        {
          "internalType": "uint256",
          "name": "",
          "type": "uint256"
        }
      ],
      "stateMutability": "view",
      "type": "function"
    },
    {
      "inputs": [
        {
          "internalType": "uint256",
          "name": "engager_id",
          "type": "uint256"
        },
        {
          "internalType": "uint256",
          "name": "engagee_id",
          "type": "uint256"
        }
      ],
      "name": "engage",
      "outputs": [
        {
          "internalType": "bool",
          "name": "engaged",
          "type": "bool"
        }
      ],
      "stateMutability": "nonpayable",
      "type": "function"
    },
    {
      "inputs": [],
      "name": "inflate",
      "outputs": [],
      "stateMutability": "nonpayable",
      "type": "function"
    },
    {
      "inputs": [],
      "name": "inflation",
      "outputs": [
        {
          "internalType": "uint256",
          "name": "",
          "type": "uint256"
        }
      ],
      "stateMutability": "view",
      "type": "function"
    },
    {
      "inputs": [
        {
          "internalType": "uint256",
          "name": "discord_id",
          "type": "uint256"
        }
      ],
      "name": "isAuthenticated",
      "outputs": [
        {
          "internalType": "bool",
          "name": "authenticated",
          "type": "bool"
        }
      ],
      "stateMutability": "view",
      "type": "function"
    },
    {
      "inputs": [],
      "name": "last",
      "outputs": [
        {
          "internalType": "uint256",
          "name": "",
          "type": "uint256"
        }
      ],
      "stateMutability": "view",
      "type": "function"
    },
    {
      "inputs": [],
      "name": "multiple",
      "outputs": [
        {
          "internalType": "uint256",
          "name": "",
          "type": "uint256"
        }
      ],
      "stateMutability": "view",
      "type": "function"
    },
    {
      "inputs": [],
      "name": "name",
      "outputs": [
        {
          "internalType": "string",
          "name": "",
          "type": "string"
        }
      ],
      "stateMutability": "view",
      "type": "function"
    },
    {
      "inputs": [
        {
          "internalType": "address",
          "name": "",
          "type": "address"
        }
      ],
      "name": "nonces",
      "outputs": [
        {
          "internalType": "uint256",
          "name": "",
          "type": "uint256"
        }
      ],
      "stateMutability": "view",
      "type": "function"
    },
    {
      "inputs": [
        {
          "internalType": "uint256",
          "name": "",
          "type": "uint256"
        }
      ],
      "name": "owner",
      "outputs": [
        {
          "internalType": "uint256",
          "name": "",
          "type": "uint256"
        }
      ],
      "stateMutability": "view",
      "type": "function"
    },
    {
      "inputs": [
        {
          "internalType": "address",
          "name": "owner",
          "type": "address"
        },
        {
          "internalType": "address",
          "name": "spender",
          "type": "address"
        },
        {
          "internalType": "uint256",
          "name": "value",
          "type": "uint256"
        },
        {
          "internalType": "uint256",
          "name": "deadline",
          "type": "uint256"
        },
        {
          "internalType": "uint8",
          "name": "v",
          "type": "uint8"
        },
        {
          "internalType": "bytes32",
          "name": "r",
          "type": "bytes32"
        },
        {
          "internalType": "bytes32",
          "name": "s",
          "type": "bytes32"
        }
      ],
      "name": "permit",
      "outputs": [],
      "stateMutability": "nonpayable",
      "type": "function"
    },
    {
      "inputs": [
        {
          "internalType": "uint256",
          "name": "discord_id",
          "type": "uint256"
        },
        {
          "internalType": "uint256",
          "name": "amount",
          "type": "uint256"
        }
      ],
      "name": "powerDown",
      "outputs": [
        {
          "internalType": "bool",
          "name": "depowered",
          "type": "bool"
        }
      ],
      "stateMutability": "nonpayable",
      "type": "function"
    },
    {
      "inputs": [
        {
          "internalType": "uint256",
          "name": "discord_id",
          "type": "uint256"
        },
        {
          "internalType": "uint256",
          "name": "amount",
          "type": "uint256"
        }
      ],
      "name": "powerUp",
      "outputs": [
        {
          "internalType": "bool",
          "name": "powered",
          "type": "bool"
        }
      ],
      "stateMutability": "nonpayable",
      "type": "function"
    },
    {
      "inputs": [],
      "name": "rate",
      "outputs": [
        {
          "internalType": "uint256",
          "name": "",
          "type": "uint256"
        }
      ],
      "stateMutability": "view",
      "type": "function"
    },
    {
      "inputs": [],
      "name": "rewardPool",
      "outputs": [
        {
          "internalType": "uint256",
          "name": "",
          "type": "uint256"
        }
      ],
      "stateMutability": "view",
      "type": "function"
    },
    {
      "inputs": [],
      "name": "symbol",
      "outputs": [
        {
          "internalType": "string",
          "name": "",
          "type": "string"
        }
      ],
      "stateMutability": "view",
      "type": "function"
    },
    {
      "inputs": [],
      "name": "token",
      "outputs": [
        {
          "internalType": "contract Token",
          "name": "",
          "type": "address"
        }
      ],
      "stateMutability": "view",
      "type": "function"
    },
    {
      "inputs": [],
      "name": "totalSupply",
      "outputs": [
        {
          "internalType": "uint256",
          "name": "",
          "type": "uint256"
        }
      ],
      "stateMutability": "view",
      "type": "function"
    },
    {
      "inputs": [
        {
          "internalType": "address",
          "name": "to",
          "type": "address"
        },
        {
          "internalType": "uint256",
          "name": "amount",
          "type": "uint256"
        }
      ],
      "name": "transfer",
      "outputs": [
        {
          "internalType": "bool",
          "name": "",
          "type": "bool"
        }
      ],
      "stateMutability": "nonpayable",
      "type": "function"
    },
    {
      "inputs": [
        {
          "internalType": "address",
          "name": "from",
          "type": "address"
        },
        {
          "internalType": "address",
          "name": "to",
          "type": "address"
        },
        {
          "internalType": "uint256",
          "name": "amount",
          "type": "uint256"
        }
      ],
      "name": "transferFrom",
      "outputs": [
        {
          "internalType": "bool",
          "name": "",
          "type": "bool"
        }
      ],
      "stateMutability": "nonpayable",
      "type": "function"
    },
    {
      "inputs": [
        {
          "internalType": "uint256",
          "name": "",
          "type": "uint256"
        }
      ],
      "name": "user",
      "outputs": [
        {
          "internalType": "address",
          "name": "eoa",
          "type": "address"
        },
        {
          "internalType": "uint256",
          "name": "mana",
          "type": "uint256"
        },
        {
          "internalType": "uint256",
          "name": "lastEngagement",
          "type": "uint256"
        }
      ],
      "stateMutability": "view",
      "type": "function"
    }
  ],
  "bytecode": "0x61010060405242600a55610708600b556007600c55620186a0600e553480156200002857600080fd5b506040516200358f3803806200358f83398181016040528101906200004e919062000504565b8073ffffffffffffffffffffffffffffffffffffffff166306fdde036040518163ffffffff1660e01b815260040160006040518083038186803b1580156200009557600080fd5b505afa158015620000aa573d6000803e3d6000fd5b505050506040513d6000823e3d601f19601f82011682018060405250810190620000d59190620006bf565b604051602001620000e79190620007ad565b6040516020818303038152906040528173ffffffffffffffffffffffffffffffffffffffff166395d89b416040518163ffffffff1660e01b815260040160006040518083038186803b1580156200013d57600080fd5b505afa15801562000152573d6000803e3d6000fd5b505050506040513d6000823e3d601f19601f820116820180604052508101906200017d9190620006bf565b6040516020016200018f919062000823565b60405160208183030381529060405260128260009080519060200190620001b8929190620003c7565b508160019080519060200190620001d1929190620003c7565b508060ff1660808160ff16815250504660a08181525050620001f86200026360201b60201c565b60c081815250505050508073ffffffffffffffffffffffffffffffffffffffff1660e08173ffffffffffffffffffffffffffffffffffffffff16815250506a084595161401484a0000006008819055506200025c30600854620002f360201b60201c565b5062000abf565b60007f8b73c3c69bb8fe3d512ecc4cf759cc79239f7b179b0ffacaa9a75d522b39400f600060405162000297919062000959565b60405180910390207fc89efdaa54c0f20c7adf612882df0950f5a951637e0307cdcb4c672f298b8bc64630604051602001620002d8959493929190620009b9565b60405160208183030381529060405280519060200120905090565b806002600082825462000307919062000a45565b9250508190555080600360008473ffffffffffffffffffffffffffffffffffffffff1673ffffffffffffffffffffffffffffffffffffffff168152602001908152602001600020600082825401925050819055508173ffffffffffffffffffffffffffffffffffffffff16600073ffffffffffffffffffffffffffffffffffffffff167fddf252ad1be2c89b69c2b068fc378daa952ba7f163c4a11628f55a4df523b3ef83604051620003bb919062000aa2565b60405180910390a35050565b828054620003d59062000878565b90600052602060002090601f016020900481019282620003f9576000855562000445565b82601f106200041457805160ff191683800117855562000445565b8280016001018555821562000445579182015b828111156200044457825182559160200191906001019062000427565b5b50905062000454919062000458565b5090565b5b808211156200047357600081600090555060010162000459565b5090565b6000604051905090565b600080fd5b600080fd5b600073ffffffffffffffffffffffffffffffffffffffff82169050919050565b6000620004b8826200048b565b9050919050565b6000620004cc82620004ab565b9050919050565b620004de81620004bf565b8114620004ea57600080fd5b50565b600081519050620004fe81620004d3565b92915050565b6000602082840312156200051d576200051c62000481565b5b60006200052d84828501620004ed565b91505092915050565b600080fd5b600080fd5b6000601f19601f8301169050919050565b7f4e487b7100000000000000000000000000000000000000000000000000000000600052604160045260246000fd5b6200058b8262000540565b810181811067ffffffffffffffff82111715620005ad57620005ac62000551565b5b80604052505050565b6000620005c262000477565b9050620005d0828262000580565b919050565b600067ffffffffffffffff821115620005f357620005f262000551565b5b620005fe8262000540565b9050602081019050919050565b60005b838110156200062b5780820151818401526020810190506200060e565b838111156200063b576000848401525b50505050565b6000620006586200065284620005d5565b620005b6565b9050828152602081018484840111156200067757620006766200053b565b5b620006848482856200060b565b509392505050565b600082601f830112620006a457620006a362000536565b5b8151620006b684826020860162000641565b91505092915050565b600060208284031215620006d857620006d762000481565b5b600082015167ffffffffffffffff811115620006f957620006f862000486565b5b62000707848285016200068c565b91505092915050565b600081905092915050565b7f506f776572656420557020000000000000000000000000000000000000000000600082015250565b600062000753600b8362000710565b915062000760826200071b565b600b82019050919050565b600081519050919050565b600062000783826200076b565b6200078f818562000710565b9350620007a18185602086016200060b565b80840191505092915050565b6000620007ba8262000744565b9150620007c8828462000776565b915081905092915050565b7f7000000000000000000000000000000000000000000000000000000000000000600082015250565b60006200080b60018362000710565b91506200081882620007d3565b600182019050919050565b60006200083082620007fc565b91506200083e828462000776565b915081905092915050565b7f4e487b7100000000000000000000000000000000000000000000000000000000600052602260045260246000fd5b600060028204905060018216806200089157607f821691505b60208210811415620008a857620008a762000849565b5b50919050565b600081905092915050565b60008190508160005260206000209050919050565b60008154620008dd8162000878565b620008e98186620008ae565b94506001821660008114620009075760018114620009195762000950565b60ff1983168652818601935062000950565b6200092485620008b9565b60005b83811015620009485781548189015260018201915060208101905062000927565b838801955050505b50505092915050565b6000620009678284620008ce565b915081905092915050565b6000819050919050565b620009878162000972565b82525050565b6000819050919050565b620009a2816200098d565b82525050565b620009b381620004ab565b82525050565b600060a082019050620009d060008301886200097c565b620009df60208301876200097c565b620009ee60408301866200097c565b620009fd606083018562000997565b62000a0c6080830184620009a8565b9695505050505050565b7f4e487b7100000000000000000000000000000000000000000000000000000000600052601160045260246000fd5b600062000a52826200098d565b915062000a5f836200098d565b9250827fffffffffffffffffffffffffffffffffffffffffffffffffffffffffffffffff0382111562000a975762000a9662000a16565b5b828201905092915050565b600060208201905062000ab9600083018462000997565b92915050565b60805160a05160c05160e051612a7362000b1c60003960008181610acb01528181610bb801528181610e19015281816110f00152818161165501526117ae01526000610a0b015260006109d7015260006109b10152612a736000f3fe608060405234801561001057600080fd5b50600436106101c45760003560e01c80637ecebe00116100f9578063d505accf11610097578063f2439f0c11610071578063f2439f0c14610537578063f2f4eb2614610567578063fc0c546a14610585578063fd41c9c7146105a3576101c4565b8063d505accf146104cf578063dd62ed3e146104eb578063e1a634a81461051b576101c4565b8063a5a98d78116100d3578063a5a98d7814610447578063a9059cbb14610451578063be0522e014610481578063be2bf6f81461049f576101c4565b80637ecebe00146103c957806395d89b41146103f9578063a123c33e14610417576101c4565b80633644e51511610166578063553275be11610140578063553275be1461031957806366666aa91461034b57806366ccfb6e1461036957806370a0823114610399576101c4565b80633644e515146102bf578063437a8ae6146102dd57806347799da8146102fb576101c4565b806318160ddd116101a257806318160ddd1461023557806323b872dd146102535780632c4e722e14610283578063313ce567146102a1576101c4565b806306fdde03146101c9578063095ea7b3146101e75780630fb5a6b414610217575b600080fd5b6101d16105d3565b6040516101de9190611d41565b60405180910390f35b61020160048036038101906101fc9190611dfc565b610661565b60405161020e9190611e57565b60405180910390f35b61021f610753565b60405161022c9190611e81565b60405180910390f35b61023d610759565b60405161024a9190611e81565b60405180910390f35b61026d60048036038101906102689190611e9c565b61075f565b60405161027a9190611e57565b60405180910390f35b61028b6109a9565b6040516102989190611e81565b60405180910390f35b6102a96109af565b6040516102b69190611f0b565b60405180910390f35b6102c76109d3565b6040516102d49190611f3f565b60405180910390f35b6102e5610a30565b6040516102f29190611e81565b60405180910390f35b610303610a36565b6040516103109190611e81565b60405180910390f35b610333600480360381019061032e9190611f5a565b610a3c565b60405161034293929190611f96565b60405180910390f35b610353610a86565b6040516103609190611e81565b60405180910390f35b610383600480360381019061037e9190611fcd565b610a8c565b6040516103909190611e57565b60405180910390f35b6103b360048036038101906103ae919061200d565b610ca5565b6040516103c09190611e81565b60405180910390f35b6103e360048036038101906103de919061200d565b610cbd565b6040516103f09190611e81565b60405180910390f35b610401610cd5565b60405161040e9190611d41565b60405180910390f35b610431600480360381019061042c9190611f5a565b610d63565b60405161043e9190611e81565b60405180910390f35b61044f610d7b565b005b61046b60048036038101906104669190611dfc565b610f09565b6040516104789190611e57565b60405180910390f35b61048961101d565b6040516104969190611e81565b60405180910390f35b6104b960048036038101906104b49190611fcd565b611023565b6040516104c69190611e57565b60405180910390f35b6104e960048036038101906104e49190612092565b6111f2565b005b61050560048036038101906105009190612134565b6114eb565b6040516105129190611e81565b60405180910390f35b61053560048036038101906105309190612174565b611510565b005b610551600480360381019061054c9190611f5a565b611737565b60405161055e9190611e57565b60405180910390f35b61056f6117a6565b60405161057c9190611e81565b60405180910390f35b61058d6117ac565b60405161059a919061224e565b60405180910390f35b6105bd60048036038101906105b89190611fcd565b6117d0565b6040516105ca9190611e57565b60405180910390f35b600080546105e090612298565b80601f016020809104026020016040519081016040528092919081815260200182805461060c90612298565b80156106595780601f1061062e57610100808354040283529160200191610659565b820191906000526020600020905b81548152906001019060200180831161063c57829003601f168201915b505050505081565b600081600460003373ffffffffffffffffffffffffffffffffffffffff1673ffffffffffffffffffffffffffffffffffffffff16815260200190815260200160002060008573ffffffffffffffffffffffffffffffffffffffff1673ffffffffffffffffffffffffffffffffffffffff168152602001908152602001600020819055508273ffffffffffffffffffffffffffffffffffffffff163373ffffffffffffffffffffffffffffffffffffffff167f8c5be1e5ebec7d5bd14f71427d1e84f3dd0314c0f7b2291e5b200ac8c7c3b925846040516107419190611e81565b60405180910390a36001905092915050565b600b5481565b60025481565b600080600460008673ffffffffffffffffffffffffffffffffffffffff1673ffffffffffffffffffffffffffffffffffffffff16815260200190815260200160002060003373ffffffffffffffffffffffffffffffffffffffff1673ffffffffffffffffffffffffffffffffffffffff1681526020019081526020016000205490507fffffffffffffffffffffffffffffffffffffffffffffffffffffffffffffffff811461089557828161081491906122f9565b600460008773ffffffffffffffffffffffffffffffffffffffff1673ffffffffffffffffffffffffffffffffffffffff16815260200190815260200160002060003373ffffffffffffffffffffffffffffffffffffffff1673ffffffffffffffffffffffffffffffffffffffff168152602001908152602001600020819055505b82600360008773ffffffffffffffffffffffffffffffffffffffff1673ffffffffffffffffffffffffffffffffffffffff16815260200190815260200160002060008282546108e491906122f9565b9250508190555082600360008673ffffffffffffffffffffffffffffffffffffffff1673ffffffffffffffffffffffffffffffffffffffff168152602001908152602001600020600082825401925050819055508373ffffffffffffffffffffffffffffffffffffffff168573ffffffffffffffffffffffffffffffffffffffff167fddf252ad1be2c89b69c2b068fc378daa952ba7f163c4a11628f55a4df523b3ef856040516109959190611e81565b60405180910390a360019150509392505050565b600c5481565b7f000000000000000000000000000000000000000000000000000000000000000081565b60007f00000000000000000000000000000000000000000000000000000000000000004614610a0957610a046119c2565b610a2b565b7f00000000000000000000000000000000000000000000000000000000000000005b905090565b600e5481565b600a5481565b60066020528060005260406000206000915090508060000160009054906101000a900473ffffffffffffffffffffffffffffffffffffffff16908060010154908060020154905083565b60085481565b6000806006600085815260200190815260200160002060000160009054906101000a900473ffffffffffffffffffffffffffffffffffffffff169050827f000000000000000000000000000000000000000000000000000000000000000073ffffffffffffffffffffffffffffffffffffffff166370a08231836040518263ffffffff1660e01b8152600401610b22919061232d565b60206040518083038186803b158015610b3a57600080fd5b505afa158015610b4e573d6000803e3d6000fd5b505050506040513d601f19601f82011682018060405250810190610b72919061235d565b1015915081610bb6576040517f08c379a0000000000000000000000000000000000000000000000000000000008152600401610bad906123d6565b60405180910390fd5b7f000000000000000000000000000000000000000000000000000000000000000073ffffffffffffffffffffffffffffffffffffffff166386731ff88230866040518463ffffffff1660e01b8152600401610c13939291906123f6565b600060405180830381600087803b158015610c2d57600080fd5b505af1158015610c41573d6000803e3d6000fd5b50505050610c4f8184611a4e565b8073ffffffffffffffffffffffffffffffffffffffff16847f6053794844fb083c3cadb63a00ddef7ff8b7c16367fc70229748fa904d7f655c85604051610c969190611e81565b60405180910390a35092915050565b60036020528060005260406000206000915090505481565b60056020528060005260406000206000915090505481565b60018054610ce290612298565b80601f0160208091040260200160405190810160405280929190818152602001828054610d0e90612298565b8015610d5b5780601f10610d3057610100808354040283529160200191610d5b565b820191906000526020600020905b815481529060010190602001808311610d3e57829003601f168201915b505050505081565b60076020528060005260406000206000915090505481565b60004290506000600b54600a5483610d9391906122f9565b610d9d919061245c565b9050600254600d8190555060005b81811015610dfb57600e54600c54600d54610dc6919061248d565b610dd0919061245c565b600d6000828254610de191906124e7565b925050819055508080610df39061253d565b915050610dab565b50600254600d6000828254610e1091906122f9565b925050819055507f000000000000000000000000000000000000000000000000000000000000000073ffffffffffffffffffffffffffffffffffffffff166340c10f1930600d546040518363ffffffff1660e01b8152600401610e74929190612586565b600060405180830381600087803b158015610e8e57600080fd5b505af1158015610ea2573d6000803e3d6000fd5b50505050600d5460086000828254610eba91906124e7565b9250508190555081600a819055507f4df34928a73fc3e550b40b9a054bd4f8f210ffbde0cfa807499993fa2d1715db600a54600d54604051610efd9291906125af565b60405180910390a15050565b600081600360003373ffffffffffffffffffffffffffffffffffffffff1673ffffffffffffffffffffffffffffffffffffffff1681526020019081526020016000206000828254610f5a91906122f9565b9250508190555081600360008573ffffffffffffffffffffffffffffffffffffffff1673ffffffffffffffffffffffffffffffffffffffff168152602001908152602001600020600082825401925050819055508273ffffffffffffffffffffffffffffffffffffffff163373ffffffffffffffffffffffffffffffffffffffff167fddf252ad1be2c89b69c2b068fc378daa952ba7f163c4a11628f55a4df523b3ef8460405161100b9190611e81565b60405180910390a36001905092915050565b600d5481565b6000806006600085815260200190815260200160002060000160009054906101000a900473ffffffffffffffffffffffffffffffffffffffff16905082600360008373ffffffffffffffffffffffffffffffffffffffff1673ffffffffffffffffffffffffffffffffffffffff1681526020019081526020016000205410159150816110e4576040517f08c379a00000000000000000000000000000000000000000000000000000000081526004016110db906123d6565b60405180910390fd5b6110ee8184611b1e565b7f000000000000000000000000000000000000000000000000000000000000000073ffffffffffffffffffffffffffffffffffffffff1663a9059cbb82856040518363ffffffff1660e01b8152600401611149929190612586565b602060405180830381600087803b15801561116357600080fd5b505af1158015611177573d6000803e3d6000fd5b505050506040513d601f19601f8201168201806040525081019061119b9190612604565b508073ffffffffffffffffffffffffffffffffffffffff16847f2161c25a76b379e01c2eebcd077217a1bdcec52b712e9003af484a647148efda856040516111e39190611e81565b60405180910390a35092915050565b42841015611235576040517f08c379a000000000000000000000000000000000000000000000000000000000815260040161122c9061267d565b60405180910390fd5b600060016112416109d3565b7f6e71edae12b1b97f4d1f60370fef10105fa2faae0126114a169c64845d6126c98a8a8a600560008f73ffffffffffffffffffffffffffffffffffffffff1673ffffffffffffffffffffffffffffffffffffffff1681526020019081526020016000206000815480929190600101919050558b6040516020016112c99695949392919061269d565b604051602081830303815290604052805190602001206040516020016112f0929190612776565b604051602081830303815290604052805190602001208585856040516000815260200160405260405161132694939291906127ad565b6020604051602081039080840390855afa158015611348573d6000803e3d6000fd5b505050602060405103519050600073ffffffffffffffffffffffffffffffffffffffff168173ffffffffffffffffffffffffffffffffffffffff16141580156113bc57508773ffffffffffffffffffffffffffffffffffffffff168173ffffffffffffffffffffffffffffffffffffffff16145b6113fb576040517f08c379a00000000000000000000000000000000000000000000000000000000081526004016113f29061283e565b60405180910390fd5b85600460008373ffffffffffffffffffffffffffffffffffffffff1673ffffffffffffffffffffffffffffffffffffffff16815260200190815260200160002060008973ffffffffffffffffffffffffffffffffffffffff1673ffffffffffffffffffffffffffffffffffffffff16815260200190815260200160002081905550508573ffffffffffffffffffffffffffffffffffffffff168773ffffffffffffffffffffffffffffffffffffffff167f8c5be1e5ebec7d5bd14f71427d1e84f3dd0314c0f7b2291e5b200ac8c7c3b925876040516114da9190611e81565b60405180910390a350505050505050565b6004602052816000526040600020602052806000526040600020600091509150505481565b60008460405160200161152391906128aa565b60405160208183030381529060405280519060200120905060006001828686866040516000815260200160405260405161156094939291906127ad565b6020604051602081039080840390855afa158015611582573d6000803e3d6000fd5b505050602060405103519050611596611c71565b81816000019073ffffffffffffffffffffffffffffffffffffffff16908173ffffffffffffffffffffffffffffffffffffffff168152505080600660008a815260200190815260200160002060008201518160000160006101000a81548173ffffffffffffffffffffffffffffffffffffffff021916908373ffffffffffffffffffffffffffffffffffffffff160217905550602082015181600101556040820151816002015590505061165382681b1ae4d6e2ef500000611a4e565b7f000000000000000000000000000000000000000000000000000000000000000073ffffffffffffffffffffffffffffffffffffffff166340c10f1983681b1ae4d6e2ef5000006040518363ffffffff1660e01b81526004016116b792919061290b565b600060405180830381600087803b1580156116d157600080fd5b505af11580156116e5573d6000803e3d6000fd5b50505050878273ffffffffffffffffffffffffffffffffffffffff167f2a08ab3d12dd2274a5880242f4d8e507c798938a27b56ee6a8a6828e9d4cddb460405160405180910390a35050505050505050565b60008073ffffffffffffffffffffffffffffffffffffffff166006600084815260200190815260200160002060000160009054906101000a900473ffffffffffffffffffffffffffffffffffffffff1673ffffffffffffffffffffffffffffffffffffffff1614159050919050565b60095481565b7f000000000000000000000000000000000000000000000000000000000000000081565b60006117da610d7b565b6117e383611bee565b6000600660008581526020019081526020016000209050600081600101546064600360008560000160009054906101000a900473ffffffffffffffffffffffffffffffffffffffff1673ffffffffffffffffffffffffffffffffffffffff1673ffffffffffffffffffffffffffffffffffffffff16815260200190815260200160002054600854611874919061245c565b61187e919061245c565b611888919061248d565b9050670de0b6b3a76400008161189e919061248d565b90506118e68260000160009054906101000a900473ffffffffffffffffffffffffffffffffffffffff1660646014846118d7919061248d565b6118e1919061245c565b611a4e565b61193e6006600086815260200190815260200160002060000160009054906101000a900473ffffffffffffffffffffffffffffffffffffffff16606460508461192f919061248d565b611939919061245c565b611a4e565b806008600082825461195091906122f9565b92505081905550428260020181905550600a82600101600082825461197591906122f9565b92505081905550600192504284867fac3b8ab89a07bbb8dd4670bcfe29ef7d4eccea237222f49f997884d89947d53d846040516119b29190611e81565b60405180910390a4505092915050565b60007f8b73c3c69bb8fe3d512ecc4cf759cc79239f7b179b0ffacaa9a75d522b39400f60006040516119f491906129d3565b60405180910390207fc89efdaa54c0f20c7adf612882df0950f5a951637e0307cdcb4c672f298b8bc64630604051602001611a339594939291906129ea565b60405160208183030381529060405280519060200120905090565b8060026000828254611a6091906124e7565b9250508190555080600360008473ffffffffffffffffffffffffffffffffffffffff1673ffffffffffffffffffffffffffffffffffffffff168152602001908152602001600020600082825401925050819055508173ffffffffffffffffffffffffffffffffffffffff16600073ffffffffffffffffffffffffffffffffffffffff167fddf252ad1be2c89b69c2b068fc378daa952ba7f163c4a11628f55a4df523b3ef83604051611b129190611e81565b60405180910390a35050565b80600360008473ffffffffffffffffffffffffffffffffffffffff1673ffffffffffffffffffffffffffffffffffffffff1681526020019081526020016000206000828254611b6d91906122f9565b9250508190555080600260008282540392505081905550600073ffffffffffffffffffffffffffffffffffffffff168273ffffffffffffffffffffffffffffffffffffffff167fddf252ad1be2c89b69c2b068fc378daa952ba7f163c4a11628f55a4df523b3ef83604051611be29190611e81565b60405180910390a35050565b60006024600660008481526020019081526020016000206002015442611c1491906122f9565b611c1e919061245c565b6006600084815260200190815260200160002060010154611c3f91906124e7565b90506064811115611c51576064611c53565b805b60066000848152602001908152602001600020600101819055505050565b6040518060600160405280600073ffffffffffffffffffffffffffffffffffffffff16815260200160008152602001600081525090565b600081519050919050565b600082825260208201905092915050565b60005b83811015611ce2578082015181840152602081019050611cc7565b83811115611cf1576000848401525b50505050565b6000601f19601f8301169050919050565b6000611d1382611ca8565b611d1d8185611cb3565b9350611d2d818560208601611cc4565b611d3681611cf7565b840191505092915050565b60006020820190508181036000830152611d5b8184611d08565b905092915050565b600080fd5b600073ffffffffffffffffffffffffffffffffffffffff82169050919050565b6000611d9382611d68565b9050919050565b611da381611d88565b8114611dae57600080fd5b50565b600081359050611dc081611d9a565b92915050565b6000819050919050565b611dd981611dc6565b8114611de457600080fd5b50565b600081359050611df681611dd0565b92915050565b60008060408385031215611e1357611e12611d63565b5b6000611e2185828601611db1565b9250506020611e3285828601611de7565b9150509250929050565b60008115159050919050565b611e5181611e3c565b82525050565b6000602082019050611e6c6000830184611e48565b92915050565b611e7b81611dc6565b82525050565b6000602082019050611e966000830184611e72565b92915050565b600080600060608486031215611eb557611eb4611d63565b5b6000611ec386828701611db1565b9350506020611ed486828701611db1565b9250506040611ee586828701611de7565b9150509250925092565b600060ff82169050919050565b611f0581611eef565b82525050565b6000602082019050611f206000830184611efc565b92915050565b6000819050919050565b611f3981611f26565b82525050565b6000602082019050611f546000830184611f30565b92915050565b600060208284031215611f7057611f6f611d63565b5b6000611f7e84828501611de7565b91505092915050565b611f9081611d88565b82525050565b6000606082019050611fab6000830186611f87565b611fb86020830185611e72565b611fc56040830184611e72565b949350505050565b60008060408385031215611fe457611fe3611d63565b5b6000611ff285828601611de7565b925050602061200385828601611de7565b9150509250929050565b60006020828403121561202357612022611d63565b5b600061203184828501611db1565b91505092915050565b61204381611eef565b811461204e57600080fd5b50565b6000813590506120608161203a565b92915050565b61206f81611f26565b811461207a57600080fd5b50565b60008135905061208c81612066565b92915050565b600080600080600080600060e0888a0312156120b1576120b0611d63565b5b60006120bf8a828b01611db1565b97505060206120d08a828b01611db1565b96505060406120e18a828b01611de7565b95505060606120f28a828b01611de7565b94505060806121038a828b01612051565b93505060a06121148a828b0161207d565b92505060c06121258a828b0161207d565b91505092959891949750929550565b6000806040838503121561214b5761214a611d63565b5b600061215985828601611db1565b925050602061216a85828601611db1565b9150509250929050565b600080600080600060a086880312156121905761218f611d63565b5b600061219e88828901611de7565b95505060206121af8882890161207d565b94505060406121c088828901612051565b93505060606121d18882890161207d565b92505060806121e28882890161207d565b9150509295509295909350565b6000819050919050565b600061221461220f61220a84611d68565b6121ef565b611d68565b9050919050565b6000612226826121f9565b9050919050565b60006122388261221b565b9050919050565b6122488161222d565b82525050565b6000602082019050612263600083018461223f565b92915050565b7f4e487b7100000000000000000000000000000000000000000000000000000000600052602260045260246000fd5b600060028204905060018216806122b057607f821691505b602082108114156122c4576122c3612269565b5b50919050565b7f4e487b7100000000000000000000000000000000000000000000000000000000600052601160045260246000fd5b600061230482611dc6565b915061230f83611dc6565b925082821015612322576123216122ca565b5b828203905092915050565b60006020820190506123426000830184611f87565b92915050565b60008151905061235781611dd0565b92915050565b60006020828403121561237357612372611d63565b5b600061238184828501612348565b91505092915050565b7f494e53554646494349454e545f42414c414e4345000000000000000000000000600082015250565b60006123c0601483611cb3565b91506123cb8261238a565b602082019050919050565b600060208201905081810360008301526123ef816123b3565b9050919050565b600060608201905061240b6000830186611f87565b6124186020830185611f87565b6124256040830184611e72565b949350505050565b7f4e487b7100000000000000000000000000000000000000000000000000000000600052601260045260246000fd5b600061246782611dc6565b915061247283611dc6565b9250826124825761248161242d565b5b828204905092915050565b600061249882611dc6565b91506124a383611dc6565b9250817fffffffffffffffffffffffffffffffffffffffffffffffffffffffffffffffff04831182151516156124dc576124db6122ca565b5b828202905092915050565b60006124f282611dc6565b91506124fd83611dc6565b9250827fffffffffffffffffffffffffffffffffffffffffffffffffffffffffffffffff03821115612532576125316122ca565b5b828201905092915050565b600061254882611dc6565b91507fffffffffffffffffffffffffffffffffffffffffffffffffffffffffffffffff82141561257b5761257a6122ca565b5b600182019050919050565b600060408201905061259b6000830185611f87565b6125a86020830184611e72565b9392505050565b60006040820190506125c46000830185611e72565b6125d16020830184611e72565b9392505050565b6125e181611e3c565b81146125ec57600080fd5b50565b6000815190506125fe816125d8565b92915050565b60006020828403121561261a57612619611d63565b5b6000612628848285016125ef565b91505092915050565b7f5045524d49545f444541444c494e455f45585049524544000000000000000000600082015250565b6000612667601783611cb3565b915061267282612631565b602082019050919050565b600060208201905081810360008301526126968161265a565b9050919050565b600060c0820190506126b26000830189611f30565b6126bf6020830188611f87565b6126cc6040830187611f87565b6126d96060830186611e72565b6126e66080830185611e72565b6126f360a0830184611e72565b979650505050505050565b600081905092915050565b7f1901000000000000000000000000000000000000000000000000000000000000600082015250565b600061273f6002836126fe565b915061274a82612709565b600282019050919050565b6000819050919050565b61277061276b82611f26565b612755565b82525050565b600061278182612732565b915061278d828561275f565b60208201915061279d828461275f565b6020820191508190509392505050565b60006080820190506127c26000830187611f30565b6127cf6020830186611efc565b6127dc6040830185611f30565b6127e96060830184611f30565b95945050505050565b7f494e56414c49445f5349474e4552000000000000000000000000000000000000600082015250565b6000612828600e83611cb3565b9150612833826127f2565b602082019050919050565b600060208201905081810360008301526128578161281b565b9050919050565b7f19457468657265756d205369676e6564204d6573736167653a0a333200000000600082015250565b6000612894601c836126fe565b915061289f8261285e565b601c82019050919050565b60006128b582612887565b91506128c1828461275f565b60208201915081905092915050565b6000819050919050565b60006128f56128f06128eb846128d0565b6121ef565b611dc6565b9050919050565b612905816128da565b82525050565b60006040820190506129206000830185611f87565b61292d60208301846128fc565b9392505050565b600081905092915050565b60008190508160005260206000209050919050565b6000815461296181612298565b61296b8186612934565b945060018216600081146129865760018114612997576129ca565b60ff198316865281860193506129ca565b6129a08561293f565b60005b838110156129c2578154818901526001820191506020810190506129a3565b838801955050505b50505092915050565b60006129df8284612954565b915081905092915050565b600060a0820190506129ff6000830188611f30565b612a0c6020830187611f30565b612a196040830186611f30565b612a266060830185611e72565b612a336080830184611f87565b969550505050505056fea2646970667358221220f789346177cee9fcb8bf23ce543c491c2f2578f746866f4705c90e9d2b483f3664736f6c63430008090033",
  "linkReferences": {},
  "deployedLinkReferences": {}
}