{
    "_format": "hh-sol-artifact-1",
    "contractName": "Engagement",
    "sourceName": "contracts/Engagement.sol",
    "abi": [
        {
            "inputs": [
                {
                    "internalType": "contract Token",
                    "name": "_token",
                    "type": "address"
                }
            ],
            "stateMutability": "nonpayable",
            "type": "constructor"
        },
        {
            "anonymous": false,
            "inputs": [
                {
                    "indexed": true,
                    "internalType": "address",
                    "name": "owner",
                    "type": "address"
                },
                {
                    "indexed": true,
                    "internalType": "address",
                    "name": "spender",
                    "type": "address"
                },
                {
                    "indexed": false,
                    "internalType": "uint256",
                    "name": "amount",
                    "type": "uint256"
                }
            ],
            "name": "Approval",
            "type": "event"
        },
        {
            "anonymous": false,
            "inputs": [
                {
                    "indexed": true,
                    "internalType": "address",
                    "name": "_address",
                    "type": "address"
                },
                {
                    "indexed": true,
                    "internalType": "uint256",
                    "name": "discord_id",
                    "type": "uint256"
                }
            ],
            "name": "Authenticate",
            "type": "event"
        },
        {
            "anonymous": false,
            "inputs": [
                {
                    "indexed": true,
                    "internalType": "address",
                    "name": "caller",
                    "type": "address"
                },
                {
                    "indexed": true,
                    "internalType": "address",
                    "name": "owner",
                    "type": "address"
                },
                {
                    "indexed": false,
                    "internalType": "uint256",
                    "name": "assets",
                    "type": "uint256"
                },
                {
                    "indexed": false,
                    "internalType": "uint256",
                    "name": "shares",
                    "type": "uint256"
                }
            ],
            "name": "Deposit",
            "type": "event"
        },
        {
            "anonymous": false,
            "inputs": [
                {
                    "indexed": true,
                    "internalType": "uint256",
                    "name": "from_discord_id",
                    "type": "uint256"
                },
                {
                    "indexed": true,
                    "internalType": "uint256",
                    "name": "to_discord_id",
                    "type": "uint256"
                },
                {
                    "indexed": true,
                    "internalType": "uint256",
                    "name": "time",
                    "type": "uint256"
                },
                {
                    "indexed": false,
                    "internalType": "uint256",
                    "name": "value",
                    "type": "uint256"
                }
            ],
            "name": "Engaged",
            "type": "event"
        },
        {
            "anonymous": false,
            "inputs": [
                {
                    "indexed": false,
                    "internalType": "uint256",
                    "name": "time",
                    "type": "uint256"
                },
                {
                    "indexed": false,
                    "internalType": "uint256",
                    "name": "amount",
                    "type": "uint256"
                }
            ],
            "name": "Inflation",
            "type": "event"
        },
        {
            "anonymous": false,
            "inputs": [
                {
                    "indexed": true,
                    "internalType": "uint256",
                    "name": "server_id",
                    "type": "uint256"
                },
                {
                    "indexed": true,
                    "internalType": "uint256",
                    "name": "owner_id",
                    "type": "uint256"
                }
            ],
            "name": "OwnerAssigned",
            "type": "event"
        },
        {
            "anonymous": false,
            "inputs": [
                {
                    "indexed": true,
                    "internalType": "uint256",
                    "name": "discord_id",
                    "type": "uint256"
                },
                {
                    "indexed": true,
                    "internalType": "address",
                    "name": "_address",
                    "type": "address"
                },
                {
                    "indexed": false,
                    "internalType": "uint256",
                    "name": "amount",
                    "type": "uint256"
                }
            ],
            "name": "PowerDown",
            "type": "event"
        },
        {
            "anonymous": false,
            "inputs": [
                {
                    "indexed": true,
                    "internalType": "uint256",
                    "name": "discord_id",
                    "type": "uint256"
                },
                {
                    "indexed": true,
                    "internalType": "address",
                    "name": "_address",
                    "type": "address"
                },
                {
                    "indexed": false,
                    "internalType": "uint256",
                    "name": "amount",
                    "type": "uint256"
                }
            ],
            "name": "PowerUp",
            "type": "event"
        },
        {
            "anonymous": false,
            "inputs": [
                {
                    "indexed": true,
                    "internalType": "address",
                    "name": "from",
                    "type": "address"
                },
                {
                    "indexed": true,
                    "internalType": "address",
                    "name": "to",
                    "type": "address"
                },
                {
                    "indexed": false,
                    "internalType": "uint256",
                    "name": "amount",
                    "type": "uint256"
                }
            ],
            "name": "Transfer",
            "type": "event"
        },
        {
            "anonymous": false,
            "inputs": [
                {
                    "indexed": true,
                    "internalType": "address",
                    "name": "caller",
                    "type": "address"
                },
                {
                    "indexed": true,
                    "internalType": "address",
                    "name": "receiver",
                    "type": "address"
                },
                {
                    "indexed": true,
                    "internalType": "address",
                    "name": "owner",
                    "type": "address"
                },
                {
                    "indexed": false,
                    "internalType": "uint256",
                    "name": "assets",
                    "type": "uint256"
                },
                {
                    "indexed": false,
                    "internalType": "uint256",
                    "name": "shares",
                    "type": "uint256"
                }
            ],
            "name": "Withdraw",
            "type": "event"
        },
        {
            "inputs": [],
            "name": "DOMAIN_SEPARATOR",
            "outputs": [
                {
                    "internalType": "bytes32",
                    "name": "",
                    "type": "bytes32"
                }
            ],
            "stateMutability": "view",
            "type": "function"
        },
        {
            "inputs": [
                {
                    "internalType": "address",
                    "name": "",
                    "type": "address"
                },
                {
                    "internalType": "address",
                    "name": "",
                    "type": "address"
                }
            ],
            "name": "allowance",
            "outputs": [
                {
                    "internalType": "uint256",
                    "name": "",
                    "type": "uint256"
                }
            ],
            "stateMutability": "view",
            "type": "function"
        },
        {
            "inputs": [
                {
                    "internalType": "address",
                    "name": "spender",
                    "type": "address"
                },
                {
                    "internalType": "uint256",
                    "name": "amount",
                    "type": "uint256"
                }
            ],
            "name": "approve",
            "outputs": [
                {
                    "internalType": "bool",
                    "name": "",
                    "type": "bool"
                }
            ],
            "stateMutability": "nonpayable",
            "type": "function"
        },
        {
            "inputs": [
                {
                    "internalType": "address",
                    "name": "owner",
                    "type": "address"
                },
                {
                    "internalType": "address",
                    "name": "spender",
                    "type": "address"
                },
                {
                    "internalType": "uint256",
                    "name": "amount",
                    "type": "uint256"
                }
            ],
            "name": "approveFrom",
            "outputs": [
                {
                    "internalType": "bool",
                    "name": "",
                    "type": "bool"
                }
            ],
            "stateMutability": "nonpayable",
            "type": "function"
        },
        {
            "inputs": [],
            "name": "asset",
            "outputs": [
                {
                    "internalType": "contract ERC20",
                    "name": "",
                    "type": "address"
                }
            ],
            "stateMutability": "view",
            "type": "function"
        },
        {
            "inputs": [
                {
                    "internalType": "uint256",
                    "name": "discord_id",
                    "type": "uint256"
                },
                {
                    "internalType": "address",
                    "name": "_address",
                    "type": "address"
                }
            ],
            "name": "authenticate",
            "outputs": [
                {
                    "internalType": "bool",
                    "name": "success",
                    "type": "bool"
                }
            ],
            "stateMutability": "nonpayable",
            "type": "function"
        },
        {
            "inputs": [
                {
                    "internalType": "address",
                    "name": "",
                    "type": "address"
                }
            ],
            "name": "balanceOf",
            "outputs": [
                {
                    "internalType": "uint256",
                    "name": "",
                    "type": "uint256"
                }
            ],
            "stateMutability": "view",
            "type": "function"
        },
        {
            "inputs": [
                {
                    "internalType": "uint256",
                    "name": "shares",
                    "type": "uint256"
                }
            ],
            "name": "convertToAssets",
            "outputs": [
                {
                    "internalType": "uint256",
                    "name": "",
                    "type": "uint256"
                }
            ],
            "stateMutability": "view",
            "type": "function"
        },
        {
            "inputs": [
                {
                    "internalType": "uint256",
                    "name": "assets",
                    "type": "uint256"
                }
            ],
            "name": "convertToShares",
            "outputs": [
                {
                    "internalType": "uint256",
                    "name": "",
                    "type": "uint256"
                }
            ],
            "stateMutability": "view",
            "type": "function"
        },
        {
            "inputs": [],
            "name": "core",
            "outputs": [
                {
                    "internalType": "uint256",
                    "name": "",
                    "type": "uint256"
                }
            ],
            "stateMutability": "view",
            "type": "function"
        },
        {
            "inputs": [],
            "name": "decimals",
            "outputs": [
                {
                    "internalType": "uint8",
                    "name": "",
                    "type": "uint8"
                }
            ],
            "stateMutability": "view",
            "type": "function"
        },
        {
            "inputs": [
                {
                    "internalType": "uint256",
                    "name": "assets",
                    "type": "uint256"
                },
                {
                    "internalType": "address",
                    "name": "receiver",
                    "type": "address"
                }
            ],
            "name": "deposit",
            "outputs": [
                {
                    "internalType": "uint256",
                    "name": "shares",
                    "type": "uint256"
                }
            ],
            "stateMutability": "nonpayable",
            "type": "function"
        },
        {
            "inputs": [],
            "name": "duration",
            "outputs": [
                {
                    "internalType": "uint256",
                    "name": "",
                    "type": "uint256"
                }
            ],
            "stateMutability": "view",
            "type": "function"
        },
        {
            "inputs": [
                {
                    "internalType": "uint256",
                    "name": "engager_id",
                    "type": "uint256"
                },
                {
                    "internalType": "uint256",
                    "name": "engagee_id",
                    "type": "uint256"
                }
            ],
            "name": "engage",
            "outputs": [
                {
                    "internalType": "bool",
                    "name": "engaged",
                    "type": "bool"
                }
            ],
            "stateMutability": "nonpayable",
            "type": "function"
        },
        {
            "inputs": [],
            "name": "inflate",
            "outputs": [],
            "stateMutability": "nonpayable",
            "type": "function"
        },
        {
            "inputs": [],
            "name": "inflation",
            "outputs": [
                {
                    "internalType": "uint256",
                    "name": "",
                    "type": "uint256"
                }
            ],
            "stateMutability": "view",
            "type": "function"
        },
        {
            "inputs": [
                {
                    "internalType": "uint256",
                    "name": "discord_id",
                    "type": "uint256"
                }
            ],
            "name": "isAuthenticated",
            "outputs": [
                {
                    "internalType": "bool",
                    "name": "authenticated",
                    "type": "bool"
                }
            ],
            "stateMutability": "view",
            "type": "function"
        },
        {
            "inputs": [],
            "name": "last",
            "outputs": [
                {
                    "internalType": "uint256",
                    "name": "",
                    "type": "uint256"
                }
            ],
            "stateMutability": "view",
            "type": "function"
        },
        {
            "inputs": [
                {
                    "internalType": "address",
                    "name": "",
                    "type": "address"
                }
            ],
            "name": "maxDeposit",
            "outputs": [
                {
                    "internalType": "uint256",
                    "name": "",
                    "type": "uint256"
                }
            ],
            "stateMutability": "view",
            "type": "function"
        },
        {
            "inputs": [
                {
                    "internalType": "address",
                    "name": "",
                    "type": "address"
                }
            ],
            "name": "maxMint",
            "outputs": [
                {
                    "internalType": "uint256",
                    "name": "",
                    "type": "uint256"
                }
            ],
            "stateMutability": "view",
            "type": "function"
        },
        {
            "inputs": [
                {
                    "internalType": "address",
                    "name": "owner",
                    "type": "address"
                }
            ],
            "name": "maxRedeem",
            "outputs": [
                {
                    "internalType": "uint256",
                    "name": "",
                    "type": "uint256"
                }
            ],
            "stateMutability": "view",
            "type": "function"
        },
        {
            "inputs": [
                {
                    "internalType": "address",
                    "name": "owner",
                    "type": "address"
                }
            ],
            "name": "maxWithdraw",
            "outputs": [
                {
                    "internalType": "uint256",
                    "name": "",
                    "type": "uint256"
                }
            ],
            "stateMutability": "view",
            "type": "function"
        },
        {
            "inputs": [
                {
                    "internalType": "uint256",
                    "name": "shares",
                    "type": "uint256"
                },
                {
                    "internalType": "address",
                    "name": "receiver",
                    "type": "address"
                }
            ],
            "name": "mint",
            "outputs": [
                {
                    "internalType": "uint256",
                    "name": "assets",
                    "type": "uint256"
                }
            ],
            "stateMutability": "nonpayable",
            "type": "function"
        },
        {
            "inputs": [],
            "name": "multiple",
            "outputs": [
                {
                    "internalType": "uint256",
                    "name": "",
                    "type": "uint256"
                }
            ],
            "stateMutability": "view",
            "type": "function"
        },
        {
            "inputs": [],
            "name": "name",
            "outputs": [
                {
                    "internalType": "string",
                    "name": "",
                    "type": "string"
                }
            ],
            "stateMutability": "view",
            "type": "function"
        },
        {
            "inputs": [
                {
                    "internalType": "address",
                    "name": "",
                    "type": "address"
                }
            ],
            "name": "nonces",
            "outputs": [
                {
                    "internalType": "uint256",
                    "name": "",
                    "type": "uint256"
                }
            ],
            "stateMutability": "view",
            "type": "function"
        },
        {
            "inputs": [
                {
                    "internalType": "uint256",
                    "name": "",
                    "type": "uint256"
                }
            ],
            "name": "owner",
            "outputs": [
                {
                    "internalType": "uint256",
                    "name": "",
                    "type": "uint256"
                }
            ],
            "stateMutability": "view",
            "type": "function"
        },
        {
            "inputs": [
                {
                    "internalType": "address",
                    "name": "owner",
                    "type": "address"
                },
                {
                    "internalType": "address",
                    "name": "spender",
                    "type": "address"
                },
                {
                    "internalType": "uint256",
                    "name": "value",
                    "type": "uint256"
                },
                {
                    "internalType": "uint256",
                    "name": "deadline",
                    "type": "uint256"
                },
                {
                    "internalType": "uint8",
                    "name": "v",
                    "type": "uint8"
                },
                {
                    "internalType": "bytes32",
                    "name": "r",
                    "type": "bytes32"
                },
                {
                    "internalType": "bytes32",
                    "name": "s",
                    "type": "bytes32"
                }
            ],
            "name": "permit",
            "outputs": [],
            "stateMutability": "nonpayable",
            "type": "function"
        },
        {
            "inputs": [
                {
                    "internalType": "uint256",
                    "name": "discord_id",
                    "type": "uint256"
                },
                {
                    "internalType": "uint256",
                    "name": "amount",
                    "type": "uint256"
                }
            ],
            "name": "powerDown",
            "outputs": [
                {
                    "internalType": "bool",
                    "name": "depowered",
                    "type": "bool"
                }
            ],
            "stateMutability": "nonpayable",
            "type": "function"
        },
        {
            "inputs": [
                {
                    "internalType": "uint256",
                    "name": "discord_id",
                    "type": "uint256"
                },
                {
                    "internalType": "uint256",
                    "name": "amount",
                    "type": "uint256"
                }
            ],
            "name": "powerUp",
            "outputs": [
                {
                    "internalType": "bool",
                    "name": "powered",
                    "type": "bool"
                }
            ],
            "stateMutability": "nonpayable",
            "type": "function"
        },
        {
            "inputs": [
                {
                    "internalType": "uint256",
                    "name": "assets",
                    "type": "uint256"
                }
            ],
            "name": "previewDeposit",
            "outputs": [
                {
                    "internalType": "uint256",
                    "name": "",
                    "type": "uint256"
                }
            ],
            "stateMutability": "view",
            "type": "function"
        },
        {
            "inputs": [
                {
                    "internalType": "uint256",
                    "name": "shares",
                    "type": "uint256"
                }
            ],
            "name": "previewMint",
            "outputs": [
                {
                    "internalType": "uint256",
                    "name": "",
                    "type": "uint256"
                }
            ],
            "stateMutability": "view",
            "type": "function"
        },
        {
            "inputs": [
                {
                    "internalType": "uint256",
                    "name": "shares",
                    "type": "uint256"
                }
            ],
            "name": "previewRedeem",
            "outputs": [
                {
                    "internalType": "uint256",
                    "name": "",
                    "type": "uint256"
                }
            ],
            "stateMutability": "view",
            "type": "function"
        },
        {
            "inputs": [
                {
                    "internalType": "uint256",
                    "name": "assets",
                    "type": "uint256"
                }
            ],
            "name": "previewWithdraw",
            "outputs": [
                {
                    "internalType": "uint256",
                    "name": "",
                    "type": "uint256"
                }
            ],
            "stateMutability": "view",
            "type": "function"
        },
        {
            "inputs": [],
            "name": "rate",
            "outputs": [
                {
                    "internalType": "uint256",
                    "name": "",
                    "type": "uint256"
                }
            ],
            "stateMutability": "view",
            "type": "function"
        },
        {
            "inputs": [
                {
                    "internalType": "uint256",
                    "name": "shares",
                    "type": "uint256"
                },
                {
                    "internalType": "address",
                    "name": "receiver",
                    "type": "address"
                },
                {
                    "internalType": "address",
                    "name": "owner",
                    "type": "address"
                }
            ],
            "name": "redeem",
            "outputs": [
                {
                    "internalType": "uint256",
                    "name": "assets",
                    "type": "uint256"
                }
            ],
            "stateMutability": "nonpayable",
            "type": "function"
        },
        {
            "inputs": [],
            "name": "rewardPool",
            "outputs": [
                {
                    "internalType": "uint256",
                    "name": "",
                    "type": "uint256"
                }
            ],
            "stateMutability": "view",
            "type": "function"
        },
        {
            "inputs": [
                {
                    "internalType": "uint256",
                    "name": "discord_id",
                    "type": "uint256"
                },
                {
                    "internalType": "uint256",
                    "name": "server_id",
                    "type": "uint256"
                }
            ],
            "name": "setServerOwner",
            "outputs": [],
            "stateMutability": "nonpayable",
            "type": "function"
        },
        {
            "inputs": [],
            "name": "symbol",
            "outputs": [
                {
                    "internalType": "string",
                    "name": "",
                    "type": "string"
                }
            ],
            "stateMutability": "view",
            "type": "function"
        },
        {
            "inputs": [],
            "name": "token",
            "outputs": [
                {
                    "internalType": "contract Token",
                    "name": "",
                    "type": "address"
                }
            ],
            "stateMutability": "view",
            "type": "function"
        },
        {
            "inputs": [],
            "name": "totalAssets",
            "outputs": [
                {
                    "internalType": "uint256",
                    "name": "total",
                    "type": "uint256"
                }
            ],
            "stateMutability": "view",
            "type": "function"
        },
        {
            "inputs": [],
            "name": "totalSupply",
            "outputs": [
                {
                    "internalType": "uint256",
                    "name": "",
                    "type": "uint256"
                }
            ],
            "stateMutability": "view",
            "type": "function"
        },
        {
            "inputs": [
                {
                    "internalType": "address",
                    "name": "to",
                    "type": "address"
                },
                {
                    "internalType": "uint256",
                    "name": "amount",
                    "type": "uint256"
                }
            ],
            "name": "transfer",
            "outputs": [
                {
                    "internalType": "bool",
                    "name": "",
                    "type": "bool"
                }
            ],
            "stateMutability": "nonpayable",
            "type": "function"
        },
        {
            "inputs": [
                {
                    "internalType": "address",
                    "name": "from",
                    "type": "address"
                },
                {
                    "internalType": "address",
                    "name": "to",
                    "type": "address"
                },
                {
                    "internalType": "uint256",
                    "name": "amount",
                    "type": "uint256"
                }
            ],
            "name": "transferFrom",
            "outputs": [
                {
                    "internalType": "bool",
                    "name": "",
                    "type": "bool"
                }
            ],
            "stateMutability": "nonpayable",
            "type": "function"
        },
        {
            "inputs": [
                {
                    "internalType": "uint256",
                    "name": "",
                    "type": "uint256"
                }
            ],
            "name": "user",
            "outputs": [
                {
                    "internalType": "address",
                    "name": "eoa",
                    "type": "address"
                },
                {
                    "internalType": "uint256",
                    "name": "mana",
                    "type": "uint256"
                },
                {
                    "internalType": "uint256",
                    "name": "lastEngagement",
                    "type": "uint256"
                }
            ],
            "stateMutability": "view",
            "type": "function"
        },
        {
            "inputs": [
                {
                    "internalType": "uint256",
                    "name": "assets",
                    "type": "uint256"
                },
                {
                    "internalType": "address",
                    "name": "receiver",
                    "type": "address"
                },
                {
                    "internalType": "address",
                    "name": "owner",
                    "type": "address"
                }
            ],
            "name": "withdraw",
            "outputs": [
                {
                    "internalType": "uint256",
                    "name": "shares",
                    "type": "uint256"
                }
            ],
            "stateMutability": "nonpayable",
            "type": "function"
        }
    ],
    "bytecode": "0x61012060405242600a55610708600b556007600c55620186a0600e553480156200002857600080fd5b506040516200484d3803806200484d83398181016040528101906200004e9190620005d7565b808173ffffffffffffffffffffffffffffffffffffffff166306fdde036040518163ffffffff1660e01b815260040160006040518083038186803b1580156200009657600080fd5b505afa158015620000ab573d6000803e3d6000fd5b505050506040513d6000823e3d601f19601f82011682018060405250810190620000d6919062000792565b604051602001620000e8919062000880565b6040516020818303038152906040528273ffffffffffffffffffffffffffffffffffffffff166395d89b416040518163ffffffff1660e01b815260040160006040518083038186803b1580156200013e57600080fd5b505afa15801562000153573d6000803e3d6000fd5b505050506040513d6000823e3d601f19601f820116820180604052508101906200017e919062000792565b604051602001620001909190620008f6565b60405160208183030381529060405281818473ffffffffffffffffffffffffffffffffffffffff1663313ce5676040518163ffffffff1660e01b815260040160206040518083038186803b158015620001e857600080fd5b505afa158015620001fd573d6000803e3d6000fd5b505050506040513d601f19601f820116820180604052508101906200022391906200095a565b82600090805190602001906200023b9291906200049a565b508160019080519060200190620002549291906200049a565b508060ff1660808160ff16815250504660a081815250506200027b6200033660201b60201c565b60c081815250505050508273ffffffffffffffffffffffffffffffffffffffff1660e08173ffffffffffffffffffffffffffffffffffffffff16815250505050508073ffffffffffffffffffffffffffffffffffffffff166101008173ffffffffffffffffffffffffffffffffffffffff168152505060006a084595161401484a0000009050620003133082620003c660201b60201c565b8060086000828254620003279190620009c5565b92505081905550505062000c02565b60007f8b73c3c69bb8fe3d512ecc4cf759cc79239f7b179b0ffacaa9a75d522b39400f60006040516200036a919062000b32565b60405180910390207fc89efdaa54c0f20c7adf612882df0950f5a951637e0307cdcb4c672f298b8bc64630604051602001620003ab95949392919062000b88565b60405160208183030381529060405280519060200120905090565b8060026000828254620003da9190620009c5565b9250508190555080600360008473ffffffffffffffffffffffffffffffffffffffff1673ffffffffffffffffffffffffffffffffffffffff168152602001908152602001600020600082825401925050819055508173ffffffffffffffffffffffffffffffffffffffff16600073ffffffffffffffffffffffffffffffffffffffff167fddf252ad1be2c89b69c2b068fc378daa952ba7f163c4a11628f55a4df523b3ef836040516200048e919062000be5565b60405180910390a35050565b828054620004a89062000a51565b90600052602060002090601f016020900481019282620004cc576000855562000518565b82601f10620004e757805160ff191683800117855562000518565b8280016001018555821562000518579182015b8281111562000517578251825591602001919060010190620004fa565b5b5090506200052791906200052b565b5090565b5b80821115620005465760008160009055506001016200052c565b5090565b6000604051905090565b600080fd5b600080fd5b600073ffffffffffffffffffffffffffffffffffffffff82169050919050565b60006200058b826200055e565b9050919050565b60006200059f826200057e565b9050919050565b620005b18162000592565b8114620005bd57600080fd5b50565b600081519050620005d181620005a6565b92915050565b600060208284031215620005f057620005ef62000554565b5b60006200060084828501620005c0565b91505092915050565b600080fd5b600080fd5b6000601f19601f8301169050919050565b7f4e487b7100000000000000000000000000000000000000000000000000000000600052604160045260246000fd5b6200065e8262000613565b810181811067ffffffffffffffff8211171562000680576200067f62000624565b5b80604052505050565b6000620006956200054a565b9050620006a3828262000653565b919050565b600067ffffffffffffffff821115620006c657620006c562000624565b5b620006d18262000613565b9050602081019050919050565b60005b83811015620006fe578082015181840152602081019050620006e1565b838111156200070e576000848401525b50505050565b60006200072b6200072584620006a8565b62000689565b9050828152602081018484840111156200074a57620007496200060e565b5b62000757848285620006de565b509392505050565b600082601f83011262000777576200077662000609565b5b81516200078984826020860162000714565b91505092915050565b600060208284031215620007ab57620007aa62000554565b5b600082015167ffffffffffffffff811115620007cc57620007cb62000559565b5b620007da848285016200075f565b91505092915050565b600081905092915050565b7f506f776572656420557020000000000000000000000000000000000000000000600082015250565b600062000826600b83620007e3565b91506200083382620007ee565b600b82019050919050565b600081519050919050565b600062000856826200083e565b620008628185620007e3565b935062000874818560208601620006de565b80840191505092915050565b60006200088d8262000817565b91506200089b828462000849565b915081905092915050565b7f7000000000000000000000000000000000000000000000000000000000000000600082015250565b6000620008de600183620007e3565b9150620008eb82620008a6565b600182019050919050565b60006200090382620008cf565b915062000911828462000849565b915081905092915050565b600060ff82169050919050565b62000934816200091c565b81146200094057600080fd5b50565b600081519050620009548162000929565b92915050565b60006020828403121562000973576200097262000554565b5b6000620009838482850162000943565b91505092915050565b6000819050919050565b7f4e487b7100000000000000000000000000000000000000000000000000000000600052601160045260246000fd5b6000620009d2826200098c565b9150620009df836200098c565b9250827fffffffffffffffffffffffffffffffffffffffffffffffffffffffffffffffff0382111562000a175762000a1662000996565b5b828201905092915050565b7f4e487b7100000000000000000000000000000000000000000000000000000000600052602260045260246000fd5b6000600282049050600182168062000a6a57607f821691505b6020821081141562000a815762000a8062000a22565b5b50919050565b600081905092915050565b60008190508160005260206000209050919050565b6000815462000ab68162000a51565b62000ac2818662000a87565b9450600182166000811462000ae0576001811462000af25762000b29565b60ff1983168652818601935062000b29565b62000afd8562000a92565b60005b8381101562000b215781548189015260018201915060208101905062000b00565b838801955050505b50505092915050565b600062000b40828462000aa7565b915081905092915050565b6000819050919050565b62000b608162000b4b565b82525050565b62000b71816200098c565b82525050565b62000b82816200057e565b82525050565b600060a08201905062000b9f600083018862000b55565b62000bae602083018762000b55565b62000bbd604083018662000b55565b62000bcc606083018562000b66565b62000bdb608083018462000b77565b9695505050505050565b600060208201905062000bfc600083018462000b66565b92915050565b60805160a05160c05160e05161010051613bd562000c78600039600081816112a00152818161138d01528181611853015261255b015260008181610eb40152818161153e0152818161164901528181611ca20152611f4101526000610e8d01526000610e5901526000610e330152613bd56000f3fe608060405234801561001057600080fd5b506004361061028a5760003560e01c806370a082311161015c578063be2bf6f8116100ce578063dd62ed3e11610087578063dd62ed3e146108d9578063ef8b30f714610909578063f2439f0c14610939578063f2f4eb2614610969578063fc0c546a14610987578063fd41c9c7146109a55761028a565b8063be2bf6f8146107cd578063c63d75b6146107fd578063c6e6f5921461082d578063ce96cb771461085d578063d505accf1461088d578063d905777e146108a95761028a565b8063a5a98d7811610120578063a5a98d78146106e5578063a9059cbb146106ef578063b3d7f6b91461071f578063b460af941461074f578063ba0876521461077f578063be0522e0146107af5761028a565b806370a08231146106075780637ecebe001461063757806394bf804d1461066757806395d89b4114610697578063a123c33e146106b55761028a565b806338d52e0f11610200578063553275be116101b9578063553275be1461050b578063586ffae81461053d57806366666aa91461056d57806366ccfb6e1461058b578063670844e1146105bb5780636e553f65146105d75761028a565b806338d52e0f14610421578063402d267d1461043f578063437a8ae61461046f57806347799da81461048d5780634cdad506146104ab57806352ec8529146104db5761028a565b80630fb5a6b4116102525780630fb5a6b41461035b57806318160ddd1461037957806323b872dd146103975780632c4e722e146103c7578063313ce567146103e55780633644e515146104035761028a565b806301e1d1141461028f57806306fdde03146102ad57806307a2d13a146102cb578063095ea7b3146102fb5780630a28a4771461032b575b600080fd5b6102976109d5565b6040516102a49190612c1d565b60405180910390f35b6102b56109df565b6040516102c29190612cd1565b60405180910390f35b6102e560048036038101906102e09190612d24565b610a6d565b6040516102f29190612c1d565b60405180910390f35b61031560048036038101906103109190612daf565b610aa8565b6040516103229190612e0a565b60405180910390f35b61034560048036038101906103409190612d24565b610b9a565b6040516103529190612c1d565b60405180910390f35b610363610bd5565b6040516103709190612c1d565b60405180910390f35b610381610bdb565b60405161038e9190612c1d565b60405180910390f35b6103b160048036038101906103ac9190612e25565b610be1565b6040516103be9190612e0a565b60405180910390f35b6103cf610e2b565b6040516103dc9190612c1d565b60405180910390f35b6103ed610e31565b6040516103fa9190612e94565b60405180910390f35b61040b610e55565b6040516104189190612ec8565b60405180910390f35b610429610eb2565b6040516104369190612f42565b60405180910390f35b61045960048036038101906104549190612f5d565b610ed6565b6040516104669190612c1d565b60405180910390f35b610477610f00565b6040516104849190612c1d565b60405180910390f35b610495610f06565b6040516104a29190612c1d565b60405180910390f35b6104c560048036038101906104c09190612d24565b610f0c565b6040516104d29190612c1d565b60405180910390f35b6104f560048036038101906104f09190612e25565b610f1e565b6040516105029190612e0a565b60405180910390f35b61052560048036038101906105209190612d24565b6110f0565b60405161053493929190612f99565b60405180910390f35b61055760048036038101906105529190612fd0565b61113a565b6040516105649190612e0a565b60405180910390f35b61057561125b565b6040516105829190612c1d565b60405180910390f35b6105a560048036038101906105a09190613010565b611261565b6040516105b29190612e0a565b60405180910390f35b6105d560048036038101906105d09190613010565b61149c565b005b6105f160048036038101906105ec9190612fd0565b6114e6565b6040516105fe9190612c1d565b60405180910390f35b610621600480360381019061061c9190612f5d565b611604565b60405161062e9190612c1d565b60405180910390f35b610651600480360381019061064c9190612f5d565b61161c565b60405161065e9190612c1d565b60405180910390f35b610681600480360381019061067c9190612fd0565b611634565b60405161068e9190612c1d565b60405180910390f35b61069f61170f565b6040516106ac9190612cd1565b60405180910390f35b6106cf60048036038101906106ca9190612d24565b61179d565b6040516106dc9190612c1d565b60405180910390f35b6106ed6117b5565b005b61070960048036038101906107049190612daf565b611943565b6040516107169190612e0a565b60405180910390f35b61073960048036038101906107349190612d24565b611a57565b6040516107469190612c1d565b60405180910390f35b61076960048036038101906107649190613050565b611a92565b6040516107769190612c1d565b60405180910390f35b61079960048036038101906107949190613050565b611ced565b6040516107a69190612c1d565b60405180910390f35b6107b7611f8c565b6040516107c49190612c1d565b60405180910390f35b6107e760048036038101906107e29190613010565b611f92565b6040516107f49190612e0a565b60405180910390f35b61081760048036038101906108129190612f5d565b6120b5565b6040516108249190612c1d565b60405180910390f35b61084760048036038101906108429190612d24565b6120df565b6040516108549190612c1d565b60405180910390f35b61087760048036038101906108729190612f5d565b61211a565b6040516108849190612c1d565b60405180910390f35b6108a760048036038101906108a291906130fb565b61216b565b005b6108c360048036038101906108be9190612f5d565b612464565b6040516108d09190612c1d565b60405180910390f35b6108f360048036038101906108ee919061319d565b6124ad565b6040516109009190612c1d565b60405180910390f35b610923600480360381019061091e9190612d24565b6124d2565b6040516109309190612c1d565b60405180910390f35b610953600480360381019061094e9190612d24565b6124e4565b6040516109609190612e0a565b60405180910390f35b610971612553565b60405161097e9190612c1d565b60405180910390f35b61098f612559565b60405161099c91906131fe565b60405180910390f35b6109bf60048036038101906109ba9190613010565b61257d565b6040516109cc9190612e0a565b60405180910390f35b6000600254905090565b600080546109ec90613248565b80601f0160208091040260200160405190810160405280929190818152602001828054610a1890613248565b8015610a655780601f10610a3a57610100808354040283529160200191610a65565b820191906000526020600020905b815481529060010190602001808311610a4857829003601f168201915b505050505081565b600080600254905060008114610a9e57610a99610a886109d5565b828561276f9092919063ffffffff16565b610aa0565b825b915050919050565b600081600460003373ffffffffffffffffffffffffffffffffffffffff1673ffffffffffffffffffffffffffffffffffffffff16815260200190815260200160002060008573ffffffffffffffffffffffffffffffffffffffff1673ffffffffffffffffffffffffffffffffffffffff168152602001908152602001600020819055508273ffffffffffffffffffffffffffffffffffffffff163373ffffffffffffffffffffffffffffffffffffffff167f8c5be1e5ebec7d5bd14f71427d1e84f3dd0314c0f7b2291e5b200ac8c7c3b92584604051610b889190612c1d565b60405180910390a36001905092915050565b600080600254905060008114610bcb57610bc681610bb66109d5565b856127979092919063ffffffff16565b610bcd565b825b915050919050565b600b5481565b60025481565b600080600460008673ffffffffffffffffffffffffffffffffffffffff1673ffffffffffffffffffffffffffffffffffffffff16815260200190815260200160002060003373ffffffffffffffffffffffffffffffffffffffff1673ffffffffffffffffffffffffffffffffffffffff1681526020019081526020016000205490507fffffffffffffffffffffffffffffffffffffffffffffffffffffffffffffffff8114610d17578281610c9691906132a9565b600460008773ffffffffffffffffffffffffffffffffffffffff1673ffffffffffffffffffffffffffffffffffffffff16815260200190815260200160002060003373ffffffffffffffffffffffffffffffffffffffff1673ffffffffffffffffffffffffffffffffffffffff168152602001908152602001600020819055505b82600360008773ffffffffffffffffffffffffffffffffffffffff1673ffffffffffffffffffffffffffffffffffffffff1681526020019081526020016000206000828254610d6691906132a9565b9250508190555082600360008673ffffffffffffffffffffffffffffffffffffffff1673ffffffffffffffffffffffffffffffffffffffff168152602001908152602001600020600082825401925050819055508373ffffffffffffffffffffffffffffffffffffffff168573ffffffffffffffffffffffffffffffffffffffff167fddf252ad1be2c89b69c2b068fc378daa952ba7f163c4a11628f55a4df523b3ef85604051610e179190612c1d565b60405180910390a360019150509392505050565b600c5481565b7f000000000000000000000000000000000000000000000000000000000000000081565b60007f00000000000000000000000000000000000000000000000000000000000000004614610e8b57610e866127c9565b610ead565b7f00000000000000000000000000000000000000000000000000000000000000005b905090565b7f000000000000000000000000000000000000000000000000000000000000000081565b60007fffffffffffffffffffffffffffffffffffffffffffffffffffffffffffffffff9050919050565b600e5481565b600a5481565b6000610f1782610a6d565b9050919050565b60008073ffffffffffffffffffffffffffffffffffffffff168473ffffffffffffffffffffffffffffffffffffffff161415610f8f576040517f08c379a0000000000000000000000000000000000000000000000000000000008152600401610f8690613329565b60405180910390fd5b600073ffffffffffffffffffffffffffffffffffffffff168373ffffffffffffffffffffffffffffffffffffffff161415610fff576040517f08c379a0000000000000000000000000000000000000000000000000000000008152600401610ff690613395565b60405180910390fd5b81600460008673ffffffffffffffffffffffffffffffffffffffff1673ffffffffffffffffffffffffffffffffffffffff16815260200190815260200160002060008573ffffffffffffffffffffffffffffffffffffffff1673ffffffffffffffffffffffffffffffffffffffff168152602001908152602001600020819055508273ffffffffffffffffffffffffffffffffffffffff168473ffffffffffffffffffffffffffffffffffffffff167f8c5be1e5ebec7d5bd14f71427d1e84f3dd0314c0f7b2291e5b200ac8c7c3b925846040516110dd9190612c1d565b60405180910390a3600190509392505050565b60066020528060005260406000206000915090508060000160009054906101000a900473ffffffffffffffffffffffffffffffffffffffff16908060010154908060020154905083565b6000611144612bcd565b82816000019073ffffffffffffffffffffffffffffffffffffffff16908173ffffffffffffffffffffffffffffffffffffffff16815250506064816020018181525050806006600086815260200190815260200160002060008201518160000160006101000a81548173ffffffffffffffffffffffffffffffffffffffff021916908373ffffffffffffffffffffffffffffffffffffffff160217905550602082015181600101556040820151816002015590505061120c83681b1ae4d6e2ef500000612855565b60019150838373ffffffffffffffffffffffffffffffffffffffff167f2a08ab3d12dd2274a5880242f4d8e507c798938a27b56ee6a8a6828e9d4cddb460405160405180910390a35092915050565b60085481565b6000806006600085815260200190815260200160002060000160009054906101000a900473ffffffffffffffffffffffffffffffffffffffff169050827f000000000000000000000000000000000000000000000000000000000000000073ffffffffffffffffffffffffffffffffffffffff166370a08231836040518263ffffffff1660e01b81526004016112f791906133b5565b60206040518083038186803b15801561130f57600080fd5b505afa158015611323573d6000803e3d6000fd5b505050506040513d601f19601f8201168201806040525081019061134791906133e5565b101591508161138b576040517f08c379a00000000000000000000000000000000000000000000000000000000081526004016113829061345e565b60405180910390fd5b7f000000000000000000000000000000000000000000000000000000000000000073ffffffffffffffffffffffffffffffffffffffff166352ec85298230866040518463ffffffff1660e01b81526004016113e89392919061347e565b602060405180830381600087803b15801561140257600080fd5b505af1158015611416573d6000803e3d6000fd5b505050506040513d601f19601f8201168201806040525081019061143a91906134e1565b5061144583826114e6565b508073ffffffffffffffffffffffffffffffffffffffff16847f6053794844fb083c3cadb63a00ddef7ff8b7c16367fc70229748fa904d7f655c8560405161148d9190612c1d565b60405180910390a35092915050565b81600760008381526020019081526020016000208190555081817f18fa8f47f5376f40dc1e84823dd86896057d6264054982e7ce4e6db9955bcdd860405160405180910390a35050565b6000806114f2846124d2565b9150811415611536576040517f08c379a000000000000000000000000000000000000000000000000000000000815260040161152d9061355a565b60405180910390fd5b6115833330857f000000000000000000000000000000000000000000000000000000000000000073ffffffffffffffffffffffffffffffffffffffff16612925909392919063ffffffff16565b61158d8282612855565b8173ffffffffffffffffffffffffffffffffffffffff163373ffffffffffffffffffffffffffffffffffffffff167fdcbc1c05240f31ff3ad067ef1ee35ce4997762752e3a095284754544f4c709d785846040516115ec92919061357a565b60405180910390a36115fe83826129c4565b92915050565b60036020528060005260406000206000915090505481565b60056020528060005260406000206000915090505481565b600061163f83611a57565b905061168e3330837f000000000000000000000000000000000000000000000000000000000000000073ffffffffffffffffffffffffffffffffffffffff16612925909392919063ffffffff16565b6116988284612855565b8173ffffffffffffffffffffffffffffffffffffffff163373ffffffffffffffffffffffffffffffffffffffff167fdcbc1c05240f31ff3ad067ef1ee35ce4997762752e3a095284754544f4c709d783866040516116f792919061357a565b60405180910390a361170981846129c4565b92915050565b6001805461171c90613248565b80601f016020809104026020016040519081016040528092919081815260200182805461174890613248565b80156117955780601f1061176a57610100808354040283529160200191611795565b820191906000526020600020905b81548152906001019060200180831161177857829003601f168201915b505050505081565b60076020528060005260406000206000915090505481565b60004290506000600b54600a54836117cd91906132a9565b6117d791906135d2565b9050600254600d8190555060005b8181101561183557600e54600c54600d546118009190613603565b61180a91906135d2565b600d600082825461181b919061365d565b92505081905550808061182d906136b3565b9150506117e5565b50600254600d600082825461184a91906132a9565b925050819055507f000000000000000000000000000000000000000000000000000000000000000073ffffffffffffffffffffffffffffffffffffffff166340c10f1930600d546040518363ffffffff1660e01b81526004016118ae9291906136fc565b600060405180830381600087803b1580156118c857600080fd5b505af11580156118dc573d6000803e3d6000fd5b50505050600d54600860008282546118f4919061365d565b9250508190555081600a819055507f4df34928a73fc3e550b40b9a054bd4f8f210ffbde0cfa807499993fa2d1715db600a54600d5460405161193792919061357a565b60405180910390a15050565b600081600360003373ffffffffffffffffffffffffffffffffffffffff1673ffffffffffffffffffffffffffffffffffffffff168152602001908152602001600020600082825461199491906132a9565b9250508190555081600360008573ffffffffffffffffffffffffffffffffffffffff1673ffffffffffffffffffffffffffffffffffffffff168152602001908152602001600020600082825401925050819055508273ffffffffffffffffffffffffffffffffffffffff163373ffffffffffffffffffffffffffffffffffffffff167fddf252ad1be2c89b69c2b068fc378daa952ba7f163c4a11628f55a4df523b3ef84604051611a459190612c1d565b60405180910390a36001905092915050565b600080600254905060008114611a8857611a83611a726109d5565b82856127979092919063ffffffff16565b611a8a565b825b915050919050565b6000611a9d84610b9a565b90508173ffffffffffffffffffffffffffffffffffffffff163373ffffffffffffffffffffffffffffffffffffffff1614611c09576000600460008473ffffffffffffffffffffffffffffffffffffffff1673ffffffffffffffffffffffffffffffffffffffff16815260200190815260200160002060003373ffffffffffffffffffffffffffffffffffffffff1673ffffffffffffffffffffffffffffffffffffffff1681526020019081526020016000205490507fffffffffffffffffffffffffffffffffffffffffffffffffffffffffffffffff8114611c07578181611b8691906132a9565b600460008573ffffffffffffffffffffffffffffffffffffffff1673ffffffffffffffffffffffffffffffffffffffff16815260200190815260200160002060003373ffffffffffffffffffffffffffffffffffffffff1673ffffffffffffffffffffffffffffffffffffffff168152602001908152602001600020819055505b505b611c1384826129c8565b611c1d82826129cc565b8173ffffffffffffffffffffffffffffffffffffffff168373ffffffffffffffffffffffffffffffffffffffff163373ffffffffffffffffffffffffffffffffffffffff167ffbde797d201c681b91056529119e0b02407c7bb96a4a2c75c01fc9667232c8db8785604051611c9392919061357a565b60405180910390a4611ce683857f000000000000000000000000000000000000000000000000000000000000000073ffffffffffffffffffffffffffffffffffffffff16612a9c9092919063ffffffff16565b9392505050565b60008173ffffffffffffffffffffffffffffffffffffffff163373ffffffffffffffffffffffffffffffffffffffff1614611e59576000600460008473ffffffffffffffffffffffffffffffffffffffff1673ffffffffffffffffffffffffffffffffffffffff16815260200190815260200160002060003373ffffffffffffffffffffffffffffffffffffffff1673ffffffffffffffffffffffffffffffffffffffff1681526020019081526020016000205490507fffffffffffffffffffffffffffffffffffffffffffffffffffffffffffffffff8114611e57578481611dd691906132a9565b600460008573ffffffffffffffffffffffffffffffffffffffff1673ffffffffffffffffffffffffffffffffffffffff16815260200190815260200160002060003373ffffffffffffffffffffffffffffffffffffffff1673ffffffffffffffffffffffffffffffffffffffff168152602001908152602001600020819055505b505b6000611e6485610f0c565b9150811415611ea8576040517f08c379a0000000000000000000000000000000000000000000000000000000008152600401611e9f90613771565b60405180910390fd5b611eb281856129c8565b611ebc82856129cc565b8173ffffffffffffffffffffffffffffffffffffffff168373ffffffffffffffffffffffffffffffffffffffff163373ffffffffffffffffffffffffffffffffffffffff167ffbde797d201c681b91056529119e0b02407c7bb96a4a2c75c01fc9667232c8db8488604051611f3292919061357a565b60405180910390a4611f8583827f000000000000000000000000000000000000000000000000000000000000000073ffffffffffffffffffffffffffffffffffffffff16612a9c9092919063ffffffff16565b9392505050565b600d5481565b6000806006600085815260200190815260200160002060000160009054906101000a900473ffffffffffffffffffffffffffffffffffffffff16905082600360008373ffffffffffffffffffffffffffffffffffffffff1673ffffffffffffffffffffffffffffffffffffffff168152602001908152602001600020541015915081612053576040517f08c379a000000000000000000000000000000000000000000000000000000000815260040161204a9061345e565b60405180910390fd5b61205e838283611a92565b508073ffffffffffffffffffffffffffffffffffffffff16847f2161c25a76b379e01c2eebcd077217a1bdcec52b712e9003af484a647148efda856040516120a69190612c1d565b60405180910390a35092915050565b60007fffffffffffffffffffffffffffffffffffffffffffffffffffffffffffffffff9050919050565b6000806002549050600081146121105761210b816120fb6109d5565b8561276f9092919063ffffffff16565b612112565b825b915050919050565b6000612164600360008473ffffffffffffffffffffffffffffffffffffffff1673ffffffffffffffffffffffffffffffffffffffff16815260200190815260200160002054610a6d565b9050919050565b428410156121ae576040517f08c379a00000000000000000000000000000000000000000000000000000000081526004016121a5906137dd565b60405180910390fd5b600060016121ba610e55565b7f6e71edae12b1b97f4d1f60370fef10105fa2faae0126114a169c64845d6126c98a8a8a600560008f73ffffffffffffffffffffffffffffffffffffffff1673ffffffffffffffffffffffffffffffffffffffff1681526020019081526020016000206000815480929190600101919050558b604051602001612242969594939291906137fd565b604051602081830303815290604052805190602001206040516020016122699291906138d6565b604051602081830303815290604052805190602001208585856040516000815260200160405260405161229f949392919061390d565b6020604051602081039080840390855afa1580156122c1573d6000803e3d6000fd5b505050602060405103519050600073ffffffffffffffffffffffffffffffffffffffff168173ffffffffffffffffffffffffffffffffffffffff161415801561233557508773ffffffffffffffffffffffffffffffffffffffff168173ffffffffffffffffffffffffffffffffffffffff16145b612374576040517f08c379a000000000000000000000000000000000000000000000000000000000815260040161236b9061399e565b60405180910390fd5b85600460008373ffffffffffffffffffffffffffffffffffffffff1673ffffffffffffffffffffffffffffffffffffffff16815260200190815260200160002060008973ffffffffffffffffffffffffffffffffffffffff1673ffffffffffffffffffffffffffffffffffffffff16815260200190815260200160002081905550508573ffffffffffffffffffffffffffffffffffffffff168773ffffffffffffffffffffffffffffffffffffffff167f8c5be1e5ebec7d5bd14f71427d1e84f3dd0314c0f7b2291e5b200ac8c7c3b925876040516124539190612c1d565b60405180910390a350505050505050565b6000600360008373ffffffffffffffffffffffffffffffffffffffff1673ffffffffffffffffffffffffffffffffffffffff168152602001908152602001600020549050919050565b6004602052816000526040600020602052806000526040600020600091509150505481565b60006124dd826120df565b9050919050565b60008073ffffffffffffffffffffffffffffffffffffffff166006600084815260200190815260200160002060000160009054906101000a900473ffffffffffffffffffffffffffffffffffffffff1673ffffffffffffffffffffffffffffffffffffffff1614159050919050565b60095481565b7f000000000000000000000000000000000000000000000000000000000000000081565b60006125876117b5565b61259083612b34565b6000600660008581526020019081526020016000209050600081600101546064600360008560000160009054906101000a900473ffffffffffffffffffffffffffffffffffffffff1673ffffffffffffffffffffffffffffffffffffffff1673ffffffffffffffffffffffffffffffffffffffff1681526020019081526020016000205460085461262191906135d2565b61262b91906135d2565b6126359190613603565b9050670de0b6b3a76400008161264b9190613603565b90506126938260000160009054906101000a900473ffffffffffffffffffffffffffffffffffffffff1660646014846126849190613603565b61268e91906135d2565b612855565b6126eb6006600086815260200190815260200160002060000160009054906101000a900473ffffffffffffffffffffffffffffffffffffffff1660646050846126dc9190613603565b6126e691906135d2565b612855565b80600860008282546126fd91906132a9565b92505081905550428260020181905550600a82600101600082825461272291906132a9565b92505081905550600192504284867fac3b8ab89a07bbb8dd4670bcfe29ef7d4eccea237222f49f997884d89947d53d8460405161275f9190612c1d565b60405180910390a4505092915050565b6000828402905082848204148415178215151661278b57600080fd5b81810490509392505050565b600082840290508284820414841517821515166127b357600080fd5b6001826001830304018115150290509392505050565b60007f8b73c3c69bb8fe3d512ecc4cf759cc79239f7b179b0ffacaa9a75d522b39400f60006040516127fb9190613a5d565b60405180910390207fc89efdaa54c0f20c7adf612882df0950f5a951637e0307cdcb4c672f298b8bc6463060405160200161283a959493929190613a74565b60405160208183030381529060405280519060200120905090565b8060026000828254612867919061365d565b9250508190555080600360008473ffffffffffffffffffffffffffffffffffffffff1673ffffffffffffffffffffffffffffffffffffffff168152602001908152602001600020600082825401925050819055508173ffffffffffffffffffffffffffffffffffffffff16600073ffffffffffffffffffffffffffffffffffffffff167fddf252ad1be2c89b69c2b068fc378daa952ba7f163c4a11628f55a4df523b3ef836040516129199190612c1d565b60405180910390a35050565b60006040517f23b872dd0000000000000000000000000000000000000000000000000000000081528460048201528360248201528260448201526020600060648360008a5af13d15601f3d11600160005114161716915050806129bd576040517f08c379a00000000000000000000000000000000000000000000000000000000081526004016129b490613b13565b60405180910390fd5b5050505050565b5050565b5050565b80600360008473ffffffffffffffffffffffffffffffffffffffff1673ffffffffffffffffffffffffffffffffffffffff1681526020019081526020016000206000828254612a1b91906132a9565b9250508190555080600260008282540392505081905550600073ffffffffffffffffffffffffffffffffffffffff168273ffffffffffffffffffffffffffffffffffffffff167fddf252ad1be2c89b69c2b068fc378daa952ba7f163c4a11628f55a4df523b3ef83604051612a909190612c1d565b60405180910390a35050565b60006040517fa9059cbb000000000000000000000000000000000000000000000000000000008152836004820152826024820152602060006044836000895af13d15601f3d1160016000511416171691505080612b2e576040517f08c379a0000000000000000000000000000000000000000000000000000000008152600401612b2590613b7f565b60405180910390fd5b50505050565b6024600660008381526020019081526020016000206002015442612b5891906132a9565b612b6291906135d2565b600660008381526020019081526020016000206001016000828254612b87919061365d565b92505081905550606460066000838152602001908152602001600020600101541115612bca57606460066000838152602001908152602001600020600101819055505b50565b6040518060600160405280600073ffffffffffffffffffffffffffffffffffffffff16815260200160008152602001600081525090565b6000819050919050565b612c1781612c04565b82525050565b6000602082019050612c326000830184612c0e565b92915050565b600081519050919050565b600082825260208201905092915050565b60005b83811015612c72578082015181840152602081019050612c57565b83811115612c81576000848401525b50505050565b6000601f19601f8301169050919050565b6000612ca382612c38565b612cad8185612c43565b9350612cbd818560208601612c54565b612cc681612c87565b840191505092915050565b60006020820190508181036000830152612ceb8184612c98565b905092915050565b600080fd5b612d0181612c04565b8114612d0c57600080fd5b50565b600081359050612d1e81612cf8565b92915050565b600060208284031215612d3a57612d39612cf3565b5b6000612d4884828501612d0f565b91505092915050565b600073ffffffffffffffffffffffffffffffffffffffff82169050919050565b6000612d7c82612d51565b9050919050565b612d8c81612d71565b8114612d9757600080fd5b50565b600081359050612da981612d83565b92915050565b60008060408385031215612dc657612dc5612cf3565b5b6000612dd485828601612d9a565b9250506020612de585828601612d0f565b9150509250929050565b60008115159050919050565b612e0481612def565b82525050565b6000602082019050612e1f6000830184612dfb565b92915050565b600080600060608486031215612e3e57612e3d612cf3565b5b6000612e4c86828701612d9a565b9350506020612e5d86828701612d9a565b9250506040612e6e86828701612d0f565b9150509250925092565b600060ff82169050919050565b612e8e81612e78565b82525050565b6000602082019050612ea96000830184612e85565b92915050565b6000819050919050565b612ec281612eaf565b82525050565b6000602082019050612edd6000830184612eb9565b92915050565b6000819050919050565b6000612f08612f03612efe84612d51565b612ee3565b612d51565b9050919050565b6000612f1a82612eed565b9050919050565b6000612f2c82612f0f565b9050919050565b612f3c81612f21565b82525050565b6000602082019050612f576000830184612f33565b92915050565b600060208284031215612f7357612f72612cf3565b5b6000612f8184828501612d9a565b91505092915050565b612f9381612d71565b82525050565b6000606082019050612fae6000830186612f8a565b612fbb6020830185612c0e565b612fc86040830184612c0e565b949350505050565b60008060408385031215612fe757612fe6612cf3565b5b6000612ff585828601612d0f565b925050602061300685828601612d9a565b9150509250929050565b6000806040838503121561302757613026612cf3565b5b600061303585828601612d0f565b925050602061304685828601612d0f565b9150509250929050565b60008060006060848603121561306957613068612cf3565b5b600061307786828701612d0f565b935050602061308886828701612d9a565b925050604061309986828701612d9a565b9150509250925092565b6130ac81612e78565b81146130b757600080fd5b50565b6000813590506130c9816130a3565b92915050565b6130d881612eaf565b81146130e357600080fd5b50565b6000813590506130f5816130cf565b92915050565b600080600080600080600060e0888a03121561311a57613119612cf3565b5b60006131288a828b01612d9a565b97505060206131398a828b01612d9a565b965050604061314a8a828b01612d0f565b955050606061315b8a828b01612d0f565b945050608061316c8a828b016130ba565b93505060a061317d8a828b016130e6565b92505060c061318e8a828b016130e6565b91505092959891949750929550565b600080604083850312156131b4576131b3612cf3565b5b60006131c285828601612d9a565b92505060206131d385828601612d9a565b9150509250929050565b60006131e882612f0f565b9050919050565b6131f8816131dd565b82525050565b600060208201905061321360008301846131ef565b92915050565b7f4e487b7100000000000000000000000000000000000000000000000000000000600052602260045260246000fd5b6000600282049050600182168061326057607f821691505b6020821081141561327457613273613219565b5b50919050565b7f4e487b7100000000000000000000000000000000000000000000000000000000600052601160045260246000fd5b60006132b482612c04565b91506132bf83612c04565b9250828210156132d2576132d161327a565b5b828203905092915050565b7f5a45524f5f414444524553535f4f574e45520000000000000000000000000000600082015250565b6000613313601283612c43565b915061331e826132dd565b602082019050919050565b6000602082019050818103600083015261334281613306565b9050919050565b7f5a45524f5f414444524553535f5350454e444552000000000000000000000000600082015250565b600061337f601483612c43565b915061338a82613349565b602082019050919050565b600060208201905081810360008301526133ae81613372565b9050919050565b60006020820190506133ca6000830184612f8a565b92915050565b6000815190506133df81612cf8565b92915050565b6000602082840312156133fb576133fa612cf3565b5b6000613409848285016133d0565b91505092915050565b7f494e53554646494349454e545f42414c414e4345000000000000000000000000600082015250565b6000613448601483612c43565b915061345382613412565b602082019050919050565b600060208201905081810360008301526134778161343b565b9050919050565b60006060820190506134936000830186612f8a565b6134a06020830185612f8a565b6134ad6040830184612c0e565b949350505050565b6134be81612def565b81146134c957600080fd5b50565b6000815190506134db816134b5565b92915050565b6000602082840312156134f7576134f6612cf3565b5b6000613505848285016134cc565b91505092915050565b7f5a45524f5f534841524553000000000000000000000000000000000000000000600082015250565b6000613544600b83612c43565b915061354f8261350e565b602082019050919050565b6000602082019050818103600083015261357381613537565b9050919050565b600060408201905061358f6000830185612c0e565b61359c6020830184612c0e565b9392505050565b7f4e487b7100000000000000000000000000000000000000000000000000000000600052601260045260246000fd5b60006135dd82612c04565b91506135e883612c04565b9250826135f8576135f76135a3565b5b828204905092915050565b600061360e82612c04565b915061361983612c04565b9250817fffffffffffffffffffffffffffffffffffffffffffffffffffffffffffffffff04831182151516156136525761365161327a565b5b828202905092915050565b600061366882612c04565b915061367383612c04565b9250827fffffffffffffffffffffffffffffffffffffffffffffffffffffffffffffffff038211156136a8576136a761327a565b5b828201905092915050565b60006136be82612c04565b91507fffffffffffffffffffffffffffffffffffffffffffffffffffffffffffffffff8214156136f1576136f061327a565b5b600182019050919050565b60006040820190506137116000830185612f8a565b61371e6020830184612c0e565b9392505050565b7f5a45524f5f415353455453000000000000000000000000000000000000000000600082015250565b600061375b600b83612c43565b915061376682613725565b602082019050919050565b6000602082019050818103600083015261378a8161374e565b9050919050565b7f5045524d49545f444541444c494e455f45585049524544000000000000000000600082015250565b60006137c7601783612c43565b91506137d282613791565b602082019050919050565b600060208201905081810360008301526137f6816137ba565b9050919050565b600060c0820190506138126000830189612eb9565b61381f6020830188612f8a565b61382c6040830187612f8a565b6138396060830186612c0e565b6138466080830185612c0e565b61385360a0830184612c0e565b979650505050505050565b600081905092915050565b7f1901000000000000000000000000000000000000000000000000000000000000600082015250565b600061389f60028361385e565b91506138aa82613869565b600282019050919050565b6000819050919050565b6138d06138cb82612eaf565b6138b5565b82525050565b60006138e182613892565b91506138ed82856138bf565b6020820191506138fd82846138bf565b6020820191508190509392505050565b60006080820190506139226000830187612eb9565b61392f6020830186612e85565b61393c6040830185612eb9565b6139496060830184612eb9565b95945050505050565b7f494e56414c49445f5349474e4552000000000000000000000000000000000000600082015250565b6000613988600e83612c43565b915061399382613952565b602082019050919050565b600060208201905081810360008301526139b78161397b565b9050919050565b600081905092915050565b60008190508160005260206000209050919050565b600081546139eb81613248565b6139f581866139be565b94506001821660008114613a105760018114613a2157613a54565b60ff19831686528186019350613a54565b613a2a856139c9565b60005b83811015613a4c57815481890152600182019150602081019050613a2d565b838801955050505b50505092915050565b6000613a6982846139de565b915081905092915050565b600060a082019050613a896000830188612eb9565b613a966020830187612eb9565b613aa36040830186612eb9565b613ab06060830185612c0e565b613abd6080830184612f8a565b9695505050505050565b7f5452414e534645525f46524f4d5f4641494c4544000000000000000000000000600082015250565b6000613afd601483612c43565b9150613b0882613ac7565b602082019050919050565b60006020820190508181036000830152613b2c81613af0565b9050919050565b7f5452414e534645525f4641494c45440000000000000000000000000000000000600082015250565b6000613b69600f83612c43565b9150613b7482613b33565b602082019050919050565b60006020820190508181036000830152613b9881613b5c565b905091905056fea264697066735822122041c0ee11a871eb12b12e878fd0df82a19eb9301f149368332000453e1f76602264736f6c63430008090033",
    "linkReferences": {},
    "deployedLinkReferences": {}
}