{
    "_format": "hh-sol-artifact-1",
    "contractName": "Engagement",
    "sourceName": "contracts/Engagement.sol",
    "abi": [
        {
            "inputs": [
                {
                    "internalType": "contract Token",
                    "name": "_token",
                    "type": "address"
                }
            ],
            "stateMutability": "nonpayable",
            "type": "constructor"
        },
        {
            "anonymous": false,
            "inputs": [
                {
                    "indexed": true,
                    "internalType": "address",
                    "name": "owner",
                    "type": "address"
                },
                {
                    "indexed": true,
                    "internalType": "address",
                    "name": "spender",
                    "type": "address"
                },
                {
                    "indexed": false,
                    "internalType": "uint256",
                    "name": "amount",
                    "type": "uint256"
                }
            ],
            "name": "Approval",
            "type": "event"
        },
        {
            "anonymous": false,
            "inputs": [
                {
                    "indexed": true,
                    "internalType": "address",
                    "name": "_address",
                    "type": "address"
                },
                {
                    "indexed": true,
                    "internalType": "uint256",
                    "name": "discord_id",
                    "type": "uint256"
                }
            ],
            "name": "Authenticate",
            "type": "event"
        },
        {
            "anonymous": false,
            "inputs": [
                {
                    "indexed": true,
                    "internalType": "address",
                    "name": "caller",
                    "type": "address"
                },
                {
                    "indexed": true,
                    "internalType": "address",
                    "name": "owner",
                    "type": "address"
                },
                {
                    "indexed": false,
                    "internalType": "uint256",
                    "name": "assets",
                    "type": "uint256"
                },
                {
                    "indexed": false,
                    "internalType": "uint256",
                    "name": "shares",
                    "type": "uint256"
                }
            ],
            "name": "Deposit",
            "type": "event"
        },
        {
            "anonymous": false,
            "inputs": [
                {
                    "indexed": true,
                    "internalType": "uint256",
                    "name": "from_discord_id",
                    "type": "uint256"
                },
                {
                    "indexed": true,
                    "internalType": "uint256",
                    "name": "to_discord_id",
                    "type": "uint256"
                },
                {
                    "indexed": true,
                    "internalType": "uint256",
                    "name": "time",
                    "type": "uint256"
                },
                {
                    "indexed": false,
                    "internalType": "uint256",
                    "name": "value",
                    "type": "uint256"
                }
            ],
            "name": "Engaged",
            "type": "event"
        },
        {
            "anonymous": false,
            "inputs": [
                {
                    "indexed": false,
                    "internalType": "uint256",
                    "name": "time",
                    "type": "uint256"
                },
                {
                    "indexed": false,
                    "internalType": "uint256",
                    "name": "amount",
                    "type": "uint256"
                }
            ],
            "name": "Inflation",
            "type": "event"
        },
        {
            "anonymous": false,
            "inputs": [
                {
                    "indexed": true,
                    "internalType": "uint256",
                    "name": "server_id",
                    "type": "uint256"
                },
                {
                    "indexed": true,
                    "internalType": "uint256",
                    "name": "owner_id",
                    "type": "uint256"
                }
            ],
            "name": "OwnerAssigned",
            "type": "event"
        },
        {
            "anonymous": false,
            "inputs": [
                {
                    "indexed": true,
                    "internalType": "uint256",
                    "name": "discord_id",
                    "type": "uint256"
                },
                {
                    "indexed": true,
                    "internalType": "address",
                    "name": "_address",
                    "type": "address"
                },
                {
                    "indexed": false,
                    "internalType": "uint256",
                    "name": "amount",
                    "type": "uint256"
                }
            ],
            "name": "PowerDown",
            "type": "event"
        },
        {
            "anonymous": false,
            "inputs": [
                {
                    "indexed": true,
                    "internalType": "uint256",
                    "name": "discord_id",
                    "type": "uint256"
                },
                {
                    "indexed": true,
                    "internalType": "address",
                    "name": "_address",
                    "type": "address"
                },
                {
                    "indexed": false,
                    "internalType": "uint256",
                    "name": "amount",
                    "type": "uint256"
                }
            ],
            "name": "PowerUp",
            "type": "event"
        },
        {
            "anonymous": false,
            "inputs": [
                {
                    "indexed": true,
                    "internalType": "address",
                    "name": "from",
                    "type": "address"
                },
                {
                    "indexed": true,
                    "internalType": "address",
                    "name": "to",
                    "type": "address"
                },
                {
                    "indexed": false,
                    "internalType": "uint256",
                    "name": "amount",
                    "type": "uint256"
                }
            ],
            "name": "Transfer",
            "type": "event"
        },
        {
            "anonymous": false,
            "inputs": [
                {
                    "indexed": true,
                    "internalType": "address",
                    "name": "caller",
                    "type": "address"
                },
                {
                    "indexed": true,
                    "internalType": "address",
                    "name": "receiver",
                    "type": "address"
                },
                {
                    "indexed": true,
                    "internalType": "address",
                    "name": "owner",
                    "type": "address"
                },
                {
                    "indexed": false,
                    "internalType": "uint256",
                    "name": "assets",
                    "type": "uint256"
                },
                {
                    "indexed": false,
                    "internalType": "uint256",
                    "name": "shares",
                    "type": "uint256"
                }
            ],
            "name": "Withdraw",
            "type": "event"
        },
        {
            "inputs": [],
            "name": "DOMAIN_SEPARATOR",
            "outputs": [
                {
                    "internalType": "bytes32",
                    "name": "",
                    "type": "bytes32"
                }
            ],
            "stateMutability": "view",
            "type": "function"
        },
        {
            "inputs": [
                {
                    "internalType": "address",
                    "name": "",
                    "type": "address"
                },
                {
                    "internalType": "address",
                    "name": "",
                    "type": "address"
                }
            ],
            "name": "allowance",
            "outputs": [
                {
                    "internalType": "uint256",
                    "name": "",
                    "type": "uint256"
                }
            ],
            "stateMutability": "view",
            "type": "function"
        },
        {
            "inputs": [
                {
                    "internalType": "address",
                    "name": "spender",
                    "type": "address"
                },
                {
                    "internalType": "uint256",
                    "name": "amount",
                    "type": "uint256"
                }
            ],
            "name": "approve",
            "outputs": [
                {
                    "internalType": "bool",
                    "name": "",
                    "type": "bool"
                }
            ],
            "stateMutability": "nonpayable",
            "type": "function"
        },
        {
            "inputs": [
                {
                    "internalType": "address",
                    "name": "owner",
                    "type": "address"
                },
                {
                    "internalType": "address",
                    "name": "spender",
                    "type": "address"
                },
                {
                    "internalType": "uint256",
                    "name": "amount",
                    "type": "uint256"
                }
            ],
            "name": "approveFrom",
            "outputs": [
                {
                    "internalType": "bool",
                    "name": "",
                    "type": "bool"
                }
            ],
            "stateMutability": "nonpayable",
            "type": "function"
        },
        {
            "inputs": [],
            "name": "asset",
            "outputs": [
                {
                    "internalType": "contract ERC20",
                    "name": "",
                    "type": "address"
                }
            ],
            "stateMutability": "view",
            "type": "function"
        },
        {
            "inputs": [
                {
                    "internalType": "uint256",
                    "name": "discord_id",
                    "type": "uint256"
                },
                {
                    "internalType": "address",
                    "name": "_address",
                    "type": "address"
                }
            ],
            "name": "authenticate",
            "outputs": [],
            "stateMutability": "nonpayable",
            "type": "function"
        },
        {
            "inputs": [
                {
                    "internalType": "address",
                    "name": "",
                    "type": "address"
                }
            ],
            "name": "balanceOf",
            "outputs": [
                {
                    "internalType": "uint256",
                    "name": "",
                    "type": "uint256"
                }
            ],
            "stateMutability": "view",
            "type": "function"
        },
        {
            "inputs": [
                {
                    "internalType": "uint256",
                    "name": "shares",
                    "type": "uint256"
                }
            ],
            "name": "convertToAssets",
            "outputs": [
                {
                    "internalType": "uint256",
                    "name": "",
                    "type": "uint256"
                }
            ],
            "stateMutability": "view",
            "type": "function"
        },
        {
            "inputs": [
                {
                    "internalType": "uint256",
                    "name": "assets",
                    "type": "uint256"
                }
            ],
            "name": "convertToShares",
            "outputs": [
                {
                    "internalType": "uint256",
                    "name": "",
                    "type": "uint256"
                }
            ],
            "stateMutability": "view",
            "type": "function"
        },
        {
            "inputs": [],
            "name": "core",
            "outputs": [
                {
                    "internalType": "uint256",
                    "name": "",
                    "type": "uint256"
                }
            ],
            "stateMutability": "view",
            "type": "function"
        },
        {
            "inputs": [],
            "name": "decimals",
            "outputs": [
                {
                    "internalType": "uint8",
                    "name": "",
                    "type": "uint8"
                }
            ],
            "stateMutability": "view",
            "type": "function"
        },
        {
            "inputs": [
                {
                    "internalType": "uint256",
                    "name": "assets",
                    "type": "uint256"
                },
                {
                    "internalType": "address",
                    "name": "receiver",
                    "type": "address"
                }
            ],
            "name": "deposit",
            "outputs": [
                {
                    "internalType": "uint256",
                    "name": "shares",
                    "type": "uint256"
                }
            ],
            "stateMutability": "nonpayable",
            "type": "function"
        },
        {
            "inputs": [],
            "name": "duration",
            "outputs": [
                {
                    "internalType": "uint256",
                    "name": "",
                    "type": "uint256"
                }
            ],
            "stateMutability": "view",
            "type": "function"
        },
        {
            "inputs": [
                {
                    "internalType": "uint256",
                    "name": "engager_id",
                    "type": "uint256"
                },
                {
                    "internalType": "uint256",
                    "name": "engagee_id",
                    "type": "uint256"
                }
            ],
            "name": "engage",
            "outputs": [],
            "stateMutability": "nonpayable",
            "type": "function"
        },
        {
            "inputs": [],
            "name": "getToken",
            "outputs": [
                {
                    "internalType": "string",
                    "name": "name",
                    "type": "string"
                }
            ],
            "stateMutability": "view",
            "type": "function"
        },
        {
            "inputs": [],
            "name": "inflate",
            "outputs": [],
            "stateMutability": "nonpayable",
            "type": "function"
        },
        {
            "inputs": [
                {
                    "internalType": "uint256",
                    "name": "discord_id",
                    "type": "uint256"
                }
            ],
            "name": "isAuthenticated",
            "outputs": [
                {
                    "internalType": "bool",
                    "name": "authenticated",
                    "type": "bool"
                }
            ],
            "stateMutability": "view",
            "type": "function"
        },
        {
            "inputs": [],
            "name": "last",
            "outputs": [
                {
                    "internalType": "uint256",
                    "name": "",
                    "type": "uint256"
                }
            ],
            "stateMutability": "view",
            "type": "function"
        },
        {
            "inputs": [
                {
                    "internalType": "address",
                    "name": "",
                    "type": "address"
                }
            ],
            "name": "maxDeposit",
            "outputs": [
                {
                    "internalType": "uint256",
                    "name": "",
                    "type": "uint256"
                }
            ],
            "stateMutability": "view",
            "type": "function"
        },
        {
            "inputs": [
                {
                    "internalType": "address",
                    "name": "",
                    "type": "address"
                }
            ],
            "name": "maxMint",
            "outputs": [
                {
                    "internalType": "uint256",
                    "name": "",
                    "type": "uint256"
                }
            ],
            "stateMutability": "view",
            "type": "function"
        },
        {
            "inputs": [
                {
                    "internalType": "address",
                    "name": "owner",
                    "type": "address"
                }
            ],
            "name": "maxRedeem",
            "outputs": [
                {
                    "internalType": "uint256",
                    "name": "",
                    "type": "uint256"
                }
            ],
            "stateMutability": "view",
            "type": "function"
        },
        {
            "inputs": [
                {
                    "internalType": "address",
                    "name": "owner",
                    "type": "address"
                }
            ],
            "name": "maxWithdraw",
            "outputs": [
                {
                    "internalType": "uint256",
                    "name": "",
                    "type": "uint256"
                }
            ],
            "stateMutability": "view",
            "type": "function"
        },
        {
            "inputs": [
                {
                    "internalType": "uint256",
                    "name": "shares",
                    "type": "uint256"
                },
                {
                    "internalType": "address",
                    "name": "receiver",
                    "type": "address"
                }
            ],
            "name": "mint",
            "outputs": [
                {
                    "internalType": "uint256",
                    "name": "assets",
                    "type": "uint256"
                }
            ],
            "stateMutability": "nonpayable",
            "type": "function"
        },
        {
            "inputs": [],
            "name": "multiple",
            "outputs": [
                {
                    "internalType": "uint256",
                    "name": "",
                    "type": "uint256"
                }
            ],
            "stateMutability": "view",
            "type": "function"
        },
        {
            "inputs": [],
            "name": "name",
            "outputs": [
                {
                    "internalType": "string",
                    "name": "",
                    "type": "string"
                }
            ],
            "stateMutability": "view",
            "type": "function"
        },
        {
            "inputs": [
                {
                    "internalType": "address",
                    "name": "",
                    "type": "address"
                }
            ],
            "name": "nonces",
            "outputs": [
                {
                    "internalType": "uint256",
                    "name": "",
                    "type": "uint256"
                }
            ],
            "stateMutability": "view",
            "type": "function"
        },
        {
            "inputs": [
                {
                    "internalType": "uint256",
                    "name": "",
                    "type": "uint256"
                }
            ],
            "name": "owner",
            "outputs": [
                {
                    "internalType": "uint256",
                    "name": "",
                    "type": "uint256"
                }
            ],
            "stateMutability": "view",
            "type": "function"
        },
        {
            "inputs": [
                {
                    "internalType": "address",
                    "name": "owner",
                    "type": "address"
                },
                {
                    "internalType": "address",
                    "name": "spender",
                    "type": "address"
                },
                {
                    "internalType": "uint256",
                    "name": "value",
                    "type": "uint256"
                },
                {
                    "internalType": "uint256",
                    "name": "deadline",
                    "type": "uint256"
                },
                {
                    "internalType": "uint8",
                    "name": "v",
                    "type": "uint8"
                },
                {
                    "internalType": "bytes32",
                    "name": "r",
                    "type": "bytes32"
                },
                {
                    "internalType": "bytes32",
                    "name": "s",
                    "type": "bytes32"
                }
            ],
            "name": "permit",
            "outputs": [],
            "stateMutability": "nonpayable",
            "type": "function"
        },
        {
            "inputs": [
                {
                    "internalType": "uint256",
                    "name": "discord_id",
                    "type": "uint256"
                },
                {
                    "internalType": "uint256",
                    "name": "amount",
                    "type": "uint256"
                }
            ],
            "name": "powerDown",
            "outputs": [
                {
                    "internalType": "bool",
                    "name": "depowered",
                    "type": "bool"
                }
            ],
            "stateMutability": "nonpayable",
            "type": "function"
        },
        {
            "inputs": [
                {
                    "internalType": "uint256",
                    "name": "discord_id",
                    "type": "uint256"
                },
                {
                    "internalType": "uint256",
                    "name": "amount",
                    "type": "uint256"
                }
            ],
            "name": "powerUp",
            "outputs": [
                {
                    "internalType": "bool",
                    "name": "powered",
                    "type": "bool"
                }
            ],
            "stateMutability": "nonpayable",
            "type": "function"
        },
        {
            "inputs": [
                {
                    "internalType": "uint256",
                    "name": "assets",
                    "type": "uint256"
                }
            ],
            "name": "previewDeposit",
            "outputs": [
                {
                    "internalType": "uint256",
                    "name": "",
                    "type": "uint256"
                }
            ],
            "stateMutability": "view",
            "type": "function"
        },
        {
            "inputs": [
                {
                    "internalType": "uint256",
                    "name": "shares",
                    "type": "uint256"
                }
            ],
            "name": "previewMint",
            "outputs": [
                {
                    "internalType": "uint256",
                    "name": "",
                    "type": "uint256"
                }
            ],
            "stateMutability": "view",
            "type": "function"
        },
        {
            "inputs": [
                {
                    "internalType": "uint256",
                    "name": "shares",
                    "type": "uint256"
                }
            ],
            "name": "previewRedeem",
            "outputs": [
                {
                    "internalType": "uint256",
                    "name": "",
                    "type": "uint256"
                }
            ],
            "stateMutability": "view",
            "type": "function"
        },
        {
            "inputs": [
                {
                    "internalType": "uint256",
                    "name": "assets",
                    "type": "uint256"
                }
            ],
            "name": "previewWithdraw",
            "outputs": [
                {
                    "internalType": "uint256",
                    "name": "",
                    "type": "uint256"
                }
            ],
            "stateMutability": "view",
            "type": "function"
        },
        {
            "inputs": [],
            "name": "rate",
            "outputs": [
                {
                    "internalType": "uint256",
                    "name": "",
                    "type": "uint256"
                }
            ],
            "stateMutability": "view",
            "type": "function"
        },
        {
            "inputs": [
                {
                    "internalType": "uint256",
                    "name": "shares",
                    "type": "uint256"
                },
                {
                    "internalType": "address",
                    "name": "receiver",
                    "type": "address"
                },
                {
                    "internalType": "address",
                    "name": "owner",
                    "type": "address"
                }
            ],
            "name": "redeem",
            "outputs": [
                {
                    "internalType": "uint256",
                    "name": "assets",
                    "type": "uint256"
                }
            ],
            "stateMutability": "nonpayable",
            "type": "function"
        },
        {
            "inputs": [],
            "name": "rewardPool",
            "outputs": [
                {
                    "internalType": "uint256",
                    "name": "",
                    "type": "uint256"
                }
            ],
            "stateMutability": "view",
            "type": "function"
        },
        {
            "inputs": [
                {
                    "internalType": "uint256",
                    "name": "discord_id",
                    "type": "uint256"
                },
                {
                    "internalType": "uint256",
                    "name": "server_id",
                    "type": "uint256"
                }
            ],
            "name": "setServerOwner",
            "outputs": [],
            "stateMutability": "nonpayable",
            "type": "function"
        },
        {
            "inputs": [],
            "name": "symbol",
            "outputs": [
                {
                    "internalType": "string",
                    "name": "",
                    "type": "string"
                }
            ],
            "stateMutability": "view",
            "type": "function"
        },
        {
            "inputs": [],
            "name": "token",
            "outputs": [
                {
                    "internalType": "contract Token",
                    "name": "",
                    "type": "address"
                }
            ],
            "stateMutability": "view",
            "type": "function"
        },
        {
            "inputs": [],
            "name": "totalAssets",
            "outputs": [
                {
                    "internalType": "uint256",
                    "name": "total",
                    "type": "uint256"
                }
            ],
            "stateMutability": "view",
            "type": "function"
        },
        {
            "inputs": [],
            "name": "totalSupply",
            "outputs": [
                {
                    "internalType": "uint256",
                    "name": "",
                    "type": "uint256"
                }
            ],
            "stateMutability": "view",
            "type": "function"
        },
        {
            "inputs": [
                {
                    "internalType": "address",
                    "name": "to",
                    "type": "address"
                },
                {
                    "internalType": "uint256",
                    "name": "amount",
                    "type": "uint256"
                }
            ],
            "name": "transfer",
            "outputs": [
                {
                    "internalType": "bool",
                    "name": "",
                    "type": "bool"
                }
            ],
            "stateMutability": "nonpayable",
            "type": "function"
        },
        {
            "inputs": [
                {
                    "internalType": "address",
                    "name": "from",
                    "type": "address"
                },
                {
                    "internalType": "address",
                    "name": "to",
                    "type": "address"
                },
                {
                    "internalType": "uint256",
                    "name": "amount",
                    "type": "uint256"
                }
            ],
            "name": "transferFrom",
            "outputs": [
                {
                    "internalType": "bool",
                    "name": "",
                    "type": "bool"
                }
            ],
            "stateMutability": "nonpayable",
            "type": "function"
        },
        {
            "inputs": [
                {
                    "internalType": "uint256",
                    "name": "",
                    "type": "uint256"
                }
            ],
            "name": "user",
            "outputs": [
                {
                    "internalType": "address",
                    "name": "eoa",
                    "type": "address"
                },
                {
                    "internalType": "uint256",
                    "name": "mana",
                    "type": "uint256"
                },
                {
                    "internalType": "uint256",
                    "name": "lastEngagement",
                    "type": "uint256"
                }
            ],
            "stateMutability": "view",
            "type": "function"
        },
        {
            "inputs": [
                {
                    "internalType": "uint256",
                    "name": "assets",
                    "type": "uint256"
                },
                {
                    "internalType": "address",
                    "name": "receiver",
                    "type": "address"
                },
                {
                    "internalType": "address",
                    "name": "owner",
                    "type": "address"
                }
            ],
            "name": "withdraw",
            "outputs": [
                {
                    "internalType": "uint256",
                    "name": "shares",
                    "type": "uint256"
                }
            ],
            "stateMutability": "nonpayable",
            "type": "function"
        }
    ],
    "bytecode": "0x61012060405242600a55610708600b556007600c55620186a0600d553480156200002857600080fd5b5060405162004ad538038062004ad583398181016040528101906200004e919062000562565b808173ffffffffffffffffffffffffffffffffffffffff166306fdde036040518163ffffffff1660e01b815260040160006040518083038186803b1580156200009657600080fd5b505afa158015620000ab573d6000803e3d6000fd5b505050506040513d6000823e3d601f19601f82011682018060405250810190620000d691906200071d565b604051602001620000e891906200080b565b6040516020818303038152906040528273ffffffffffffffffffffffffffffffffffffffff166395d89b416040518163ffffffff1660e01b815260040160006040518083038186803b1580156200013e57600080fd5b505afa15801562000153573d6000803e3d6000fd5b505050506040513d6000823e3d601f19601f820116820180604052508101906200017e91906200071d565b60405160200162000190919062000881565b60405160208183030381529060405281818473ffffffffffffffffffffffffffffffffffffffff1663313ce5676040518163ffffffff1660e01b815260040160206040518083038186803b158015620001e857600080fd5b505afa158015620001fd573d6000803e3d6000fd5b505050506040513d601f19601f82011682018060405250810190620002239190620008e5565b82600090805190602001906200023b92919062000425565b5081600190805190602001906200025492919062000425565b508060ff1660808160ff16815250504660a081815250506200027b6200039560201b60201c565b60c081815250505050508273ffffffffffffffffffffffffffffffffffffffff1660e08173ffffffffffffffffffffffffffffffffffffffff16815250505050508073ffffffffffffffffffffffffffffffffffffffff166101008173ffffffffffffffffffffffffffffffffffffffff168152505060006a084595161401484a00000090508173ffffffffffffffffffffffffffffffffffffffff166340c10f1930836040518363ffffffff1660e01b81526004016200033e92919062000943565b600060405180830381600087803b1580156200035957600080fd5b505af11580156200036e573d6000803e3d6000fd5b5050505080600860008282546200038691906200099f565b92505081905550505062000b9d565b60007f8b73c3c69bb8fe3d512ecc4cf759cc79239f7b179b0ffacaa9a75d522b39400f6000604051620003c9919062000b0c565b60405180910390207fc89efdaa54c0f20c7adf612882df0950f5a951637e0307cdcb4c672f298b8bc646306040516020016200040a95949392919062000b40565b60405160208183030381529060405280519060200120905090565b828054620004339062000a2b565b90600052602060002090601f016020900481019282620004575760008555620004a3565b82601f106200047257805160ff1916838001178555620004a3565b82800160010185558215620004a3579182015b82811115620004a257825182559160200191906001019062000485565b5b509050620004b29190620004b6565b5090565b5b80821115620004d1576000816000905550600101620004b7565b5090565b6000604051905090565b600080fd5b600080fd5b600073ffffffffffffffffffffffffffffffffffffffff82169050919050565b60006200051682620004e9565b9050919050565b60006200052a8262000509565b9050919050565b6200053c816200051d565b81146200054857600080fd5b50565b6000815190506200055c8162000531565b92915050565b6000602082840312156200057b576200057a620004df565b5b60006200058b848285016200054b565b91505092915050565b600080fd5b600080fd5b6000601f19601f8301169050919050565b7f4e487b7100000000000000000000000000000000000000000000000000000000600052604160045260246000fd5b620005e9826200059e565b810181811067ffffffffffffffff821117156200060b576200060a620005af565b5b80604052505050565b600062000620620004d5565b90506200062e8282620005de565b919050565b600067ffffffffffffffff821115620006515762000650620005af565b5b6200065c826200059e565b9050602081019050919050565b60005b83811015620006895780820151818401526020810190506200066c565b8381111562000699576000848401525b50505050565b6000620006b6620006b08462000633565b62000614565b905082815260208101848484011115620006d557620006d462000599565b5b620006e284828562000669565b509392505050565b600082601f83011262000702576200070162000594565b5b8151620007148482602086016200069f565b91505092915050565b600060208284031215620007365762000735620004df565b5b600082015167ffffffffffffffff811115620007575762000756620004e4565b5b6200076584828501620006ea565b91505092915050565b600081905092915050565b7f506f776572656420557020000000000000000000000000000000000000000000600082015250565b6000620007b1600b836200076e565b9150620007be8262000779565b600b82019050919050565b600081519050919050565b6000620007e182620007c9565b620007ed81856200076e565b9350620007ff81856020860162000669565b80840191505092915050565b60006200081882620007a2565b9150620008268284620007d4565b915081905092915050565b7f7000000000000000000000000000000000000000000000000000000000000000600082015250565b6000620008696001836200076e565b9150620008768262000831565b600182019050919050565b60006200088e826200085a565b91506200089c8284620007d4565b915081905092915050565b600060ff82169050919050565b620008bf81620008a7565b8114620008cb57600080fd5b50565b600081519050620008df81620008b4565b92915050565b600060208284031215620008fe57620008fd620004df565b5b60006200090e84828501620008ce565b91505092915050565b620009228162000509565b82525050565b6000819050919050565b6200093d8162000928565b82525050565b60006040820190506200095a600083018562000917565b62000969602083018462000932565b9392505050565b7f4e487b7100000000000000000000000000000000000000000000000000000000600052601160045260246000fd5b6000620009ac8262000928565b9150620009b98362000928565b9250827fffffffffffffffffffffffffffffffffffffffffffffffffffffffffffffffff03821115620009f157620009f062000970565b5b828201905092915050565b7f4e487b7100000000000000000000000000000000000000000000000000000000600052602260045260246000fd5b6000600282049050600182168062000a4457607f821691505b6020821081141562000a5b5762000a5a620009fc565b5b50919050565b600081905092915050565b60008190508160005260206000209050919050565b6000815462000a908162000a2b565b62000a9c818662000a61565b9450600182166000811462000aba576001811462000acc5762000b03565b60ff1983168652818601935062000b03565b62000ad78562000a6c565b60005b8381101562000afb5781548189015260018201915060208101905062000ada565b838801955050505b50505092915050565b600062000b1a828462000a81565b915081905092915050565b6000819050919050565b62000b3a8162000b25565b82525050565b600060a08201905062000b57600083018862000b2f565b62000b66602083018762000b2f565b62000b75604083018662000b2f565b62000b84606083018562000932565b62000b93608083018462000917565b9695505050505050565b60805160a05160c05160e05161010051613ebb62000c1a60003960008181610bbd0152818161131a01528181611407015281816118990152612596015260008181610f36015281816115b8015281816116c301528181611ce30152611f8201526000610f0f01526000610edb01526000610eb50152613ebb6000f3fe608060405234801561001057600080fd5b506004361061028a5760003560e01c80636e553f651161015c578063be2bf6f8116100ce578063dd62ed3e11610087578063dd62ed3e146108c5578063ef8b30f7146108f5578063f2439f0c14610925578063f2f4eb2614610955578063fc0c546a14610973578063fd41c9c7146109915761028a565b8063be2bf6f8146107b9578063c63d75b6146107e9578063c6e6f59214610819578063ce96cb7714610849578063d505accf14610879578063d905777e146108955761028a565b8063a123c33e11610120578063a123c33e146106bf578063a5a98d78146106ef578063a9059cbb146106f9578063b3d7f6b914610729578063b460af9414610759578063ba087652146107895761028a565b80636e553f65146105e157806370a08231146106115780637ecebe001461064157806394bf804d1461067157806395d89b41146106a15761028a565b80633644e5151161020057806352ec8529116101b957806352ec8529146104f9578063553275be14610529578063586ffae81461055b57806366666aa91461057757806366ccfb6e14610595578063670844e1146105c55761028a565b80633644e5151461042157806338d52e0f1461043f578063402d267d1461045d578063437a8ae61461048d57806347799da8146104ab5780634cdad506146104c95761028a565b80630fb5a6b4116102525780630fb5a6b41461035b57806318160ddd1461037957806321df0da71461039757806323b872dd146103b55780632c4e722e146103e5578063313ce567146104035761028a565b806301e1d1141461028f57806306fdde03146102ad57806307a2d13a146102cb578063095ea7b3146102fb5780630a28a4771461032b575b600080fd5b6102976109ad565b6040516102a49190612c50565b60405180910390f35b6102b56109b7565b6040516102c29190612d04565b60405180910390f35b6102e560048036038101906102e09190612d66565b610a45565b6040516102f29190612c50565b60405180910390f35b61031560048036038101906103109190612df1565b610a80565b6040516103229190612e4c565b60405180910390f35b61034560048036038101906103409190612d66565b610b72565b6040516103529190612c50565b60405180910390f35b610363610bad565b6040516103709190612c50565b60405180910390f35b610381610bb3565b60405161038e9190612c50565b60405180910390f35b61039f610bb9565b6040516103ac9190612d04565b60405180910390f35b6103cf60048036038101906103ca9190612e67565b610c63565b6040516103dc9190612e4c565b60405180910390f35b6103ed610ead565b6040516103fa9190612c50565b60405180910390f35b61040b610eb3565b6040516104189190612ed6565b60405180910390f35b610429610ed7565b6040516104369190612f0a565b60405180910390f35b610447610f34565b6040516104549190612f84565b60405180910390f35b61047760048036038101906104729190612f9f565b610f58565b6040516104849190612c50565b60405180910390f35b610495610f82565b6040516104a29190612c50565b60405180910390f35b6104b3610f88565b6040516104c09190612c50565b60405180910390f35b6104e360048036038101906104de9190612d66565b610f8e565b6040516104f09190612c50565b60405180910390f35b610513600480360381019061050e9190612e67565b610fa0565b6040516105209190612e4c565b60405180910390f35b610543600480360381019061053e9190612d66565b611172565b60405161055293929190612fdb565b60405180910390f35b61057560048036038101906105709190613012565b6111bc565b005b61057f6112d5565b60405161058c9190612c50565b60405180910390f35b6105af60048036038101906105aa9190613052565b6112db565b6040516105bc9190612e4c565b60405180910390f35b6105df60048036038101906105da9190613052565b611516565b005b6105fb60048036038101906105f69190613012565b611560565b6040516106089190612c50565b60405180910390f35b61062b60048036038101906106269190612f9f565b61167e565b6040516106389190612c50565b60405180910390f35b61065b60048036038101906106569190612f9f565b611696565b6040516106689190612c50565b60405180910390f35b61068b60048036038101906106869190613012565b6116ae565b6040516106989190612c50565b60405180910390f35b6106a9611789565b6040516106b69190612d04565b60405180910390f35b6106d960048036038101906106d49190612d66565b611817565b6040516106e69190612c50565b60405180910390f35b6106f761182f565b005b610713600480360381019061070e9190612df1565b611984565b6040516107209190612e4c565b60405180910390f35b610743600480360381019061073e9190612d66565b611a98565b6040516107509190612c50565b60405180910390f35b610773600480360381019061076e9190613092565b611ad3565b6040516107809190612c50565b60405180910390f35b6107a3600480360381019061079e9190613092565b611d2e565b6040516107b09190612c50565b60405180910390f35b6107d360048036038101906107ce9190613052565b611fcd565b6040516107e09190612e4c565b60405180910390f35b61080360048036038101906107fe9190612f9f565b6120f0565b6040516108109190612c50565b60405180910390f35b610833600480360381019061082e9190612d66565b61211a565b6040516108409190612c50565b60405180910390f35b610863600480360381019061085e9190612f9f565b612155565b6040516108709190612c50565b60405180910390f35b610893600480360381019061088e919061313d565b6121a6565b005b6108af60048036038101906108aa9190612f9f565b61249f565b6040516108bc9190612c50565b60405180910390f35b6108df60048036038101906108da91906131df565b6124e8565b6040516108ec9190612c50565b60405180910390f35b61090f600480360381019061090a9190612d66565b61250d565b60405161091c9190612c50565b60405180910390f35b61093f600480360381019061093a9190612d66565b61251f565b60405161094c9190612e4c565b60405180910390f35b61095d61258e565b60405161096a9190612c50565b60405180910390f35b61097b612594565b6040516109889190613240565b60405180910390f35b6109ab60048036038101906109a69190613052565b6125b8565b005b6000600254905090565b600080546109c49061328a565b80601f01602080910402602001604051908101604052809291908181526020018280546109f09061328a565b8015610a3d5780601f10610a1257610100808354040283529160200191610a3d565b820191906000526020600020905b815481529060010190602001808311610a2057829003601f168201915b505050505081565b600080600254905060008114610a7657610a71610a606109ad565b82856127a29092919063ffffffff16565b610a78565b825b915050919050565b600081600460003373ffffffffffffffffffffffffffffffffffffffff1673ffffffffffffffffffffffffffffffffffffffff16815260200190815260200160002060008573ffffffffffffffffffffffffffffffffffffffff1673ffffffffffffffffffffffffffffffffffffffff168152602001908152602001600020819055508273ffffffffffffffffffffffffffffffffffffffff163373ffffffffffffffffffffffffffffffffffffffff167f8c5be1e5ebec7d5bd14f71427d1e84f3dd0314c0f7b2291e5b200ac8c7c3b92584604051610b609190612c50565b60405180910390a36001905092915050565b600080600254905060008114610ba357610b9e81610b8e6109ad565b856127ca9092919063ffffffff16565b610ba5565b825b915050919050565b600b5481565b60025481565b60607f000000000000000000000000000000000000000000000000000000000000000073ffffffffffffffffffffffffffffffffffffffff166306fdde036040518163ffffffff1660e01b815260040160006040518083038186803b158015610c2157600080fd5b505afa158015610c35573d6000803e3d6000fd5b505050506040513d6000823e3d601f19601f82011682018060405250810190610c5e91906133e2565b905090565b600080600460008673ffffffffffffffffffffffffffffffffffffffff1673ffffffffffffffffffffffffffffffffffffffff16815260200190815260200160002060003373ffffffffffffffffffffffffffffffffffffffff1673ffffffffffffffffffffffffffffffffffffffff1681526020019081526020016000205490507fffffffffffffffffffffffffffffffffffffffffffffffffffffffffffffffff8114610d99578281610d18919061345a565b600460008773ffffffffffffffffffffffffffffffffffffffff1673ffffffffffffffffffffffffffffffffffffffff16815260200190815260200160002060003373ffffffffffffffffffffffffffffffffffffffff1673ffffffffffffffffffffffffffffffffffffffff168152602001908152602001600020819055505b82600360008773ffffffffffffffffffffffffffffffffffffffff1673ffffffffffffffffffffffffffffffffffffffff1681526020019081526020016000206000828254610de8919061345a565b9250508190555082600360008673ffffffffffffffffffffffffffffffffffffffff1673ffffffffffffffffffffffffffffffffffffffff168152602001908152602001600020600082825401925050819055508373ffffffffffffffffffffffffffffffffffffffff168573ffffffffffffffffffffffffffffffffffffffff167fddf252ad1be2c89b69c2b068fc378daa952ba7f163c4a11628f55a4df523b3ef85604051610e999190612c50565b60405180910390a360019150509392505050565b600c5481565b7f000000000000000000000000000000000000000000000000000000000000000081565b60007f00000000000000000000000000000000000000000000000000000000000000004614610f0d57610f086127fc565b610f2f565b7f00000000000000000000000000000000000000000000000000000000000000005b905090565b7f000000000000000000000000000000000000000000000000000000000000000081565b60007fffffffffffffffffffffffffffffffffffffffffffffffffffffffffffffffff9050919050565b600d5481565b600a5481565b6000610f9982610a45565b9050919050565b60008073ffffffffffffffffffffffffffffffffffffffff168473ffffffffffffffffffffffffffffffffffffffff161415611011576040517f08c379a0000000000000000000000000000000000000000000000000000000008152600401611008906134da565b60405180910390fd5b600073ffffffffffffffffffffffffffffffffffffffff168373ffffffffffffffffffffffffffffffffffffffff161415611081576040517f08c379a000000000000000000000000000000000000000000000000000000000815260040161107890613546565b60405180910390fd5b81600460008673ffffffffffffffffffffffffffffffffffffffff1673ffffffffffffffffffffffffffffffffffffffff16815260200190815260200160002060008573ffffffffffffffffffffffffffffffffffffffff1673ffffffffffffffffffffffffffffffffffffffff168152602001908152602001600020819055508273ffffffffffffffffffffffffffffffffffffffff168473ffffffffffffffffffffffffffffffffffffffff167f8c5be1e5ebec7d5bd14f71427d1e84f3dd0314c0f7b2291e5b200ac8c7c3b9258460405161115f9190612c50565b60405180910390a3600190509392505050565b60066020528060005260406000206000915090508060000160009054906101000a900473ffffffffffffffffffffffffffffffffffffffff16908060010154908060020154905083565b6111c4612c00565b81816000019073ffffffffffffffffffffffffffffffffffffffff16908173ffffffffffffffffffffffffffffffffffffffff16815250506064816020018181525050806006600085815260200190815260200160002060008201518160000160006101000a81548173ffffffffffffffffffffffffffffffffffffffff021916908373ffffffffffffffffffffffffffffffffffffffff160217905550602082015181600101556040820151816002015590505061128c82681b1ae4d6e2ef500000612888565b828273ffffffffffffffffffffffffffffffffffffffff167f2a08ab3d12dd2274a5880242f4d8e507c798938a27b56ee6a8a6828e9d4cddb460405160405180910390a3505050565b60085481565b6000806006600085815260200190815260200160002060000160009054906101000a900473ffffffffffffffffffffffffffffffffffffffff169050827f000000000000000000000000000000000000000000000000000000000000000073ffffffffffffffffffffffffffffffffffffffff166370a08231836040518263ffffffff1660e01b81526004016113719190613566565b60206040518083038186803b15801561138957600080fd5b505afa15801561139d573d6000803e3d6000fd5b505050506040513d601f19601f820116820180604052508101906113c19190613596565b1015915081611405576040517f08c379a00000000000000000000000000000000000000000000000000000000081526004016113fc9061360f565b60405180910390fd5b7f000000000000000000000000000000000000000000000000000000000000000073ffffffffffffffffffffffffffffffffffffffff166352ec85298230866040518463ffffffff1660e01b81526004016114629392919061362f565b602060405180830381600087803b15801561147c57600080fd5b505af1158015611490573d6000803e3d6000fd5b505050506040513d601f19601f820116820180604052508101906114b49190613692565b506114bf8382611560565b508073ffffffffffffffffffffffffffffffffffffffff16847f6053794844fb083c3cadb63a00ddef7ff8b7c16367fc70229748fa904d7f655c856040516115079190612c50565b60405180910390a35092915050565b81600760008381526020019081526020016000208190555081817f18fa8f47f5376f40dc1e84823dd86896057d6264054982e7ce4e6db9955bcdd860405160405180910390a35050565b60008061156c8461250d565b91508114156115b0576040517f08c379a00000000000000000000000000000000000000000000000000000000081526004016115a79061370b565b60405180910390fd5b6115fd3330857f000000000000000000000000000000000000000000000000000000000000000073ffffffffffffffffffffffffffffffffffffffff16612958909392919063ffffffff16565b6116078282612888565b8173ffffffffffffffffffffffffffffffffffffffff163373ffffffffffffffffffffffffffffffffffffffff167fdcbc1c05240f31ff3ad067ef1ee35ce4997762752e3a095284754544f4c709d7858460405161166692919061372b565b60405180910390a361167883826129f7565b92915050565b60036020528060005260406000206000915090505481565b60056020528060005260406000206000915090505481565b60006116b983611a98565b90506117083330837f000000000000000000000000000000000000000000000000000000000000000073ffffffffffffffffffffffffffffffffffffffff16612958909392919063ffffffff16565b6117128284612888565b8173ffffffffffffffffffffffffffffffffffffffff163373ffffffffffffffffffffffffffffffffffffffff167fdcbc1c05240f31ff3ad067ef1ee35ce4997762752e3a095284754544f4c709d7838660405161177192919061372b565b60405180910390a361178381846129f7565b92915050565b600180546117969061328a565b80601f01602080910402602001604051908101604052809291908181526020018280546117c29061328a565b801561180f5780601f106117e45761010080835404028352916020019161180f565b820191906000526020600020905b8154815290600101906020018083116117f257829003601f168201915b505050505081565b60076020528060005260406000206000915090505481565b60004290506000600b54600a5483611847919061345a565b6118519190613783565b9050600060025482600d5461186691906138e7565b83600c5461187491906138e7565b6002546118819190613932565b61188b9190613783565b611895919061345a565b90507f000000000000000000000000000000000000000000000000000000000000000073ffffffffffffffffffffffffffffffffffffffff166340c10f1930836040518363ffffffff1660e01b81526004016118f292919061398c565b600060405180830381600087803b15801561190c57600080fd5b505af1158015611920573d6000803e3d6000fd5b50505050806008600082825461193691906139b5565b9250508190555082600a819055507f4df34928a73fc3e550b40b9a054bd4f8f210ffbde0cfa807499993fa2d1715db600a548260405161197792919061372b565b60405180910390a1505050565b600081600360003373ffffffffffffffffffffffffffffffffffffffff1673ffffffffffffffffffffffffffffffffffffffff16815260200190815260200160002060008282546119d5919061345a565b9250508190555081600360008573ffffffffffffffffffffffffffffffffffffffff1673ffffffffffffffffffffffffffffffffffffffff168152602001908152602001600020600082825401925050819055508273ffffffffffffffffffffffffffffffffffffffff163373ffffffffffffffffffffffffffffffffffffffff167fddf252ad1be2c89b69c2b068fc378daa952ba7f163c4a11628f55a4df523b3ef84604051611a869190612c50565b60405180910390a36001905092915050565b600080600254905060008114611ac957611ac4611ab36109ad565b82856127ca9092919063ffffffff16565b611acb565b825b915050919050565b6000611ade84610b72565b90508173ffffffffffffffffffffffffffffffffffffffff163373ffffffffffffffffffffffffffffffffffffffff1614611c4a576000600460008473ffffffffffffffffffffffffffffffffffffffff1673ffffffffffffffffffffffffffffffffffffffff16815260200190815260200160002060003373ffffffffffffffffffffffffffffffffffffffff1673ffffffffffffffffffffffffffffffffffffffff1681526020019081526020016000205490507fffffffffffffffffffffffffffffffffffffffffffffffffffffffffffffffff8114611c48578181611bc7919061345a565b600460008573ffffffffffffffffffffffffffffffffffffffff1673ffffffffffffffffffffffffffffffffffffffff16815260200190815260200160002060003373ffffffffffffffffffffffffffffffffffffffff1673ffffffffffffffffffffffffffffffffffffffff168152602001908152602001600020819055505b505b611c5484826129fb565b611c5e82826129ff565b8173ffffffffffffffffffffffffffffffffffffffff168373ffffffffffffffffffffffffffffffffffffffff163373ffffffffffffffffffffffffffffffffffffffff167ffbde797d201c681b91056529119e0b02407c7bb96a4a2c75c01fc9667232c8db8785604051611cd492919061372b565b60405180910390a4611d2783857f000000000000000000000000000000000000000000000000000000000000000073ffffffffffffffffffffffffffffffffffffffff16612acf9092919063ffffffff16565b9392505050565b60008173ffffffffffffffffffffffffffffffffffffffff163373ffffffffffffffffffffffffffffffffffffffff1614611e9a576000600460008473ffffffffffffffffffffffffffffffffffffffff1673ffffffffffffffffffffffffffffffffffffffff16815260200190815260200160002060003373ffffffffffffffffffffffffffffffffffffffff1673ffffffffffffffffffffffffffffffffffffffff1681526020019081526020016000205490507fffffffffffffffffffffffffffffffffffffffffffffffffffffffffffffffff8114611e98578481611e17919061345a565b600460008573ffffffffffffffffffffffffffffffffffffffff1673ffffffffffffffffffffffffffffffffffffffff16815260200190815260200160002060003373ffffffffffffffffffffffffffffffffffffffff1673ffffffffffffffffffffffffffffffffffffffff168152602001908152602001600020819055505b505b6000611ea585610f8e565b9150811415611ee9576040517f08c379a0000000000000000000000000000000000000000000000000000000008152600401611ee090613a57565b60405180910390fd5b611ef381856129fb565b611efd82856129ff565b8173ffffffffffffffffffffffffffffffffffffffff168373ffffffffffffffffffffffffffffffffffffffff163373ffffffffffffffffffffffffffffffffffffffff167ffbde797d201c681b91056529119e0b02407c7bb96a4a2c75c01fc9667232c8db8488604051611f7392919061372b565b60405180910390a4611fc683827f000000000000000000000000000000000000000000000000000000000000000073ffffffffffffffffffffffffffffffffffffffff16612acf9092919063ffffffff16565b9392505050565b6000806006600085815260200190815260200160002060000160009054906101000a900473ffffffffffffffffffffffffffffffffffffffff16905082600360008373ffffffffffffffffffffffffffffffffffffffff1673ffffffffffffffffffffffffffffffffffffffff16815260200190815260200160002054101591508161208e576040517f08c379a00000000000000000000000000000000000000000000000000000000081526004016120859061360f565b60405180910390fd5b612099838283611ad3565b508073ffffffffffffffffffffffffffffffffffffffff16847f2161c25a76b379e01c2eebcd077217a1bdcec52b712e9003af484a647148efda856040516120e19190612c50565b60405180910390a35092915050565b60007fffffffffffffffffffffffffffffffffffffffffffffffffffffffffffffffff9050919050565b60008060025490506000811461214b57612146816121366109ad565b856127a29092919063ffffffff16565b61214d565b825b915050919050565b600061219f600360008473ffffffffffffffffffffffffffffffffffffffff1673ffffffffffffffffffffffffffffffffffffffff16815260200190815260200160002054610a45565b9050919050565b428410156121e9576040517f08c379a00000000000000000000000000000000000000000000000000000000081526004016121e090613ac3565b60405180910390fd5b600060016121f5610ed7565b7f6e71edae12b1b97f4d1f60370fef10105fa2faae0126114a169c64845d6126c98a8a8a600560008f73ffffffffffffffffffffffffffffffffffffffff1673ffffffffffffffffffffffffffffffffffffffff1681526020019081526020016000206000815480929190600101919050558b60405160200161227d96959493929190613ae3565b604051602081830303815290604052805190602001206040516020016122a4929190613bbc565b60405160208183030381529060405280519060200120858585604051600081526020016040526040516122da9493929190613bf3565b6020604051602081039080840390855afa1580156122fc573d6000803e3d6000fd5b505050602060405103519050600073ffffffffffffffffffffffffffffffffffffffff168173ffffffffffffffffffffffffffffffffffffffff161415801561237057508773ffffffffffffffffffffffffffffffffffffffff168173ffffffffffffffffffffffffffffffffffffffff16145b6123af576040517f08c379a00000000000000000000000000000000000000000000000000000000081526004016123a690613c84565b60405180910390fd5b85600460008373ffffffffffffffffffffffffffffffffffffffff1673ffffffffffffffffffffffffffffffffffffffff16815260200190815260200160002060008973ffffffffffffffffffffffffffffffffffffffff1673ffffffffffffffffffffffffffffffffffffffff16815260200190815260200160002081905550508573ffffffffffffffffffffffffffffffffffffffff168773ffffffffffffffffffffffffffffffffffffffff167f8c5be1e5ebec7d5bd14f71427d1e84f3dd0314c0f7b2291e5b200ac8c7c3b9258760405161248e9190612c50565b60405180910390a350505050505050565b6000600360008373ffffffffffffffffffffffffffffffffffffffff1673ffffffffffffffffffffffffffffffffffffffff168152602001908152602001600020549050919050565b6004602052816000526040600020602052806000526040600020600091509150505481565b60006125188261211a565b9050919050565b60008073ffffffffffffffffffffffffffffffffffffffff166006600084815260200190815260200160002060000160009054906101000a900473ffffffffffffffffffffffffffffffffffffffff1673ffffffffffffffffffffffffffffffffffffffff1614159050919050565b60095481565b7f000000000000000000000000000000000000000000000000000000000000000081565b6125c061182f565b6125c982612b67565b6000600660008481526020019081526020016000209050600081600101546064600360008560000160009054906101000a900473ffffffffffffffffffffffffffffffffffffffff1673ffffffffffffffffffffffffffffffffffffffff1673ffffffffffffffffffffffffffffffffffffffff1681526020019081526020016000205460085461265a9190613783565b6126649190613783565b61266e9190613932565b9050670de0b6b3a7640000816126849190613932565b90506126cc8260000160009054906101000a900473ffffffffffffffffffffffffffffffffffffffff1660646014846126bd9190613932565b6126c79190613783565b612888565b6127246006600085815260200190815260200160002060000160009054906101000a900473ffffffffffffffffffffffffffffffffffffffff1660646050846127159190613932565b61271f9190613783565b612888565b8060086000828254612736919061345a565b92505081905550428260020181905550600a82600101600082825461275b919061345a565b925050819055504283857fac3b8ab89a07bbb8dd4670bcfe29ef7d4eccea237222f49f997884d89947d53d846040516127949190612c50565b60405180910390a450505050565b600082840290508284820414841517821515166127be57600080fd5b81810490509392505050565b600082840290508284820414841517821515166127e657600080fd5b6001826001830304018115150290509392505050565b60007f8b73c3c69bb8fe3d512ecc4cf759cc79239f7b179b0ffacaa9a75d522b39400f600060405161282e9190613d43565b60405180910390207fc89efdaa54c0f20c7adf612882df0950f5a951637e0307cdcb4c672f298b8bc6463060405160200161286d959493929190613d5a565b60405160208183030381529060405280519060200120905090565b806002600082825461289a91906139b5565b9250508190555080600360008473ffffffffffffffffffffffffffffffffffffffff1673ffffffffffffffffffffffffffffffffffffffff168152602001908152602001600020600082825401925050819055508173ffffffffffffffffffffffffffffffffffffffff16600073ffffffffffffffffffffffffffffffffffffffff167fddf252ad1be2c89b69c2b068fc378daa952ba7f163c4a11628f55a4df523b3ef8360405161294c9190612c50565b60405180910390a35050565b60006040517f23b872dd0000000000000000000000000000000000000000000000000000000081528460048201528360248201528260448201526020600060648360008a5af13d15601f3d11600160005114161716915050806129f0576040517f08c379a00000000000000000000000000000000000000000000000000000000081526004016129e790613df9565b60405180910390fd5b5050505050565b5050565b5050565b80600360008473ffffffffffffffffffffffffffffffffffffffff1673ffffffffffffffffffffffffffffffffffffffff1681526020019081526020016000206000828254612a4e919061345a565b9250508190555080600260008282540392505081905550600073ffffffffffffffffffffffffffffffffffffffff168273ffffffffffffffffffffffffffffffffffffffff167fddf252ad1be2c89b69c2b068fc378daa952ba7f163c4a11628f55a4df523b3ef83604051612ac39190612c50565b60405180910390a35050565b60006040517fa9059cbb000000000000000000000000000000000000000000000000000000008152836004820152826024820152602060006044836000895af13d15601f3d1160016000511416171691505080612b61576040517f08c379a0000000000000000000000000000000000000000000000000000000008152600401612b5890613e65565b60405180910390fd5b50505050565b6024600660008381526020019081526020016000206002015442612b8b919061345a565b612b959190613783565b600660008381526020019081526020016000206001016000828254612bba91906139b5565b92505081905550606460066000838152602001908152602001600020600101541115612bfd57606460066000838152602001908152602001600020600101819055505b50565b6040518060600160405280600073ffffffffffffffffffffffffffffffffffffffff16815260200160008152602001600081525090565b6000819050919050565b612c4a81612c37565b82525050565b6000602082019050612c656000830184612c41565b92915050565b600081519050919050565b600082825260208201905092915050565b60005b83811015612ca5578082015181840152602081019050612c8a565b83811115612cb4576000848401525b50505050565b6000601f19601f8301169050919050565b6000612cd682612c6b565b612ce08185612c76565b9350612cf0818560208601612c87565b612cf981612cba565b840191505092915050565b60006020820190508181036000830152612d1e8184612ccb565b905092915050565b6000604051905090565b600080fd5b600080fd5b612d4381612c37565b8114612d4e57600080fd5b50565b600081359050612d6081612d3a565b92915050565b600060208284031215612d7c57612d7b612d30565b5b6000612d8a84828501612d51565b91505092915050565b600073ffffffffffffffffffffffffffffffffffffffff82169050919050565b6000612dbe82612d93565b9050919050565b612dce81612db3565b8114612dd957600080fd5b50565b600081359050612deb81612dc5565b92915050565b60008060408385031215612e0857612e07612d30565b5b6000612e1685828601612ddc565b9250506020612e2785828601612d51565b9150509250929050565b60008115159050919050565b612e4681612e31565b82525050565b6000602082019050612e616000830184612e3d565b92915050565b600080600060608486031215612e8057612e7f612d30565b5b6000612e8e86828701612ddc565b9350506020612e9f86828701612ddc565b9250506040612eb086828701612d51565b9150509250925092565b600060ff82169050919050565b612ed081612eba565b82525050565b6000602082019050612eeb6000830184612ec7565b92915050565b6000819050919050565b612f0481612ef1565b82525050565b6000602082019050612f1f6000830184612efb565b92915050565b6000819050919050565b6000612f4a612f45612f4084612d93565b612f25565b612d93565b9050919050565b6000612f5c82612f2f565b9050919050565b6000612f6e82612f51565b9050919050565b612f7e81612f63565b82525050565b6000602082019050612f996000830184612f75565b92915050565b600060208284031215612fb557612fb4612d30565b5b6000612fc384828501612ddc565b91505092915050565b612fd581612db3565b82525050565b6000606082019050612ff06000830186612fcc565b612ffd6020830185612c41565b61300a6040830184612c41565b949350505050565b6000806040838503121561302957613028612d30565b5b600061303785828601612d51565b925050602061304885828601612ddc565b9150509250929050565b6000806040838503121561306957613068612d30565b5b600061307785828601612d51565b925050602061308885828601612d51565b9150509250929050565b6000806000606084860312156130ab576130aa612d30565b5b60006130b986828701612d51565b93505060206130ca86828701612ddc565b92505060406130db86828701612ddc565b9150509250925092565b6130ee81612eba565b81146130f957600080fd5b50565b60008135905061310b816130e5565b92915050565b61311a81612ef1565b811461312557600080fd5b50565b60008135905061313781613111565b92915050565b600080600080600080600060e0888a03121561315c5761315b612d30565b5b600061316a8a828b01612ddc565b975050602061317b8a828b01612ddc565b965050604061318c8a828b01612d51565b955050606061319d8a828b01612d51565b94505060806131ae8a828b016130fc565b93505060a06131bf8a828b01613128565b92505060c06131d08a828b01613128565b91505092959891949750929550565b600080604083850312156131f6576131f5612d30565b5b600061320485828601612ddc565b925050602061321585828601612ddc565b9150509250929050565b600061322a82612f51565b9050919050565b61323a8161321f565b82525050565b60006020820190506132556000830184613231565b92915050565b7f4e487b7100000000000000000000000000000000000000000000000000000000600052602260045260246000fd5b600060028204905060018216806132a257607f821691505b602082108114156132b6576132b561325b565b5b50919050565b600080fd5b600080fd5b7f4e487b7100000000000000000000000000000000000000000000000000000000600052604160045260246000fd5b6132fe82612cba565b810181811067ffffffffffffffff8211171561331d5761331c6132c6565b5b80604052505050565b6000613330612d26565b905061333c82826132f5565b919050565b600067ffffffffffffffff82111561335c5761335b6132c6565b5b61336582612cba565b9050602081019050919050565b600061338561338084613341565b613326565b9050828152602081018484840111156133a1576133a06132c1565b5b6133ac848285612c87565b509392505050565b600082601f8301126133c9576133c86132bc565b5b81516133d9848260208601613372565b91505092915050565b6000602082840312156133f8576133f7612d30565b5b600082015167ffffffffffffffff81111561341657613415612d35565b5b613422848285016133b4565b91505092915050565b7f4e487b7100000000000000000000000000000000000000000000000000000000600052601160045260246000fd5b600061346582612c37565b915061347083612c37565b9250828210156134835761348261342b565b5b828203905092915050565b7f5a45524f5f414444524553535f4f574e45520000000000000000000000000000600082015250565b60006134c4601283612c76565b91506134cf8261348e565b602082019050919050565b600060208201905081810360008301526134f3816134b7565b9050919050565b7f5a45524f5f414444524553535f5350454e444552000000000000000000000000600082015250565b6000613530601483612c76565b915061353b826134fa565b602082019050919050565b6000602082019050818103600083015261355f81613523565b9050919050565b600060208201905061357b6000830184612fcc565b92915050565b60008151905061359081612d3a565b92915050565b6000602082840312156135ac576135ab612d30565b5b60006135ba84828501613581565b91505092915050565b7f494e53554646494349454e545f42414c414e4345000000000000000000000000600082015250565b60006135f9601483612c76565b9150613604826135c3565b602082019050919050565b60006020820190508181036000830152613628816135ec565b9050919050565b60006060820190506136446000830186612fcc565b6136516020830185612fcc565b61365e6040830184612c41565b949350505050565b61366f81612e31565b811461367a57600080fd5b50565b60008151905061368c81613666565b92915050565b6000602082840312156136a8576136a7612d30565b5b60006136b68482850161367d565b91505092915050565b7f5a45524f5f534841524553000000000000000000000000000000000000000000600082015250565b60006136f5600b83612c76565b9150613700826136bf565b602082019050919050565b60006020820190508181036000830152613724816136e8565b9050919050565b60006040820190506137406000830185612c41565b61374d6020830184612c41565b9392505050565b7f4e487b7100000000000000000000000000000000000000000000000000000000600052601260045260246000fd5b600061378e82612c37565b915061379983612c37565b9250826137a9576137a8613754565b5b828204905092915050565b60008160011c9050919050565b6000808291508390505b600185111561380b578086048111156137e7576137e661342b565b5b60018516156137f65780820291505b8081029050613804856137b4565b94506137cb565b94509492505050565b60008261382457600190506138e0565b8161383257600090506138e0565b8160018114613848576002811461385257613881565b60019150506138e0565b60ff8411156138645761386361342b565b5b8360020a91508482111561387b5761387a61342b565b5b506138e0565b5060208310610133831016604e8410600b84101617156138b65782820a9050838111156138b1576138b061342b565b5b6138e0565b6138c384848460016137c1565b925090508184048111156138da576138d961342b565b5b81810290505b9392505050565b60006138f282612c37565b91506138fd83612c37565b925061392a7fffffffffffffffffffffffffffffffffffffffffffffffffffffffffffffffff8484613814565b905092915050565b600061393d82612c37565b915061394883612c37565b9250817fffffffffffffffffffffffffffffffffffffffffffffffffffffffffffffffff04831182151516156139815761398061342b565b5b828202905092915050565b60006040820190506139a16000830185612fcc565b6139ae6020830184612c41565b9392505050565b60006139c082612c37565b91506139cb83612c37565b9250827fffffffffffffffffffffffffffffffffffffffffffffffffffffffffffffffff03821115613a00576139ff61342b565b5b828201905092915050565b7f5a45524f5f415353455453000000000000000000000000000000000000000000600082015250565b6000613a41600b83612c76565b9150613a4c82613a0b565b602082019050919050565b60006020820190508181036000830152613a7081613a34565b9050919050565b7f5045524d49545f444541444c494e455f45585049524544000000000000000000600082015250565b6000613aad601783612c76565b9150613ab882613a77565b602082019050919050565b60006020820190508181036000830152613adc81613aa0565b9050919050565b600060c082019050613af86000830189612efb565b613b056020830188612fcc565b613b126040830187612fcc565b613b1f6060830186612c41565b613b2c6080830185612c41565b613b3960a0830184612c41565b979650505050505050565b600081905092915050565b7f1901000000000000000000000000000000000000000000000000000000000000600082015250565b6000613b85600283613b44565b9150613b9082613b4f565b600282019050919050565b6000819050919050565b613bb6613bb182612ef1565b613b9b565b82525050565b6000613bc782613b78565b9150613bd38285613ba5565b602082019150613be38284613ba5565b6020820191508190509392505050565b6000608082019050613c086000830187612efb565b613c156020830186612ec7565b613c226040830185612efb565b613c2f6060830184612efb565b95945050505050565b7f494e56414c49445f5349474e4552000000000000000000000000000000000000600082015250565b6000613c6e600e83612c76565b9150613c7982613c38565b602082019050919050565b60006020820190508181036000830152613c9d81613c61565b9050919050565b600081905092915050565b60008190508160005260206000209050919050565b60008154613cd18161328a565b613cdb8186613ca4565b94506001821660008114613cf65760018114613d0757613d3a565b60ff19831686528186019350613d3a565b613d1085613caf565b60005b83811015613d3257815481890152600182019150602081019050613d13565b838801955050505b50505092915050565b6000613d4f8284613cc4565b915081905092915050565b600060a082019050613d6f6000830188612efb565b613d7c6020830187612efb565b613d896040830186612efb565b613d966060830185612c41565b613da36080830184612fcc565b9695505050505050565b7f5452414e534645525f46524f4d5f4641494c4544000000000000000000000000600082015250565b6000613de3601483612c76565b9150613dee82613dad565b602082019050919050565b60006020820190508181036000830152613e1281613dd6565b9050919050565b7f5452414e534645525f4641494c45440000000000000000000000000000000000600082015250565b6000613e4f600f83612c76565b9150613e5a82613e19565b602082019050919050565b60006020820190508181036000830152613e7e81613e42565b905091905056fea2646970667358221220015575e5a02a59bcd6f0b9ed61321a33cc999512938dbaf9ef587f87f4a05f7f64736f6c63430008090033",
    "linkReferences": {},
    "deployedLinkReferences": {}
}