{
  "_format": "hh-sol-artifact-1",
  "contractName": "Sphere",
  "sourceName": "contracts/Sphere.sol",
  "abi": [
    {
      "inputs": [
        {
          "internalType": "contract Token",
          "name": "_token",
          "type": "address"
        }
      ],
      "stateMutability": "nonpayable",
      "type": "constructor"
    },
    {
      "anonymous": false,
      "inputs": [
        {
          "indexed": true,
          "internalType": "address",
          "name": "owner",
          "type": "address"
        },
        {
          "indexed": true,
          "internalType": "address",
          "name": "spender",
          "type": "address"
        },
        {
          "indexed": false,
          "internalType": "uint256",
          "name": "amount",
          "type": "uint256"
        }
      ],
      "name": "Approval",
      "type": "event"
    },
    {
      "anonymous": false,
      "inputs": [
        {
          "indexed": true,
          "internalType": "address",
          "name": "_address",
          "type": "address"
        },
        {
          "indexed": true,
          "internalType": "uint256",
          "name": "discord_id",
          "type": "uint256"
        }
      ],
      "name": "Authenticate",
      "type": "event"
    },
    {
      "anonymous": false,
      "inputs": [
        {
          "indexed": true,
          "internalType": "uint256",
          "name": "from_discord_id",
          "type": "uint256"
        },
        {
          "indexed": true,
          "internalType": "uint256",
          "name": "to_discord_id",
          "type": "uint256"
        },
        {
          "indexed": true,
          "internalType": "uint256",
          "name": "time",
          "type": "uint256"
        },
        {
          "indexed": false,
          "internalType": "uint256",
          "name": "value",
          "type": "uint256"
        }
      ],
      "name": "Engaged",
      "type": "event"
    },
    {
      "anonymous": false,
      "inputs": [
        {
          "indexed": false,
          "internalType": "uint256",
          "name": "time",
          "type": "uint256"
        },
        {
          "indexed": false,
          "internalType": "uint256",
          "name": "amount",
          "type": "uint256"
        }
      ],
      "name": "Inflation",
      "type": "event"
    },
    {
      "anonymous": false,
      "inputs": [
        {
          "indexed": true,
          "internalType": "uint256",
          "name": "server_id",
          "type": "uint256"
        },
        {
          "indexed": true,
          "internalType": "uint256",
          "name": "owner_id",
          "type": "uint256"
        }
      ],
      "name": "OwnerAssigned",
      "type": "event"
    },
    {
      "anonymous": false,
      "inputs": [
        {
          "indexed": true,
          "internalType": "uint256",
          "name": "discord_id",
          "type": "uint256"
        },
        {
          "indexed": true,
          "internalType": "address",
          "name": "_address",
          "type": "address"
        },
        {
          "indexed": false,
          "internalType": "uint256",
          "name": "amount",
          "type": "uint256"
        }
      ],
      "name": "PowerDown",
      "type": "event"
    },
    {
      "anonymous": false,
      "inputs": [
        {
          "indexed": true,
          "internalType": "uint256",
          "name": "discord_id",
          "type": "uint256"
        },
        {
          "indexed": true,
          "internalType": "address",
          "name": "_address",
          "type": "address"
        },
        {
          "indexed": false,
          "internalType": "uint256",
          "name": "amount",
          "type": "uint256"
        }
      ],
      "name": "PowerUp",
      "type": "event"
    },
    {
      "anonymous": false,
      "inputs": [
        {
          "indexed": true,
          "internalType": "address",
          "name": "from",
          "type": "address"
        },
        {
          "indexed": true,
          "internalType": "address",
          "name": "to",
          "type": "address"
        },
        {
          "indexed": false,
          "internalType": "uint256",
          "name": "amount",
          "type": "uint256"
        }
      ],
      "name": "Transfer",
      "type": "event"
    },
    {
      "inputs": [],
      "name": "DOMAIN_SEPARATOR",
      "outputs": [
        {
          "internalType": "bytes32",
          "name": "",
          "type": "bytes32"
        }
      ],
      "stateMutability": "view",
      "type": "function"
    },
    {
      "inputs": [
        {
          "internalType": "address",
          "name": "",
          "type": "address"
        },
        {
          "internalType": "address",
          "name": "",
          "type": "address"
        }
      ],
      "name": "allowance",
      "outputs": [
        {
          "internalType": "uint256",
          "name": "",
          "type": "uint256"
        }
      ],
      "stateMutability": "view",
      "type": "function"
    },
    {
      "inputs": [
        {
          "internalType": "address",
          "name": "spender",
          "type": "address"
        },
        {
          "internalType": "uint256",
          "name": "amount",
          "type": "uint256"
        }
      ],
      "name": "approve",
      "outputs": [
        {
          "internalType": "bool",
          "name": "",
          "type": "bool"
        }
      ],
      "stateMutability": "nonpayable",
      "type": "function"
    },
    {
      "inputs": [
        {
          "internalType": "uint256",
          "name": "discord_id",
          "type": "uint256"
        },
        {
          "internalType": "address",
          "name": "_address",
          "type": "address"
        }
      ],
      "name": "authenticate",
      "outputs": [],
      "stateMutability": "nonpayable",
      "type": "function"
    },
    {
      "inputs": [
        {
          "internalType": "address",
          "name": "",
          "type": "address"
        }
      ],
      "name": "balanceOf",
      "outputs": [
        {
          "internalType": "uint256",
          "name": "",
          "type": "uint256"
        }
      ],
      "stateMutability": "view",
      "type": "function"
    },
    {
      "inputs": [],
      "name": "core",
      "outputs": [
        {
          "internalType": "uint256",
          "name": "",
          "type": "uint256"
        }
      ],
      "stateMutability": "view",
      "type": "function"
    },
    {
      "inputs": [],
      "name": "decimals",
      "outputs": [
        {
          "internalType": "uint8",
          "name": "",
          "type": "uint8"
        }
      ],
      "stateMutability": "view",
      "type": "function"
    },
    {
      "inputs": [],
      "name": "duration",
      "outputs": [
        {
          "internalType": "uint256",
          "name": "",
          "type": "uint256"
        }
      ],
      "stateMutability": "view",
      "type": "function"
    },
    {
      "inputs": [
        {
          "internalType": "uint256",
          "name": "engager_id",
          "type": "uint256"
        },
        {
          "internalType": "uint256",
          "name": "engagee_id",
          "type": "uint256"
        }
      ],
      "name": "engage",
      "outputs": [],
      "stateMutability": "nonpayable",
      "type": "function"
    },
    {
      "inputs": [],
      "name": "inflate",
      "outputs": [],
      "stateMutability": "nonpayable",
      "type": "function"
    },
    {
      "inputs": [],
      "name": "inflation",
      "outputs": [
        {
          "internalType": "uint256",
          "name": "",
          "type": "uint256"
        }
      ],
      "stateMutability": "view",
      "type": "function"
    },
    {
      "inputs": [
        {
          "internalType": "uint256",
          "name": "discord_id",
          "type": "uint256"
        }
      ],
      "name": "isAuthenticated",
      "outputs": [
        {
          "internalType": "bool",
          "name": "authenticated",
          "type": "bool"
        }
      ],
      "stateMutability": "view",
      "type": "function"
    },
    {
      "inputs": [],
      "name": "last",
      "outputs": [
        {
          "internalType": "uint256",
          "name": "",
          "type": "uint256"
        }
      ],
      "stateMutability": "view",
      "type": "function"
    },
    {
      "inputs": [],
      "name": "multiple",
      "outputs": [
        {
          "internalType": "uint256",
          "name": "",
          "type": "uint256"
        }
      ],
      "stateMutability": "view",
      "type": "function"
    },
    {
      "inputs": [],
      "name": "name",
      "outputs": [
        {
          "internalType": "string",
          "name": "",
          "type": "string"
        }
      ],
      "stateMutability": "view",
      "type": "function"
    },
    {
      "inputs": [
        {
          "internalType": "address",
          "name": "",
          "type": "address"
        }
      ],
      "name": "nonces",
      "outputs": [
        {
          "internalType": "uint256",
          "name": "",
          "type": "uint256"
        }
      ],
      "stateMutability": "view",
      "type": "function"
    },
    {
      "inputs": [
        {
          "internalType": "uint256",
          "name": "",
          "type": "uint256"
        }
      ],
      "name": "owner",
      "outputs": [
        {
          "internalType": "uint256",
          "name": "",
          "type": "uint256"
        }
      ],
      "stateMutability": "view",
      "type": "function"
    },
    {
      "inputs": [
        {
          "internalType": "address",
          "name": "owner",
          "type": "address"
        },
        {
          "internalType": "address",
          "name": "spender",
          "type": "address"
        },
        {
          "internalType": "uint256",
          "name": "value",
          "type": "uint256"
        },
        {
          "internalType": "uint256",
          "name": "deadline",
          "type": "uint256"
        },
        {
          "internalType": "uint8",
          "name": "v",
          "type": "uint8"
        },
        {
          "internalType": "bytes32",
          "name": "r",
          "type": "bytes32"
        },
        {
          "internalType": "bytes32",
          "name": "s",
          "type": "bytes32"
        }
      ],
      "name": "permit",
      "outputs": [],
      "stateMutability": "nonpayable",
      "type": "function"
    },
    {
      "inputs": [
        {
          "internalType": "uint256",
          "name": "discord_id",
          "type": "uint256"
        },
        {
          "internalType": "uint256",
          "name": "amount",
          "type": "uint256"
        }
      ],
      "name": "powerDown",
      "outputs": [],
      "stateMutability": "nonpayable",
      "type": "function"
    },
    {
      "inputs": [
        {
          "internalType": "uint256",
          "name": "discord_id",
          "type": "uint256"
        },
        {
          "internalType": "uint256",
          "name": "amount",
          "type": "uint256"
        }
      ],
      "name": "powerUp",
      "outputs": [],
      "stateMutability": "nonpayable",
      "type": "function"
    },
    {
      "inputs": [],
      "name": "rate",
      "outputs": [
        {
          "internalType": "uint256",
          "name": "",
          "type": "uint256"
        }
      ],
      "stateMutability": "view",
      "type": "function"
    },
    {
      "inputs": [],
      "name": "rewardPool",
      "outputs": [
        {
          "internalType": "uint256",
          "name": "",
          "type": "uint256"
        }
      ],
      "stateMutability": "view",
      "type": "function"
    },
    {
      "inputs": [],
      "name": "symbol",
      "outputs": [
        {
          "internalType": "string",
          "name": "",
          "type": "string"
        }
      ],
      "stateMutability": "view",
      "type": "function"
    },
    {
      "inputs": [],
      "name": "token",
      "outputs": [
        {
          "internalType": "contract Token",
          "name": "",
          "type": "address"
        }
      ],
      "stateMutability": "view",
      "type": "function"
    },
    {
      "inputs": [],
      "name": "totalSupply",
      "outputs": [
        {
          "internalType": "uint256",
          "name": "",
          "type": "uint256"
        }
      ],
      "stateMutability": "view",
      "type": "function"
    },
    {
      "inputs": [
        {
          "internalType": "address",
          "name": "to",
          "type": "address"
        },
        {
          "internalType": "uint256",
          "name": "amount",
          "type": "uint256"
        }
      ],
      "name": "transfer",
      "outputs": [
        {
          "internalType": "bool",
          "name": "",
          "type": "bool"
        }
      ],
      "stateMutability": "nonpayable",
      "type": "function"
    },
    {
      "inputs": [
        {
          "internalType": "address",
          "name": "from",
          "type": "address"
        },
        {
          "internalType": "address",
          "name": "to",
          "type": "address"
        },
        {
          "internalType": "uint256",
          "name": "amount",
          "type": "uint256"
        }
      ],
      "name": "transferFrom",
      "outputs": [
        {
          "internalType": "bool",
          "name": "",
          "type": "bool"
        }
      ],
      "stateMutability": "nonpayable",
      "type": "function"
    },
    {
      "inputs": [
        {
          "internalType": "uint256",
          "name": "",
          "type": "uint256"
        }
      ],
      "name": "user",
      "outputs": [
        {
          "internalType": "address",
          "name": "eoa",
          "type": "address"
        },
        {
          "internalType": "uint256",
          "name": "mana",
          "type": "uint256"
        },
        {
          "internalType": "uint256",
          "name": "lastEngagement",
          "type": "uint256"
        }
      ],
      "stateMutability": "view",
      "type": "function"
    }
  ],
  "bytecode": "0x61010060405242600a55610708600b556007600c55620186a0600e553480156200002857600080fd5b506040516200340f3803806200340f83398181016040528101906200004e919062000504565b8073ffffffffffffffffffffffffffffffffffffffff166306fdde036040518163ffffffff1660e01b815260040160006040518083038186803b1580156200009557600080fd5b505afa158015620000aa573d6000803e3d6000fd5b505050506040513d6000823e3d601f19601f82011682018060405250810190620000d59190620006bf565b604051602001620000e79190620007ad565b6040516020818303038152906040528173ffffffffffffffffffffffffffffffffffffffff166395d89b416040518163ffffffff1660e01b815260040160006040518083038186803b1580156200013d57600080fd5b505afa15801562000152573d6000803e3d6000fd5b505050506040513d6000823e3d601f19601f820116820180604052508101906200017d9190620006bf565b6040516020016200018f919062000823565b60405160208183030381529060405260128260009080519060200190620001b8929190620003c7565b508160019080519060200190620001d1929190620003c7565b508060ff1660808160ff16815250504660a08181525050620001f86200026360201b60201c565b60c081815250505050508073ffffffffffffffffffffffffffffffffffffffff1660e08173ffffffffffffffffffffffffffffffffffffffff16815250506a084595161401484a0000006008819055506200025c30600854620002f360201b60201c565b5062000abf565b60007f8b73c3c69bb8fe3d512ecc4cf759cc79239f7b179b0ffacaa9a75d522b39400f600060405162000297919062000959565b60405180910390207fc89efdaa54c0f20c7adf612882df0950f5a951637e0307cdcb4c672f298b8bc64630604051602001620002d8959493929190620009b9565b60405160208183030381529060405280519060200120905090565b806002600082825462000307919062000a45565b9250508190555080600360008473ffffffffffffffffffffffffffffffffffffffff1673ffffffffffffffffffffffffffffffffffffffff168152602001908152602001600020600082825401925050819055508173ffffffffffffffffffffffffffffffffffffffff16600073ffffffffffffffffffffffffffffffffffffffff167fddf252ad1be2c89b69c2b068fc378daa952ba7f163c4a11628f55a4df523b3ef83604051620003bb919062000aa2565b60405180910390a35050565b828054620003d59062000878565b90600052602060002090601f016020900481019282620003f9576000855562000445565b82601f106200041457805160ff191683800117855562000445565b8280016001018555821562000445579182015b828111156200044457825182559160200191906001019062000427565b5b50905062000454919062000458565b5090565b5b808211156200047357600081600090555060010162000459565b5090565b6000604051905090565b600080fd5b600080fd5b600073ffffffffffffffffffffffffffffffffffffffff82169050919050565b6000620004b8826200048b565b9050919050565b6000620004cc82620004ab565b9050919050565b620004de81620004bf565b8114620004ea57600080fd5b50565b600081519050620004fe81620004d3565b92915050565b6000602082840312156200051d576200051c62000481565b5b60006200052d84828501620004ed565b91505092915050565b600080fd5b600080fd5b6000601f19601f8301169050919050565b7f4e487b7100000000000000000000000000000000000000000000000000000000600052604160045260246000fd5b6200058b8262000540565b810181811067ffffffffffffffff82111715620005ad57620005ac62000551565b5b80604052505050565b6000620005c262000477565b9050620005d0828262000580565b919050565b600067ffffffffffffffff821115620005f357620005f262000551565b5b620005fe8262000540565b9050602081019050919050565b60005b838110156200062b5780820151818401526020810190506200060e565b838111156200063b576000848401525b50505050565b6000620006586200065284620005d5565b620005b6565b9050828152602081018484840111156200067757620006766200053b565b5b620006848482856200060b565b509392505050565b600082601f830112620006a457620006a362000536565b5b8151620006b684826020860162000641565b91505092915050565b600060208284031215620006d857620006d762000481565b5b600082015167ffffffffffffffff811115620006f957620006f862000486565b5b62000707848285016200068c565b91505092915050565b600081905092915050565b7f506f776572656420557020000000000000000000000000000000000000000000600082015250565b600062000753600b8362000710565b915062000760826200071b565b600b82019050919050565b600081519050919050565b600062000783826200076b565b6200078f818562000710565b9350620007a18185602086016200060b565b80840191505092915050565b6000620007ba8262000744565b9150620007c8828462000776565b915081905092915050565b7f7000000000000000000000000000000000000000000000000000000000000000600082015250565b60006200080b60018362000710565b91506200081882620007d3565b600182019050919050565b60006200083082620007fc565b91506200083e828462000776565b915081905092915050565b7f4e487b7100000000000000000000000000000000000000000000000000000000600052602260045260246000fd5b600060028204905060018216806200089157607f821691505b60208210811415620008a857620008a762000849565b5b50919050565b600081905092915050565b60008190508160005260206000209050919050565b60008154620008dd8162000878565b620008e98186620008ae565b94506001821660008114620009075760018114620009195762000950565b60ff1983168652818601935062000950565b6200092485620008b9565b60005b83811015620009485781548189015260018201915060208101905062000927565b838801955050505b50505092915050565b6000620009678284620008ce565b915081905092915050565b6000819050919050565b620009878162000972565b82525050565b6000819050919050565b620009a2816200098d565b82525050565b620009b381620004ab565b82525050565b600060a082019050620009d060008301886200097c565b620009df60208301876200097c565b620009ee60408301866200097c565b620009fd606083018562000997565b62000a0c6080830184620009a8565b9695505050505050565b7f4e487b7100000000000000000000000000000000000000000000000000000000600052601160045260246000fd5b600062000a52826200098d565b915062000a5f836200098d565b9250827fffffffffffffffffffffffffffffffffffffffffffffffffffffffffffffffff0382111562000a975762000a9662000a16565b5b828201905092915050565b600060208201905062000ab9600083018462000997565b92915050565b60805160a05160c05160e0516128f362000b1c60003960008181610b1101528181610c3201528181610d1c01528181610f7b0152818161124e01526116e3015260006109cf0152600061099b0152600061097501526128f36000f3fe608060405234801561001057600080fd5b50600436106101c45760003560e01c806370a08231116100f9578063be2bf6f811610097578063f2439f0c11610071578063f2439f0c1461050f578063f2f4eb261461053f578063fc0c546a1461055d578063fd41c9c71461057b576101c4565b8063be2bf6f8146104a7578063d505accf146104c3578063dd62ed3e146104df576101c4565b8063a123c33e116100d3578063a123c33e1461041f578063a5a98d781461044f578063a9059cbb14610459578063be0522e014610489576101c4565b806370a08231146103a15780637ecebe00146103d157806395d89b4114610401576101c4565b80633644e51511610166578063553275be11610140578063553275be14610319578063586ffae81461034b57806366666aa91461036757806366ccfb6e14610385576101c4565b80633644e515146102bf578063437a8ae6146102dd57806347799da8146102fb576101c4565b806318160ddd116101a257806318160ddd1461023557806323b872dd146102535780632c4e722e14610283578063313ce567146102a1576101c4565b806306fdde03146101c9578063095ea7b3146101e75780630fb5a6b414610217575b600080fd5b6101d1610597565b6040516101de9190611c6e565b60405180910390f35b61020160048036038101906101fc9190611d29565b610625565b60405161020e9190611d84565b60405180910390f35b61021f610717565b60405161022c9190611dae565b60405180910390f35b61023d61071d565b60405161024a9190611dae565b60405180910390f35b61026d60048036038101906102689190611dc9565b610723565b60405161027a9190611d84565b60405180910390f35b61028b61096d565b6040516102989190611dae565b60405180910390f35b6102a9610973565b6040516102b69190611e38565b60405180910390f35b6102c7610997565b6040516102d49190611e6c565b60405180910390f35b6102e56109f4565b6040516102f29190611dae565b60405180910390f35b6103036109fa565b6040516103109190611dae565b60405180910390f35b610333600480360381019061032e9190611e87565b610a00565b60405161034293929190611ec3565b60405180910390f35b61036560048036038101906103609190611efa565b610a4a565b005b61036f610bee565b60405161037c9190611dae565b60405180910390f35b61039f600480360381019061039a9190611f3a565b610bf4565b005b6103bb60048036038101906103b69190611f7a565b610e07565b6040516103c89190611dae565b60405180910390f35b6103eb60048036038101906103e69190611f7a565b610e1f565b6040516103f89190611dae565b60405180910390f35b610409610e37565b6040516104169190611c6e565b60405180910390f35b61043960048036038101906104349190611e87565b610ec5565b6040516104469190611dae565b60405180910390f35b610457610edd565b005b610473600480360381019061046e9190611d29565b61106b565b6040516104809190611d84565b60405180910390f35b61049161117f565b60405161049e9190611dae565b60405180910390f35b6104c160048036038101906104bc9190611f3a565b611185565b005b6104dd60048036038101906104d89190611fff565b61134e565b005b6104f960048036038101906104f491906120a1565b611647565b6040516105069190611dae565b60405180910390f35b61052960048036038101906105249190611e87565b61166c565b6040516105369190611d84565b60405180910390f35b6105476116db565b6040516105549190611dae565b60405180910390f35b6105656116e1565b6040516105729190612140565b60405180910390f35b61059560048036038101906105909190611f3a565b611705565b005b600080546105a49061218a565b80601f01602080910402602001604051908101604052809291908181526020018280546105d09061218a565b801561061d5780601f106105f25761010080835404028352916020019161061d565b820191906000526020600020905b81548152906001019060200180831161060057829003601f168201915b505050505081565b600081600460003373ffffffffffffffffffffffffffffffffffffffff1673ffffffffffffffffffffffffffffffffffffffff16815260200190815260200160002060008573ffffffffffffffffffffffffffffffffffffffff1673ffffffffffffffffffffffffffffffffffffffff168152602001908152602001600020819055508273ffffffffffffffffffffffffffffffffffffffff163373ffffffffffffffffffffffffffffffffffffffff167f8c5be1e5ebec7d5bd14f71427d1e84f3dd0314c0f7b2291e5b200ac8c7c3b925846040516107059190611dae565b60405180910390a36001905092915050565b600b5481565b60025481565b600080600460008673ffffffffffffffffffffffffffffffffffffffff1673ffffffffffffffffffffffffffffffffffffffff16815260200190815260200160002060003373ffffffffffffffffffffffffffffffffffffffff1673ffffffffffffffffffffffffffffffffffffffff1681526020019081526020016000205490507fffffffffffffffffffffffffffffffffffffffffffffffffffffffffffffffff81146108595782816107d891906121eb565b600460008773ffffffffffffffffffffffffffffffffffffffff1673ffffffffffffffffffffffffffffffffffffffff16815260200190815260200160002060003373ffffffffffffffffffffffffffffffffffffffff1673ffffffffffffffffffffffffffffffffffffffff168152602001908152602001600020819055505b82600360008773ffffffffffffffffffffffffffffffffffffffff1673ffffffffffffffffffffffffffffffffffffffff16815260200190815260200160002060008282546108a891906121eb565b9250508190555082600360008673ffffffffffffffffffffffffffffffffffffffff1673ffffffffffffffffffffffffffffffffffffffff168152602001908152602001600020600082825401925050819055508373ffffffffffffffffffffffffffffffffffffffff168573ffffffffffffffffffffffffffffffffffffffff167fddf252ad1be2c89b69c2b068fc378daa952ba7f163c4a11628f55a4df523b3ef856040516109599190611dae565b60405180910390a360019150509392505050565b600c5481565b7f000000000000000000000000000000000000000000000000000000000000000081565b60007f000000000000000000000000000000000000000000000000000000000000000046146109cd576109c86118ef565b6109ef565b7f00000000000000000000000000000000000000000000000000000000000000005b905090565b600e5481565b600a5481565b60066020528060005260406000206000915090508060000160009054906101000a900473ffffffffffffffffffffffffffffffffffffffff16908060010154908060020154905083565b610a52611b9e565b81816000019073ffffffffffffffffffffffffffffffffffffffff16908173ffffffffffffffffffffffffffffffffffffffff1681525050806006600085815260200190815260200160002060008201518160000160006101000a81548173ffffffffffffffffffffffffffffffffffffffff021916908373ffffffffffffffffffffffffffffffffffffffff1602179055506020820151816001015560408201518160020155905050610b0f82681b1ae4d6e2ef50000061197b565b7f000000000000000000000000000000000000000000000000000000000000000073ffffffffffffffffffffffffffffffffffffffff166340c10f1930681b1ae4d6e2ef5000006040518363ffffffff1660e01b8152600401610b7392919061225a565b600060405180830381600087803b158015610b8d57600080fd5b505af1158015610ba1573d6000803e3d6000fd5b50505050828273ffffffffffffffffffffffffffffffffffffffff167f2a08ab3d12dd2274a5880242f4d8e507c798938a27b56ee6a8a6828e9d4cddb460405160405180910390a3505050565b60085481565b60006006600084815260200190815260200160002060000160009054906101000a900473ffffffffffffffffffffffffffffffffffffffff169050817f000000000000000000000000000000000000000000000000000000000000000073ffffffffffffffffffffffffffffffffffffffff166370a08231836040518263ffffffff1660e01b8152600401610c899190612283565b60206040518083038186803b158015610ca157600080fd5b505afa158015610cb5573d6000803e3d6000fd5b505050506040513d601f19601f82011682018060405250810190610cd991906122b3565b1015610d1a576040517f08c379a0000000000000000000000000000000000000000000000000000000008152600401610d119061232c565b60405180910390fd5b7f000000000000000000000000000000000000000000000000000000000000000073ffffffffffffffffffffffffffffffffffffffff166386731ff88230856040518463ffffffff1660e01b8152600401610d779392919061234c565b600060405180830381600087803b158015610d9157600080fd5b505af1158015610da5573d6000803e3d6000fd5b50505050610db3818361197b565b8073ffffffffffffffffffffffffffffffffffffffff16837f6053794844fb083c3cadb63a00ddef7ff8b7c16367fc70229748fa904d7f655c84604051610dfa9190611dae565b60405180910390a3505050565b60036020528060005260406000206000915090505481565b60056020528060005260406000206000915090505481565b60018054610e449061218a565b80601f0160208091040260200160405190810160405280929190818152602001828054610e709061218a565b8015610ebd5780601f10610e9257610100808354040283529160200191610ebd565b820191906000526020600020905b815481529060010190602001808311610ea057829003601f168201915b505050505081565b60076020528060005260406000206000915090505481565b60004290506000600b54600a5483610ef591906121eb565b610eff91906123b2565b9050600254600d8190555060005b81811015610f5d57600e54600c54600d54610f2891906123e3565b610f3291906123b2565b600d6000828254610f43919061243d565b925050819055508080610f5590612493565b915050610f0d565b50600254600d6000828254610f7291906121eb565b925050819055507f000000000000000000000000000000000000000000000000000000000000000073ffffffffffffffffffffffffffffffffffffffff166340c10f1930600d546040518363ffffffff1660e01b8152600401610fd69291906124dc565b600060405180830381600087803b158015610ff057600080fd5b505af1158015611004573d6000803e3d6000fd5b50505050600d546008600082825461101c919061243d565b9250508190555081600a819055507f4df34928a73fc3e550b40b9a054bd4f8f210ffbde0cfa807499993fa2d1715db600a54600d5460405161105f929190612505565b60405180910390a15050565b600081600360003373ffffffffffffffffffffffffffffffffffffffff1673ffffffffffffffffffffffffffffffffffffffff16815260200190815260200160002060008282546110bc91906121eb565b9250508190555081600360008573ffffffffffffffffffffffffffffffffffffffff1673ffffffffffffffffffffffffffffffffffffffff168152602001908152602001600020600082825401925050819055508273ffffffffffffffffffffffffffffffffffffffff163373ffffffffffffffffffffffffffffffffffffffff167fddf252ad1be2c89b69c2b068fc378daa952ba7f163c4a11628f55a4df523b3ef8460405161116d9190611dae565b60405180910390a36001905092915050565b600d5481565b60006006600084815260200190815260200160002060000160009054906101000a900473ffffffffffffffffffffffffffffffffffffffff16905081600360008373ffffffffffffffffffffffffffffffffffffffff1673ffffffffffffffffffffffffffffffffffffffff168152602001908152602001600020541015611242576040517f08c379a00000000000000000000000000000000000000000000000000000000081526004016112399061232c565b60405180910390fd5b61124c8183611a4b565b7f000000000000000000000000000000000000000000000000000000000000000073ffffffffffffffffffffffffffffffffffffffff1663a9059cbb82846040518363ffffffff1660e01b81526004016112a79291906124dc565b602060405180830381600087803b1580156112c157600080fd5b505af11580156112d5573d6000803e3d6000fd5b505050506040513d601f19601f820116820180604052508101906112f9919061255a565b508073ffffffffffffffffffffffffffffffffffffffff16837f2161c25a76b379e01c2eebcd077217a1bdcec52b712e9003af484a647148efda846040516113419190611dae565b60405180910390a3505050565b42841015611391576040517f08c379a0000000000000000000000000000000000000000000000000000000008152600401611388906125d3565b60405180910390fd5b6000600161139d610997565b7f6e71edae12b1b97f4d1f60370fef10105fa2faae0126114a169c64845d6126c98a8a8a600560008f73ffffffffffffffffffffffffffffffffffffffff1673ffffffffffffffffffffffffffffffffffffffff1681526020019081526020016000206000815480929190600101919050558b604051602001611425969594939291906125f3565b6040516020818303038152906040528051906020012060405160200161144c9291906126cc565b60405160208183030381529060405280519060200120858585604051600081526020016040526040516114829493929190612703565b6020604051602081039080840390855afa1580156114a4573d6000803e3d6000fd5b505050602060405103519050600073ffffffffffffffffffffffffffffffffffffffff168173ffffffffffffffffffffffffffffffffffffffff161415801561151857508773ffffffffffffffffffffffffffffffffffffffff168173ffffffffffffffffffffffffffffffffffffffff16145b611557576040517f08c379a000000000000000000000000000000000000000000000000000000000815260040161154e90612794565b60405180910390fd5b85600460008373ffffffffffffffffffffffffffffffffffffffff1673ffffffffffffffffffffffffffffffffffffffff16815260200190815260200160002060008973ffffffffffffffffffffffffffffffffffffffff1673ffffffffffffffffffffffffffffffffffffffff16815260200190815260200160002081905550508573ffffffffffffffffffffffffffffffffffffffff168773ffffffffffffffffffffffffffffffffffffffff167f8c5be1e5ebec7d5bd14f71427d1e84f3dd0314c0f7b2291e5b200ac8c7c3b925876040516116369190611dae565b60405180910390a350505050505050565b6004602052816000526040600020602052806000526040600020600091509150505481565b60008073ffffffffffffffffffffffffffffffffffffffff166006600084815260200190815260200160002060000160009054906101000a900473ffffffffffffffffffffffffffffffffffffffff1673ffffffffffffffffffffffffffffffffffffffff1614159050919050565b60095481565b7f000000000000000000000000000000000000000000000000000000000000000081565b61170d610edd565b61171682611b1b565b6000600660008481526020019081526020016000209050600081600101546064600360008560000160009054906101000a900473ffffffffffffffffffffffffffffffffffffffff1673ffffffffffffffffffffffffffffffffffffffff1673ffffffffffffffffffffffffffffffffffffffff168152602001908152602001600020546008546117a791906123b2565b6117b191906123b2565b6117bb91906123e3565b9050670de0b6b3a7640000816117d191906123e3565b90506118198260000160009054906101000a900473ffffffffffffffffffffffffffffffffffffffff16606460148461180a91906123e3565b61181491906123b2565b61197b565b6118716006600085815260200190815260200160002060000160009054906101000a900473ffffffffffffffffffffffffffffffffffffffff16606460508461186291906123e3565b61186c91906123b2565b61197b565b806008600082825461188391906121eb565b92505081905550428260020181905550600a8260010160008282546118a891906121eb565b925050819055504283857fac3b8ab89a07bbb8dd4670bcfe29ef7d4eccea237222f49f997884d89947d53d846040516118e19190611dae565b60405180910390a450505050565b60007f8b73c3c69bb8fe3d512ecc4cf759cc79239f7b179b0ffacaa9a75d522b39400f60006040516119219190612853565b60405180910390207fc89efdaa54c0f20c7adf612882df0950f5a951637e0307cdcb4c672f298b8bc6463060405160200161196095949392919061286a565b60405160208183030381529060405280519060200120905090565b806002600082825461198d919061243d565b9250508190555080600360008473ffffffffffffffffffffffffffffffffffffffff1673ffffffffffffffffffffffffffffffffffffffff168152602001908152602001600020600082825401925050819055508173ffffffffffffffffffffffffffffffffffffffff16600073ffffffffffffffffffffffffffffffffffffffff167fddf252ad1be2c89b69c2b068fc378daa952ba7f163c4a11628f55a4df523b3ef83604051611a3f9190611dae565b60405180910390a35050565b80600360008473ffffffffffffffffffffffffffffffffffffffff1673ffffffffffffffffffffffffffffffffffffffff1681526020019081526020016000206000828254611a9a91906121eb565b9250508190555080600260008282540392505081905550600073ffffffffffffffffffffffffffffffffffffffff168273ffffffffffffffffffffffffffffffffffffffff167fddf252ad1be2c89b69c2b068fc378daa952ba7f163c4a11628f55a4df523b3ef83604051611b0f9190611dae565b60405180910390a35050565b60006024600660008481526020019081526020016000206002015442611b4191906121eb565b611b4b91906123b2565b6006600084815260200190815260200160002060010154611b6c919061243d565b90506064811115611b7e576064611b80565b805b60066000848152602001908152602001600020600101819055505050565b6040518060600160405280600073ffffffffffffffffffffffffffffffffffffffff16815260200160008152602001600081525090565b600081519050919050565b600082825260208201905092915050565b60005b83811015611c0f578082015181840152602081019050611bf4565b83811115611c1e576000848401525b50505050565b6000601f19601f8301169050919050565b6000611c4082611bd5565b611c4a8185611be0565b9350611c5a818560208601611bf1565b611c6381611c24565b840191505092915050565b60006020820190508181036000830152611c888184611c35565b905092915050565b600080fd5b600073ffffffffffffffffffffffffffffffffffffffff82169050919050565b6000611cc082611c95565b9050919050565b611cd081611cb5565b8114611cdb57600080fd5b50565b600081359050611ced81611cc7565b92915050565b6000819050919050565b611d0681611cf3565b8114611d1157600080fd5b50565b600081359050611d2381611cfd565b92915050565b60008060408385031215611d4057611d3f611c90565b5b6000611d4e85828601611cde565b9250506020611d5f85828601611d14565b9150509250929050565b60008115159050919050565b611d7e81611d69565b82525050565b6000602082019050611d996000830184611d75565b92915050565b611da881611cf3565b82525050565b6000602082019050611dc36000830184611d9f565b92915050565b600080600060608486031215611de257611de1611c90565b5b6000611df086828701611cde565b9350506020611e0186828701611cde565b9250506040611e1286828701611d14565b9150509250925092565b600060ff82169050919050565b611e3281611e1c565b82525050565b6000602082019050611e4d6000830184611e29565b92915050565b6000819050919050565b611e6681611e53565b82525050565b6000602082019050611e816000830184611e5d565b92915050565b600060208284031215611e9d57611e9c611c90565b5b6000611eab84828501611d14565b91505092915050565b611ebd81611cb5565b82525050565b6000606082019050611ed86000830186611eb4565b611ee56020830185611d9f565b611ef26040830184611d9f565b949350505050565b60008060408385031215611f1157611f10611c90565b5b6000611f1f85828601611d14565b9250506020611f3085828601611cde565b9150509250929050565b60008060408385031215611f5157611f50611c90565b5b6000611f5f85828601611d14565b9250506020611f7085828601611d14565b9150509250929050565b600060208284031215611f9057611f8f611c90565b5b6000611f9e84828501611cde565b91505092915050565b611fb081611e1c565b8114611fbb57600080fd5b50565b600081359050611fcd81611fa7565b92915050565b611fdc81611e53565b8114611fe757600080fd5b50565b600081359050611ff981611fd3565b92915050565b600080600080600080600060e0888a03121561201e5761201d611c90565b5b600061202c8a828b01611cde565b975050602061203d8a828b01611cde565b965050604061204e8a828b01611d14565b955050606061205f8a828b01611d14565b94505060806120708a828b01611fbe565b93505060a06120818a828b01611fea565b92505060c06120928a828b01611fea565b91505092959891949750929550565b600080604083850312156120b8576120b7611c90565b5b60006120c685828601611cde565b92505060206120d785828601611cde565b9150509250929050565b6000819050919050565b60006121066121016120fc84611c95565b6120e1565b611c95565b9050919050565b6000612118826120eb565b9050919050565b600061212a8261210d565b9050919050565b61213a8161211f565b82525050565b60006020820190506121556000830184612131565b92915050565b7f4e487b7100000000000000000000000000000000000000000000000000000000600052602260045260246000fd5b600060028204905060018216806121a257607f821691505b602082108114156121b6576121b561215b565b5b50919050565b7f4e487b7100000000000000000000000000000000000000000000000000000000600052601160045260246000fd5b60006121f682611cf3565b915061220183611cf3565b925082821015612214576122136121bc565b5b828203905092915050565b6000819050919050565b600061224461223f61223a8461221f565b6120e1565b611cf3565b9050919050565b61225481612229565b82525050565b600060408201905061226f6000830185611eb4565b61227c602083018461224b565b9392505050565b60006020820190506122986000830184611eb4565b92915050565b6000815190506122ad81611cfd565b92915050565b6000602082840312156122c9576122c8611c90565b5b60006122d78482850161229e565b91505092915050565b7f494e53554646494349454e545f42414c414e4345000000000000000000000000600082015250565b6000612316601483611be0565b9150612321826122e0565b602082019050919050565b6000602082019050818103600083015261234581612309565b9050919050565b60006060820190506123616000830186611eb4565b61236e6020830185611eb4565b61237b6040830184611d9f565b949350505050565b7f4e487b7100000000000000000000000000000000000000000000000000000000600052601260045260246000fd5b60006123bd82611cf3565b91506123c883611cf3565b9250826123d8576123d7612383565b5b828204905092915050565b60006123ee82611cf3565b91506123f983611cf3565b9250817fffffffffffffffffffffffffffffffffffffffffffffffffffffffffffffffff0483118215151615612432576124316121bc565b5b828202905092915050565b600061244882611cf3565b915061245383611cf3565b9250827fffffffffffffffffffffffffffffffffffffffffffffffffffffffffffffffff03821115612488576124876121bc565b5b828201905092915050565b600061249e82611cf3565b91507fffffffffffffffffffffffffffffffffffffffffffffffffffffffffffffffff8214156124d1576124d06121bc565b5b600182019050919050565b60006040820190506124f16000830185611eb4565b6124fe6020830184611d9f565b9392505050565b600060408201905061251a6000830185611d9f565b6125276020830184611d9f565b9392505050565b61253781611d69565b811461254257600080fd5b50565b6000815190506125548161252e565b92915050565b6000602082840312156125705761256f611c90565b5b600061257e84828501612545565b91505092915050565b7f5045524d49545f444541444c494e455f45585049524544000000000000000000600082015250565b60006125bd601783611be0565b91506125c882612587565b602082019050919050565b600060208201905081810360008301526125ec816125b0565b9050919050565b600060c0820190506126086000830189611e5d565b6126156020830188611eb4565b6126226040830187611eb4565b61262f6060830186611d9f565b61263c6080830185611d9f565b61264960a0830184611d9f565b979650505050505050565b600081905092915050565b7f1901000000000000000000000000000000000000000000000000000000000000600082015250565b6000612695600283612654565b91506126a08261265f565b600282019050919050565b6000819050919050565b6126c66126c182611e53565b6126ab565b82525050565b60006126d782612688565b91506126e382856126b5565b6020820191506126f382846126b5565b6020820191508190509392505050565b60006080820190506127186000830187611e5d565b6127256020830186611e29565b6127326040830185611e5d565b61273f6060830184611e5d565b95945050505050565b7f494e56414c49445f5349474e4552000000000000000000000000000000000000600082015250565b600061277e600e83611be0565b915061278982612748565b602082019050919050565b600060208201905081810360008301526127ad81612771565b9050919050565b600081905092915050565b60008190508160005260206000209050919050565b600081546127e18161218a565b6127eb81866127b4565b9450600182166000811461280657600181146128175761284a565b60ff1983168652818601935061284a565b612820856127bf565b60005b8381101561284257815481890152600182019150602081019050612823565b838801955050505b50505092915050565b600061285f82846127d4565b915081905092915050565b600060a08201905061287f6000830188611e5d565b61288c6020830187611e5d565b6128996040830186611e5d565b6128a66060830185611d9f565b6128b36080830184611eb4565b969550505050505056fea2646970667358221220c6766f3b1ded14ca3ba2369f838657aa4eba0f9f5b530795ebe21f100adcacb964736f6c63430008090033",
  "linkReferences": {},
  "deployedLinkReferences": {}
}