{
  "_format": "hh-sol-artifact-1",
  "contractName": "ValuDAO",
  "sourceName": "contracts/ValuDAO.sol",
  "abi": [
    {
      "inputs": [
        {
          "internalType": "contract ISphereFactory",
          "name": "_factory",
          "type": "address"
        },
        {
          "internalType": "contract VALU",
          "name": "_valu",
          "type": "address"
        },
        {
          "internalType": "contract IAirdrop",
          "name": "_airdrop",
          "type": "address"
        }
      ],
      "stateMutability": "nonpayable",
      "type": "constructor"
    },
    {
      "anonymous": false,
      "inputs": [
        {
          "indexed": true,
          "internalType": "uint256",
          "name": "serverID",
          "type": "uint256"
        },
        {
          "indexed": true,
          "internalType": "address",
          "name": "token",
          "type": "address"
        },
        {
          "indexed": true,
          "internalType": "address",
          "name": "_sphere",
          "type": "address"
        },
        {
          "indexed": false,
          "internalType": "string",
          "name": "token_symbol",
          "type": "string"
        }
      ],
      "name": "SphereCreated",
      "type": "event"
    },
    {
      "inputs": [],
      "name": "airdrop",
      "outputs": [
        {
          "internalType": "contract IAirdrop",
          "name": "",
          "type": "address"
        }
      ],
      "stateMutability": "view",
      "type": "function"
    },
    {
      "inputs": [
        {
          "internalType": "uint256",
          "name": "server_id",
          "type": "uint256"
        },
        {
          "internalType": "uint256",
          "name": "discord_id",
          "type": "uint256"
        },
        {
          "internalType": "address",
          "name": "_address",
          "type": "address"
        }
      ],
      "name": "authenticate",
      "outputs": [],
      "stateMutability": "nonpayable",
      "type": "function"
    },
    {
      "inputs": [
        {
          "internalType": "uint256",
          "name": "server_id",
          "type": "uint256"
        },
        {
          "internalType": "address",
          "name": "receiver",
          "type": "address"
        },
        {
          "internalType": "uint256",
          "name": "root",
          "type": "uint256"
        },
        {
          "internalType": "uint256",
          "name": "nullifierHash",
          "type": "uint256"
        },
        {
          "internalType": "uint256[8]",
          "name": "proof",
          "type": "uint256[8]"
        }
      ],
      "name": "claim",
      "outputs": [],
      "stateMutability": "nonpayable",
      "type": "function"
    },
    {
      "inputs": [
        {
          "internalType": "uint256",
          "name": "server_id",
          "type": "uint256"
        },
        {
          "internalType": "string",
          "name": "token_name",
          "type": "string"
        },
        {
          "internalType": "string",
          "name": "token_symbol",
          "type": "string"
        }
      ],
      "name": "create",
      "outputs": [],
      "stateMutability": "nonpayable",
      "type": "function"
    },
    {
      "inputs": [
        {
          "internalType": "uint256",
          "name": "server_id",
          "type": "uint256"
        },
        {
          "internalType": "uint256",
          "name": "engager_id",
          "type": "uint256"
        },
        {
          "internalType": "uint256",
          "name": "engagee_id",
          "type": "uint256"
        }
      ],
      "name": "engage",
      "outputs": [],
      "stateMutability": "nonpayable",
      "type": "function"
    },
    {
      "inputs": [
        {
          "internalType": "uint256",
          "name": "server_id",
          "type": "uint256"
        },
        {
          "internalType": "uint256",
          "name": "discord_id",
          "type": "uint256"
        },
        {
          "internalType": "uint256",
          "name": "amount",
          "type": "uint256"
        }
      ],
      "name": "exit",
      "outputs": [],
      "stateMutability": "nonpayable",
      "type": "function"
    },
    {
      "inputs": [],
      "name": "factory",
      "outputs": [
        {
          "internalType": "contract ISphereFactory",
          "name": "",
          "type": "address"
        }
      ],
      "stateMutability": "view",
      "type": "function"
    },
    {
      "inputs": [
        {
          "internalType": "uint256",
          "name": "server_id",
          "type": "uint256"
        },
        {
          "internalType": "uint256",
          "name": "discord_id",
          "type": "uint256"
        }
      ],
      "name": "getAddress",
      "outputs": [
        {
          "internalType": "address",
          "name": "_address",
          "type": "address"
        }
      ],
      "stateMutability": "view",
      "type": "function"
    },
    {
      "inputs": [
        {
          "internalType": "uint256",
          "name": "server_id",
          "type": "uint256"
        },
        {
          "internalType": "uint256",
          "name": "discord_id",
          "type": "uint256"
        },
        {
          "internalType": "uint256",
          "name": "amount",
          "type": "uint256"
        }
      ],
      "name": "powerDown",
      "outputs": [],
      "stateMutability": "nonpayable",
      "type": "function"
    },
    {
      "inputs": [
        {
          "internalType": "uint256",
          "name": "server_id",
          "type": "uint256"
        },
        {
          "internalType": "uint256",
          "name": "discord_id",
          "type": "uint256"
        },
        {
          "internalType": "uint256",
          "name": "amount",
          "type": "uint256"
        }
      ],
      "name": "powerUp",
      "outputs": [],
      "stateMutability": "nonpayable",
      "type": "function"
    },
    {
      "inputs": [
        {
          "internalType": "uint256",
          "name": "server_id",
          "type": "uint256"
        }
      ],
      "name": "sphereCreated",
      "outputs": [
        {
          "internalType": "bool",
          "name": "exists",
          "type": "bool"
        }
      ],
      "stateMutability": "view",
      "type": "function"
    },
    {
      "inputs": [
        {
          "internalType": "uint256",
          "name": "",
          "type": "uint256"
        }
      ],
      "name": "spheres",
      "outputs": [
        {
          "internalType": "contract EngagementToken",
          "name": "token",
          "type": "address"
        },
        {
          "internalType": "address",
          "name": "council",
          "type": "address"
        },
        {
          "internalType": "contract ISphere",
          "name": "sphere",
          "type": "address"
        }
      ],
      "stateMutability": "view",
      "type": "function"
    },
    {
      "inputs": [
        {
          "internalType": "uint256",
          "name": "",
          "type": "uint256"
        }
      ],
      "name": "symbols",
      "outputs": [
        {
          "internalType": "bytes32",
          "name": "",
          "type": "bytes32"
        }
      ],
      "stateMutability": "view",
      "type": "function"
    },
    {
      "inputs": [],
      "name": "valu",
      "outputs": [
        {
          "internalType": "contract VALU",
          "name": "",
          "type": "address"
        }
      ],
      "stateMutability": "view",
      "type": "function"
    }
  ],
  "bytecode": "0x60e06040523480156200001157600080fd5b5060405162003ada38038062003ada833981810160405281019062000037919062000233565b8173ffffffffffffffffffffffffffffffffffffffff1660c08173ffffffffffffffffffffffffffffffffffffffff16815250508273ffffffffffffffffffffffffffffffffffffffff1660808173ffffffffffffffffffffffffffffffffffffffff16815250506000604051602001620000b290620002ea565b6040516020818303038152906040528051906020012090806001815401808255809150506001900390600052602060002001600090919091909150558073ffffffffffffffffffffffffffffffffffffffff1660a08173ffffffffffffffffffffffffffffffffffffffff168152505050505062000301565b600080fd5b600073ffffffffffffffffffffffffffffffffffffffff82169050919050565b60006200015d8262000130565b9050919050565b6000620001718262000150565b9050919050565b620001838162000164565b81146200018f57600080fd5b50565b600081519050620001a38162000178565b92915050565b6000620001b68262000150565b9050919050565b620001c881620001a9565b8114620001d457600080fd5b50565b600081519050620001e881620001bd565b92915050565b6000620001fb8262000150565b9050919050565b6200020d81620001ee565b81146200021957600080fd5b50565b6000815190506200022d8162000202565b92915050565b6000806000606084860312156200024f576200024e6200012b565b5b60006200025f8682870162000192565b93505060206200027286828701620001d7565b925050604062000285868287016200021c565b9150509250925092565b600081905092915050565b7f4d414e4100000000000000000000000000000000000000000000000000000000600082015250565b6000620002d26004836200028f565b9150620002df826200029a565b600482019050919050565b6000620002f782620002c3565b9150819050919050565b60805160a05160c05161377f6200035b60003960008181610478015281816107280152610837015260008181610327015281816104990152610abd01526000818161043a015281816105110152610bcb015261377f6000f3fe60806040523480156200001157600080fd5b5060043610620001005760003560e01c8063a41e6ceb1162000099578063ccce413b116200006f578063ccce413b1462000277578063e765469414620002ad578063eac4a06f14620002cd578063f47449df14620003055762000100565b8063a41e6ceb14620001ff578063ae5707bf146200021f578063c45a015514620002555762000100565b806361e0b25311620000db57806361e0b25314620001675780639262d759146200018957806392b332ed14620001bf5780639398b41714620001df5762000100565b80633884d635146200010557806339d8ad7014620001275780635a4463a81462000147575b600080fd5b6200010f62000325565b6040516200011e919062000ef0565b60405180910390f35b6200014560048036038101906200013f919062000f52565b62000349565b005b6200016560048036038101906200015f91906200101c565b620003f5565b005b6200017162000835565b604051620001809190620010e5565b60405180910390f35b620001a76004803603810190620001a1919062001102565b62000859565b604051620001b691906200116e565b60405180910390f35b620001dd6004803603810190620001d7919062000f52565b62000928565b005b620001fd6004803603810190620001f7919062000f52565b620009d4565b005b6200021d6004803603810190620002179190620011e1565b62000a80565b005b6200023d60048036038101906200023791906200126a565b62000b5a565b6040516200024c9190620012b9565b60405180910390f35b6200025f62000bc9565b6040516200026e9190620012fb565b60405180910390f35b6200029560048036038101906200028f91906200126a565b62000bed565b604051620002a4919062001333565b60405180910390f35b620002cb6004803603810190620002c5919062000f52565b62000c12565b005b620002eb6004803603810190620002e591906200126a565b62000cbe565b604051620002fc939291906200139a565b60405180910390f35b6200032360048036038101906200031d9190620013d7565b62000d48565b005b7f000000000000000000000000000000000000000000000000000000000000000081565b6001600084815260200190815260200160002060020160009054906101000a900473ffffffffffffffffffffffffffffffffffffffff1673ffffffffffffffffffffffffffffffffffffffff16632af9cc4183836040518363ffffffff1660e01b8152600401620003bc92919062001444565b600060405180830381600087803b158015620003d757600080fd5b505af1158015620003ec573d6000803e3d6000fd5b50505050505050565b600084848484604051620004099062000df4565b620004189493929190620014d5565b604051809103906000f08015801562000435573d6000803e3d6000fd5b5090507f000000000000000000000000000000000000000000000000000000000000000073ffffffffffffffffffffffffffffffffffffffff1663c125bdd787837f00000000000000000000000000000000000000000000000000000000000000007f00000000000000000000000000000000000000000000000000000000000000006040518563ffffffff1660e01b8152600401620004d9949392919062001514565b600060405180830381600087803b158015620004f457600080fd5b505af115801562000509573d6000803e3d6000fd5b5050505060007f000000000000000000000000000000000000000000000000000000000000000073ffffffffffffffffffffffffffffffffffffffff1663c271a766886040518263ffffffff1660e01b81526004016200056a919062001561565b60206040518083038186803b1580156200058357600080fd5b505afa15801562000598573d6000803e3d6000fd5b505050506040513d601f19601f82011682018060405250810190620005be919062001595565b9050620005ca62000e02565b82816000019073ffffffffffffffffffffffffffffffffffffffff16908173ffffffffffffffffffffffffffffffffffffffff168152505081816040019073ffffffffffffffffffffffffffffffffffffffff16908173ffffffffffffffffffffffffffffffffffffffff168152505080600160008a815260200190815260200160002060008201518160000160006101000a81548173ffffffffffffffffffffffffffffffffffffffff021916908373ffffffffffffffffffffffffffffffffffffffff16021790555060208201518160010160006101000a81548173ffffffffffffffffffffffffffffffffffffffff021916908373ffffffffffffffffffffffffffffffffffffffff16021790555060408201518160020160006101000a81548173ffffffffffffffffffffffffffffffffffffffff021916908373ffffffffffffffffffffffffffffffffffffffff1602179055509050507f000000000000000000000000000000000000000000000000000000000000000073ffffffffffffffffffffffffffffffffffffffff166340c10f198369021e19e0c9bab24000006040518363ffffffff1660e01b81526004016200078d9291906200160a565b600060405180830381600087803b158015620007a857600080fd5b505af1158015620007bd573d6000803e3d6000fd5b505050508173ffffffffffffffffffffffffffffffffffffffff168373ffffffffffffffffffffffffffffffffffffffff16897f4623bb0f38e22adc26eba9d9f229779f5799ab1efa57a5ea0661b0a40d7f780588886040516200082392919062001637565b60405180910390a45050505050505050565b7f000000000000000000000000000000000000000000000000000000000000000081565b60006001600084815260200190815260200160002060020160009054906101000a900473ffffffffffffffffffffffffffffffffffffffff1673ffffffffffffffffffffffffffffffffffffffff1663b93f9b0a836040518263ffffffff1660e01b8152600401620008cc919062001561565b60206040518083038186803b158015620008e557600080fd5b505afa158015620008fa573d6000803e3d6000fd5b505050506040513d601f19601f8201168201806040525081019062000920919062001595565b905092915050565b6001600084815260200190815260200160002060020160009054906101000a900473ffffffffffffffffffffffffffffffffffffffff1673ffffffffffffffffffffffffffffffffffffffff166366ccfb6e83836040518363ffffffff1660e01b81526004016200099b92919062001444565b600060405180830381600087803b158015620009b657600080fd5b505af1158015620009cb573d6000803e3d6000fd5b50505050505050565b6001600084815260200190815260200160002060020160009054906101000a900473ffffffffffffffffffffffffffffffffffffffff1673ffffffffffffffffffffffffffffffffffffffff1663be2bf6f883836040518363ffffffff1660e01b815260040162000a4792919062001444565b600060405180830381600087803b15801562000a6257600080fd5b505af115801562000a77573d6000803e3d6000fd5b50505050505050565b60006001600087815260200190815260200160002060020160009054906101000a900473ffffffffffffffffffffffffffffffffffffffff1690507f000000000000000000000000000000000000000000000000000000000000000073ffffffffffffffffffffffffffffffffffffffff16632be35ce882878787876040518663ffffffff1660e01b815260040162000b1e95949392919062001670565b600060405180830381600087803b15801562000b3957600080fd5b505af115801562000b4e573d6000803e3d6000fd5b50505050505050505050565b60008073ffffffffffffffffffffffffffffffffffffffff166001600084815260200190815260200160002060020160009054906101000a900473ffffffffffffffffffffffffffffffffffffffff1673ffffffffffffffffffffffffffffffffffffffff1614159050919050565b7f000000000000000000000000000000000000000000000000000000000000000081565b6000818154811062000bfe57600080fd5b906000526020600020016000915090505481565b6001600084815260200190815260200160002060020160009054906101000a900473ffffffffffffffffffffffffffffffffffffffff1673ffffffffffffffffffffffffffffffffffffffff1663fd41c9c783836040518363ffffffff1660e01b815260040162000c8592919062001444565b600060405180830381600087803b15801562000ca057600080fd5b505af115801562000cb5573d6000803e3d6000fd5b50505050505050565b60016020528060005260406000206000915090508060000160009054906101000a900473ffffffffffffffffffffffffffffffffffffffff16908060010160009054906101000a900473ffffffffffffffffffffffffffffffffffffffff16908060020160009054906101000a900473ffffffffffffffffffffffffffffffffffffffff16905083565b6001600084815260200190815260200160002060020160009054906101000a900473ffffffffffffffffffffffffffffffffffffffff1673ffffffffffffffffffffffffffffffffffffffff1663586ffae883836040518363ffffffff1660e01b815260040162000dbb929190620016ce565b600060405180830381600087803b15801562000dd657600080fd5b505af115801562000deb573d6000803e3d6000fd5b50505050505050565b61204e80620016fc83390190565b6040518060600160405280600073ffffffffffffffffffffffffffffffffffffffff168152602001600073ffffffffffffffffffffffffffffffffffffffff168152602001600073ffffffffffffffffffffffffffffffffffffffff1681525090565b600073ffffffffffffffffffffffffffffffffffffffff82169050919050565b6000819050919050565b600062000eb062000eaa62000ea48462000e65565b62000e85565b62000e65565b9050919050565b600062000ec48262000e8f565b9050919050565b600062000ed88262000eb7565b9050919050565b62000eea8162000ecb565b82525050565b600060208201905062000f07600083018462000edf565b92915050565b600080fd5b600080fd5b6000819050919050565b62000f2c8162000f17565b811462000f3857600080fd5b50565b60008135905062000f4c8162000f21565b92915050565b60008060006060848603121562000f6e5762000f6d62000f0d565b5b600062000f7e8682870162000f3b565b935050602062000f918682870162000f3b565b925050604062000fa48682870162000f3b565b9150509250925092565b600080fd5b600080fd5b600080fd5b60008083601f84011262000fd65762000fd562000fae565b5b8235905067ffffffffffffffff81111562000ff65762000ff562000fb3565b5b60208301915083600182028301111562001015576200101462000fb8565b5b9250929050565b6000806000806000606086880312156200103b576200103a62000f0d565b5b60006200104b8882890162000f3b565b955050602086013567ffffffffffffffff8111156200106f576200106e62000f12565b5b6200107d8882890162000fbd565b9450945050604086013567ffffffffffffffff811115620010a357620010a262000f12565b5b620010b18882890162000fbd565b92509250509295509295909350565b6000620010cd8262000eb7565b9050919050565b620010df81620010c0565b82525050565b6000602082019050620010fc6000830184620010d4565b92915050565b600080604083850312156200111c576200111b62000f0d565b5b60006200112c8582860162000f3b565b92505060206200113f8582860162000f3b565b9150509250929050565b6000620011568262000e65565b9050919050565b620011688162001149565b82525050565b60006020820190506200118560008301846200115d565b92915050565b620011968162001149565b8114620011a257600080fd5b50565b600081359050620011b6816200118b565b92915050565b600081905082602060080282011115620011db57620011da62000fb8565b5b92915050565b6000806000806000610180868803121562001201576200120062000f0d565b5b6000620012118882890162000f3b565b95505060206200122488828901620011a5565b9450506040620012378882890162000f3b565b93505060606200124a8882890162000f3b565b92505060806200125d88828901620011bc565b9150509295509295909350565b60006020828403121562001283576200128262000f0d565b5b6000620012938482850162000f3b565b91505092915050565b60008115159050919050565b620012b3816200129c565b82525050565b6000602082019050620012d06000830184620012a8565b92915050565b6000620012e38262000eb7565b9050919050565b620012f581620012d6565b82525050565b6000602082019050620013126000830184620012ea565b92915050565b6000819050919050565b6200132d8162001318565b82525050565b60006020820190506200134a600083018462001322565b92915050565b60006200135d8262000eb7565b9050919050565b6200136f8162001350565b82525050565b6000620013828262000eb7565b9050919050565b620013948162001375565b82525050565b6000606082019050620013b1600083018662001364565b620013c060208301856200115d565b620013cf604083018462001389565b949350505050565b600080600060608486031215620013f357620013f262000f0d565b5b6000620014038682870162000f3b565b9350506020620014168682870162000f3b565b92505060406200142986828701620011a5565b9150509250925092565b6200143e8162000f17565b82525050565b60006040820190506200145b600083018562001433565b6200146a602083018462001433565b9392505050565b600082825260208201905092915050565b82818337600083830152505050565b6000601f19601f8301169050919050565b6000620014b0838562001471565b9350620014bf83858462001482565b620014ca8362001491565b840190509392505050565b60006040820190508181036000830152620014f2818688620014a2565b9050818103602083015262001509818486620014a2565b905095945050505050565b60006080820190506200152b600083018762001433565b6200153a602083018662001364565b620015496040830185620010d4565b6200155860608301846200115d565b95945050505050565b600060208201905062001578600083018462001433565b92915050565b6000815190506200158f816200118b565b92915050565b600060208284031215620015ae57620015ad62000f0d565b5b6000620015be848285016200157e565b91505092915050565b6000819050919050565b6000620015f2620015ec620015e684620015c7565b62000e85565b62000f17565b9050919050565b6200160481620015d1565b82525050565b60006040820190506200162160008301856200115d565b620016306020830184620015f9565b9392505050565b6000602082019050818103600083015262001654818486620014a2565b90509392505050565b6200166c610100838362001482565b5050565b6000610180820190506200168860008301886200115d565b6200169760208301876200115d565b620016a6604083018662001433565b620016b5606083018562001433565b620016c460808301846200165d565b9695505050505050565b6000604082019050620016e5600083018562001433565b620016f460208301846200115d565b939250505056fe60e06040523480156200001157600080fd5b506040516200204e3803806200204e833981810160405281019062000037919062000382565b8181601282600090805190602001906200005392919062000135565b5081600190805190602001906200006c92919062000135565b508060ff1660808160ff16815250504660a0818152505062000093620000a560201b60201c565b60c08181525050505050505062000608565b60007f8b73c3c69bb8fe3d512ecc4cf759cc79239f7b179b0ffacaa9a75d522b39400f6000604051620000d9919062000517565b60405180910390207fc89efdaa54c0f20c7adf612882df0950f5a951637e0307cdcb4c672f298b8bc646306040516020016200011a959493929190620005ab565b60405160208183030381529060405280519060200120905090565b828054620001439062000436565b90600052602060002090601f016020900481019282620001675760008555620001b3565b82601f106200018257805160ff1916838001178555620001b3565b82800160010185558215620001b3579182015b82811115620001b257825182559160200191906001019062000195565b5b509050620001c29190620001c6565b5090565b5b80821115620001e1576000816000905550600101620001c7565b5090565b6000604051905090565b600080fd5b600080fd5b600080fd5b600080fd5b6000601f19601f8301169050919050565b7f4e487b7100000000000000000000000000000000000000000000000000000000600052604160045260246000fd5b6200024e8262000203565b810181811067ffffffffffffffff8211171562000270576200026f62000214565b5b80604052505050565b600062000285620001e5565b905062000293828262000243565b919050565b600067ffffffffffffffff821115620002b657620002b562000214565b5b620002c18262000203565b9050602081019050919050565b60005b83811015620002ee578082015181840152602081019050620002d1565b83811115620002fe576000848401525b50505050565b60006200031b620003158462000298565b62000279565b9050828152602081018484840111156200033a5762000339620001fe565b5b62000347848285620002ce565b509392505050565b600082601f830112620003675762000366620001f9565b5b81516200037984826020860162000304565b91505092915050565b600080604083850312156200039c576200039b620001ef565b5b600083015167ffffffffffffffff811115620003bd57620003bc620001f4565b5b620003cb858286016200034f565b925050602083015167ffffffffffffffff811115620003ef57620003ee620001f4565b5b620003fd858286016200034f565b9150509250929050565b7f4e487b7100000000000000000000000000000000000000000000000000000000600052602260045260246000fd5b600060028204905060018216806200044f57607f821691505b6020821081141562000466576200046562000407565b5b50919050565b600081905092915050565b60008190508160005260206000209050919050565b600081546200049b8162000436565b620004a781866200046c565b94506001821660008114620004c55760018114620004d7576200050e565b60ff198316865281860193506200050e565b620004e28562000477565b60005b838110156200050657815481890152600182019150602081019050620004e5565b838801955050505b50505092915050565b60006200052582846200048c565b915081905092915050565b6000819050919050565b620005458162000530565b82525050565b6000819050919050565b62000560816200054b565b82525050565b600073ffffffffffffffffffffffffffffffffffffffff82169050919050565b6000620005938262000566565b9050919050565b620005a58162000586565b82525050565b600060a082019050620005c260008301886200053a565b620005d160208301876200053a565b620005e060408301866200053a565b620005ef606083018562000555565b620005fe60808301846200059a565b9695505050505050565b60805160a05160c051611a1662000638600039600061074c01526000610718015260006106f20152611a166000f3fe608060405234801561001057600080fd5b50600436106100f55760003560e01c806370a08231116100975780639dc29fac116100665780639dc29fac14610288578063a9059cbb146102a4578063d505accf146102d4578063dd62ed3e146102f0576100f5565b806370a08231146101ee5780637ecebe001461021e57806386731ff81461024e57806395d89b411461026a576100f5565b806323b872dd116100d357806323b872dd14610166578063313ce567146101965780633644e515146101b457806340c10f19146101d2576100f5565b806306fdde03146100fa578063095ea7b31461011857806318160ddd14610148575b600080fd5b610102610320565b60405161010f9190611129565b60405180910390f35b610132600480360381019061012d91906111e4565b6103ae565b60405161013f919061123f565b60405180910390f35b6101506104a0565b60405161015d9190611269565b60405180910390f35b610180600480360381019061017b9190611284565b6104a6565b60405161018d919061123f565b60405180910390f35b61019e6106f0565b6040516101ab91906112f3565b60405180910390f35b6101bc610714565b6040516101c99190611327565b60405180910390f35b6101ec60048036038101906101e791906111e4565b610771565b005b61020860048036038101906102039190611342565b61077f565b6040516102159190611269565b60405180910390f35b61023860048036038101906102339190611342565b610797565b6040516102459190611269565b60405180910390f35b61026860048036038101906102639190611284565b6107af565b005b6102726107cb565b60405161027f9190611129565b60405180910390f35b6102a2600480360381019061029d91906111e4565b610859565b005b6102be60048036038101906102b991906111e4565b610867565b6040516102cb919061123f565b60405180910390f35b6102ee60048036038101906102e991906113c7565b61097b565b005b61030a60048036038101906103059190611469565b610c74565b6040516103179190611269565b60405180910390f35b6000805461032d906114d8565b80601f0160208091040260200160405190810160405280929190818152602001828054610359906114d8565b80156103a65780601f1061037b576101008083540402835291602001916103a6565b820191906000526020600020905b81548152906001019060200180831161038957829003601f168201915b505050505081565b600081600460003373ffffffffffffffffffffffffffffffffffffffff1673ffffffffffffffffffffffffffffffffffffffff16815260200190815260200160002060008573ffffffffffffffffffffffffffffffffffffffff1673ffffffffffffffffffffffffffffffffffffffff168152602001908152602001600020819055508273ffffffffffffffffffffffffffffffffffffffff163373ffffffffffffffffffffffffffffffffffffffff167f8c5be1e5ebec7d5bd14f71427d1e84f3dd0314c0f7b2291e5b200ac8c7c3b9258460405161048e9190611269565b60405180910390a36001905092915050565b60025481565b600080600460008673ffffffffffffffffffffffffffffffffffffffff1673ffffffffffffffffffffffffffffffffffffffff16815260200190815260200160002060003373ffffffffffffffffffffffffffffffffffffffff1673ffffffffffffffffffffffffffffffffffffffff1681526020019081526020016000205490507fffffffffffffffffffffffffffffffffffffffffffffffffffffffffffffffff81146105dc57828161055b9190611539565b600460008773ffffffffffffffffffffffffffffffffffffffff1673ffffffffffffffffffffffffffffffffffffffff16815260200190815260200160002060003373ffffffffffffffffffffffffffffffffffffffff1673ffffffffffffffffffffffffffffffffffffffff168152602001908152602001600020819055505b82600360008773ffffffffffffffffffffffffffffffffffffffff1673ffffffffffffffffffffffffffffffffffffffff168152602001908152602001600020600082825461062b9190611539565b9250508190555082600360008673ffffffffffffffffffffffffffffffffffffffff1673ffffffffffffffffffffffffffffffffffffffff168152602001908152602001600020600082825401925050819055508373ffffffffffffffffffffffffffffffffffffffff168573ffffffffffffffffffffffffffffffffffffffff167fddf252ad1be2c89b69c2b068fc378daa952ba7f163c4a11628f55a4df523b3ef856040516106dc9190611269565b60405180910390a360019150509392505050565b7f000000000000000000000000000000000000000000000000000000000000000081565b60007f0000000000000000000000000000000000000000000000000000000000000000461461074a57610745610c99565b61076c565b7f00000000000000000000000000000000000000000000000000000000000000005b905090565b61077b8282610d25565b5050565b60036020528060005260406000206000915090505481565b60056020528060005260406000206000915090505481565b6107ba838383610df5565b6107c58383836104a6565b50505050565b600180546107d8906114d8565b80601f0160208091040260200160405190810160405280929190818152602001828054610804906114d8565b80156108515780601f1061082657610100808354040283529160200191610851565b820191906000526020600020905b81548152906001019060200180831161083457829003601f168201915b505050505081565b6108638282610fc0565b5050565b600081600360003373ffffffffffffffffffffffffffffffffffffffff1673ffffffffffffffffffffffffffffffffffffffff16815260200190815260200160002060008282546108b89190611539565b9250508190555081600360008573ffffffffffffffffffffffffffffffffffffffff1673ffffffffffffffffffffffffffffffffffffffff168152602001908152602001600020600082825401925050819055508273ffffffffffffffffffffffffffffffffffffffff163373ffffffffffffffffffffffffffffffffffffffff167fddf252ad1be2c89b69c2b068fc378daa952ba7f163c4a11628f55a4df523b3ef846040516109699190611269565b60405180910390a36001905092915050565b428410156109be576040517f08c379a00000000000000000000000000000000000000000000000000000000081526004016109b5906115b9565b60405180910390fd5b600060016109ca610714565b7f6e71edae12b1b97f4d1f60370fef10105fa2faae0126114a169c64845d6126c98a8a8a600560008f73ffffffffffffffffffffffffffffffffffffffff1673ffffffffffffffffffffffffffffffffffffffff1681526020019081526020016000206000815480929190600101919050558b604051602001610a52969594939291906115e8565b60405160208183030381529060405280519060200120604051602001610a799291906116c1565b6040516020818303038152906040528051906020012085858560405160008152602001604052604051610aaf94939291906116f8565b6020604051602081039080840390855afa158015610ad1573d6000803e3d6000fd5b505050602060405103519050600073ffffffffffffffffffffffffffffffffffffffff168173ffffffffffffffffffffffffffffffffffffffff1614158015610b4557508773ffffffffffffffffffffffffffffffffffffffff168173ffffffffffffffffffffffffffffffffffffffff16145b610b84576040517f08c379a0000000000000000000000000000000000000000000000000000000008152600401610b7b90611789565b60405180910390fd5b85600460008373ffffffffffffffffffffffffffffffffffffffff1673ffffffffffffffffffffffffffffffffffffffff16815260200190815260200160002060008973ffffffffffffffffffffffffffffffffffffffff1673ffffffffffffffffffffffffffffffffffffffff16815260200190815260200160002081905550508573ffffffffffffffffffffffffffffffffffffffff168773ffffffffffffffffffffffffffffffffffffffff167f8c5be1e5ebec7d5bd14f71427d1e84f3dd0314c0f7b2291e5b200ac8c7c3b92587604051610c639190611269565b60405180910390a350505050505050565b6004602052816000526040600020602052806000526040600020600091509150505481565b60007f8b73c3c69bb8fe3d512ecc4cf759cc79239f7b179b0ffacaa9a75d522b39400f6000604051610ccb9190611848565b60405180910390207fc89efdaa54c0f20c7adf612882df0950f5a951637e0307cdcb4c672f298b8bc64630604051602001610d0a95949392919061185f565b60405160208183030381529060405280519060200120905090565b8060026000828254610d3791906118b2565b9250508190555080600360008473ffffffffffffffffffffffffffffffffffffffff1673ffffffffffffffffffffffffffffffffffffffff168152602001908152602001600020600082825401925050819055508173ffffffffffffffffffffffffffffffffffffffff16600073ffffffffffffffffffffffffffffffffffffffff167fddf252ad1be2c89b69c2b068fc378daa952ba7f163c4a11628f55a4df523b3ef83604051610de99190611269565b60405180910390a35050565b600073ffffffffffffffffffffffffffffffffffffffff168373ffffffffffffffffffffffffffffffffffffffff161415610e65576040517f08c379a0000000000000000000000000000000000000000000000000000000008152600401610e5c90611954565b60405180910390fd5b600073ffffffffffffffffffffffffffffffffffffffff168273ffffffffffffffffffffffffffffffffffffffff161415610ed5576040517f08c379a0000000000000000000000000000000000000000000000000000000008152600401610ecc906119c0565b60405180910390fd5b80600460008573ffffffffffffffffffffffffffffffffffffffff1673ffffffffffffffffffffffffffffffffffffffff16815260200190815260200160002060008473ffffffffffffffffffffffffffffffffffffffff1673ffffffffffffffffffffffffffffffffffffffff168152602001908152602001600020819055508173ffffffffffffffffffffffffffffffffffffffff168373ffffffffffffffffffffffffffffffffffffffff167f8c5be1e5ebec7d5bd14f71427d1e84f3dd0314c0f7b2291e5b200ac8c7c3b92583604051610fb39190611269565b60405180910390a3505050565b80600360008473ffffffffffffffffffffffffffffffffffffffff1673ffffffffffffffffffffffffffffffffffffffff168152602001908152602001600020600082825461100f9190611539565b9250508190555080600260008282540392505081905550600073ffffffffffffffffffffffffffffffffffffffff168273ffffffffffffffffffffffffffffffffffffffff167fddf252ad1be2c89b69c2b068fc378daa952ba7f163c4a11628f55a4df523b3ef836040516110849190611269565b60405180910390a35050565b600081519050919050565b600082825260208201905092915050565b60005b838110156110ca5780820151818401526020810190506110af565b838111156110d9576000848401525b50505050565b6000601f19601f8301169050919050565b60006110fb82611090565b611105818561109b565b93506111158185602086016110ac565b61111e816110df565b840191505092915050565b6000602082019050818103600083015261114381846110f0565b905092915050565b600080fd5b600073ffffffffffffffffffffffffffffffffffffffff82169050919050565b600061117b82611150565b9050919050565b61118b81611170565b811461119657600080fd5b50565b6000813590506111a881611182565b92915050565b6000819050919050565b6111c1816111ae565b81146111cc57600080fd5b50565b6000813590506111de816111b8565b92915050565b600080604083850312156111fb576111fa61114b565b5b600061120985828601611199565b925050602061121a858286016111cf565b9150509250929050565b60008115159050919050565b61123981611224565b82525050565b60006020820190506112546000830184611230565b92915050565b611263816111ae565b82525050565b600060208201905061127e600083018461125a565b92915050565b60008060006060848603121561129d5761129c61114b565b5b60006112ab86828701611199565b93505060206112bc86828701611199565b92505060406112cd868287016111cf565b9150509250925092565b600060ff82169050919050565b6112ed816112d7565b82525050565b600060208201905061130860008301846112e4565b92915050565b6000819050919050565b6113218161130e565b82525050565b600060208201905061133c6000830184611318565b92915050565b6000602082840312156113585761135761114b565b5b600061136684828501611199565b91505092915050565b611378816112d7565b811461138357600080fd5b50565b6000813590506113958161136f565b92915050565b6113a48161130e565b81146113af57600080fd5b50565b6000813590506113c18161139b565b92915050565b600080600080600080600060e0888a0312156113e6576113e561114b565b5b60006113f48a828b01611199565b97505060206114058a828b01611199565b96505060406114168a828b016111cf565b95505060606114278a828b016111cf565b94505060806114388a828b01611386565b93505060a06114498a828b016113b2565b92505060c061145a8a828b016113b2565b91505092959891949750929550565b600080604083850312156114805761147f61114b565b5b600061148e85828601611199565b925050602061149f85828601611199565b9150509250929050565b7f4e487b7100000000000000000000000000000000000000000000000000000000600052602260045260246000fd5b600060028204905060018216806114f057607f821691505b60208210811415611504576115036114a9565b5b50919050565b7f4e487b7100000000000000000000000000000000000000000000000000000000600052601160045260246000fd5b6000611544826111ae565b915061154f836111ae565b9250828210156115625761156161150a565b5b828203905092915050565b7f5045524d49545f444541444c494e455f45585049524544000000000000000000600082015250565b60006115a360178361109b565b91506115ae8261156d565b602082019050919050565b600060208201905081810360008301526115d281611596565b9050919050565b6115e281611170565b82525050565b600060c0820190506115fd6000830189611318565b61160a60208301886115d9565b61161760408301876115d9565b611624606083018661125a565b611631608083018561125a565b61163e60a083018461125a565b979650505050505050565b600081905092915050565b7f1901000000000000000000000000000000000000000000000000000000000000600082015250565b600061168a600283611649565b915061169582611654565b600282019050919050565b6000819050919050565b6116bb6116b68261130e565b6116a0565b82525050565b60006116cc8261167d565b91506116d882856116aa565b6020820191506116e882846116aa565b6020820191508190509392505050565b600060808201905061170d6000830187611318565b61171a60208301866112e4565b6117276040830185611318565b6117346060830184611318565b95945050505050565b7f494e56414c49445f5349474e4552000000000000000000000000000000000000600082015250565b6000611773600e8361109b565b915061177e8261173d565b602082019050919050565b600060208201905081810360008301526117a281611766565b9050919050565b600081905092915050565b60008190508160005260206000209050919050565b600081546117d6816114d8565b6117e081866117a9565b945060018216600081146117fb576001811461180c5761183f565b60ff1983168652818601935061183f565b611815856117b4565b60005b8381101561183757815481890152600182019150602081019050611818565b838801955050505b50505092915050565b600061185482846117c9565b915081905092915050565b600060a0820190506118746000830188611318565b6118816020830187611318565b61188e6040830186611318565b61189b606083018561125a565b6118a860808301846115d9565b9695505050505050565b60006118bd826111ae565b91506118c8836111ae565b9250827fffffffffffffffffffffffffffffffffffffffffffffffffffffffffffffffff038211156118fd576118fc61150a565b5b828201905092915050565b7f5a45524f5f414444524553535f4f574e45520000000000000000000000000000600082015250565b600061193e60128361109b565b915061194982611908565b602082019050919050565b6000602082019050818103600083015261196d81611931565b9050919050565b7f5a45524f5f414444524553535f5350454e444552000000000000000000000000600082015250565b60006119aa60148361109b565b91506119b582611974565b602082019050919050565b600060208201905081810360008301526119d98161199d565b905091905056fea2646970667358221220cff1adcec3aa70d03b30eccd75a4178d9e05a1c3aeed9b341fb9e680213a348864736f6c63430008090033a264697066735822122022ef8874b94bb9a026f6449d1e6df7ac9824718ab9e122cef72dc77ae01c595a64736f6c63430008090033",
  "linkReferences": {},
  "deployedLinkReferences": {}
}