{
  "_format": "hh-sol-artifact-1",
  "contractName": "ValuDAO",
  "sourceName": "contracts/ValuDAO.sol",
  "abi": [
    {
      "inputs": [
        {
          "internalType": "contract ISphereFactory",
          "name": "_factory",
          "type": "address"
        }
      ],
      "stateMutability": "nonpayable",
      "type": "constructor"
    },
    {
      "anonymous": false,
      "inputs": [
        {
          "indexed": true,
          "internalType": "uint256",
          "name": "serverID",
          "type": "uint256"
        },
        {
          "indexed": true,
          "internalType": "address",
          "name": "token",
          "type": "address"
        },
        {
          "indexed": true,
          "internalType": "address",
          "name": "_sphere",
          "type": "address"
        },
        {
          "indexed": false,
          "internalType": "string",
          "name": "token_symbol",
          "type": "string"
        }
      ],
      "name": "SphereCreated",
      "type": "event"
    },
    {
      "inputs": [
        {
          "internalType": "uint256",
          "name": "server_id",
          "type": "uint256"
        },
        {
          "internalType": "uint256",
          "name": "discord_id",
          "type": "uint256"
        },
        {
          "internalType": "address",
          "name": "_address",
          "type": "address"
        }
      ],
      "name": "authenticate",
      "outputs": [],
      "stateMutability": "nonpayable",
      "type": "function"
    },
    {
      "inputs": [
        {
          "internalType": "uint256",
          "name": "server_id",
          "type": "uint256"
        },
        {
          "internalType": "string",
          "name": "token_name",
          "type": "string"
        },
        {
          "internalType": "string",
          "name": "token_symbol",
          "type": "string"
        }
      ],
      "name": "create",
      "outputs": [],
      "stateMutability": "nonpayable",
      "type": "function"
    },
    {
      "inputs": [
        {
          "internalType": "uint256",
          "name": "server_id",
          "type": "uint256"
        },
        {
          "internalType": "uint256",
          "name": "engager_id",
          "type": "uint256"
        },
        {
          "internalType": "uint256",
          "name": "engagee_id",
          "type": "uint256"
        }
      ],
      "name": "engage",
      "outputs": [],
      "stateMutability": "nonpayable",
      "type": "function"
    },
    {
      "inputs": [],
      "name": "factory",
      "outputs": [
        {
          "internalType": "contract ISphereFactory",
          "name": "",
          "type": "address"
        }
      ],
      "stateMutability": "view",
      "type": "function"
    },
    {
      "inputs": [
        {
          "internalType": "uint256",
          "name": "server_id",
          "type": "uint256"
        },
        {
          "internalType": "uint256",
          "name": "discord_id",
          "type": "uint256"
        }
      ],
      "name": "isAuthenticated",
      "outputs": [
        {
          "internalType": "bool",
          "name": "authenticated",
          "type": "bool"
        }
      ],
      "stateMutability": "view",
      "type": "function"
    },
    {
      "inputs": [
        {
          "internalType": "uint256",
          "name": "server_id",
          "type": "uint256"
        },
        {
          "internalType": "uint256",
          "name": "discord_id",
          "type": "uint256"
        },
        {
          "internalType": "uint256",
          "name": "amount",
          "type": "uint256"
        }
      ],
      "name": "powerDown",
      "outputs": [],
      "stateMutability": "nonpayable",
      "type": "function"
    },
    {
      "inputs": [
        {
          "internalType": "uint256",
          "name": "server_id",
          "type": "uint256"
        },
        {
          "internalType": "uint256",
          "name": "discord_id",
          "type": "uint256"
        },
        {
          "internalType": "uint256",
          "name": "amount",
          "type": "uint256"
        }
      ],
      "name": "powerUp",
      "outputs": [],
      "stateMutability": "nonpayable",
      "type": "function"
    },
    {
      "inputs": [
        {
          "internalType": "uint256",
          "name": "server_id",
          "type": "uint256"
        }
      ],
      "name": "sphereCreated",
      "outputs": [
        {
          "internalType": "bool",
          "name": "exists",
          "type": "bool"
        }
      ],
      "stateMutability": "view",
      "type": "function"
    },
    {
      "inputs": [
        {
          "internalType": "uint256",
          "name": "",
          "type": "uint256"
        }
      ],
      "name": "spheres",
      "outputs": [
        {
          "internalType": "contract Token",
          "name": "token",
          "type": "address"
        },
        {
          "internalType": "address",
          "name": "council",
          "type": "address"
        },
        {
          "internalType": "contract ISphere",
          "name": "sphere",
          "type": "address"
        }
      ],
      "stateMutability": "view",
      "type": "function"
    },
    {
      "inputs": [
        {
          "internalType": "uint256",
          "name": "",
          "type": "uint256"
        }
      ],
      "name": "symbols",
      "outputs": [
        {
          "internalType": "bytes32",
          "name": "",
          "type": "bytes32"
        }
      ],
      "stateMutability": "view",
      "type": "function"
    }
  ],
  "bytecode": "0x60a06040523480156200001157600080fd5b50604051620033153803806200331583398181016040528101906200003791906200013f565b8073ffffffffffffffffffffffffffffffffffffffff1660808173ffffffffffffffffffffffffffffffffffffffff168152505060006040516020016200007e90620001cc565b60405160208183030381529060405280519060200120908060018154018082558091505060019003906000526020600020016000909190919091505550620001e3565b600080fd5b600073ffffffffffffffffffffffffffffffffffffffff82169050919050565b6000620000f382620000c6565b9050919050565b60006200010782620000e6565b9050919050565b6200011981620000fa565b81146200012557600080fd5b50565b60008151905062000139816200010e565b92915050565b600060208284031215620001585762000157620000c1565b5b6000620001688482850162000128565b91505092915050565b600081905092915050565b7f4d414e4100000000000000000000000000000000000000000000000000000000600082015250565b6000620001b460048362000171565b9150620001c1826200017c565b600482019050919050565b6000620001d982620001a5565b9150819050919050565b6080516131086200020d6000396000818161029201528181610325015261077701526131086000f3fe60806040523480156200001157600080fd5b5060043610620000ac5760003560e01c8063ccce413b116200006f578063ccce413b1462000169578063e06ffda9146200019f578063e765469414620001d5578063eac4a06f14620001f5578063f47449df146200022d57620000ac565b80635a4463a814620000b157806392b332ed14620000d15780639398b41714620000f1578063ae5707bf1462000111578063c45a01551462000147575b600080fd5b620000cf6004803603810190620000c9919062000b93565b6200024d565b005b620000ef6004803603810190620000e9919062000c37565b620005ae565b005b6200010f600480360381019062000109919062000c37565b6200065a565b005b6200012f600480360381019062000129919062000c93565b62000706565b6040516200013e919062000ce2565b60405180910390f35b6200015162000775565b60405162000160919062000d8a565b60405180910390f35b62000187600480360381019062000181919062000c93565b62000799565b60405162000196919062000dc2565b60405180910390f35b620001bd6004803603810190620001b7919062000ddf565b620007be565b604051620001cc919062000ce2565b60405180910390f35b620001f36004803603810190620001ed919062000c37565b6200088d565b005b6200021360048036038101906200020d919062000c93565b62000939565b604051620002249392919062000e95565b60405180910390f35b6200024b600480360381019062000245919062000f03565b620009c3565b005b600084848484604051620002619062000a6f565b62000270949392919062000fc3565b604051809103906000f0801580156200028d573d6000803e3d6000fd5b5090507f000000000000000000000000000000000000000000000000000000000000000073ffffffffffffffffffffffffffffffffffffffff1663f01fe69287836040518363ffffffff1660e01b8152600401620002ed92919062001013565b600060405180830381600087803b1580156200030857600080fd5b505af11580156200031d573d6000803e3d6000fd5b5050505060007f000000000000000000000000000000000000000000000000000000000000000073ffffffffffffffffffffffffffffffffffffffff1663c271a766886040518263ffffffff1660e01b81526004016200037e919062001040565b60206040518083038186803b1580156200039757600080fd5b505afa158015620003ac573d6000803e3d6000fd5b505050506040513d601f19601f82011682018060405250810190620003d2919062001074565b9050620003de62000a7d565b82816000019073ffffffffffffffffffffffffffffffffffffffff16908173ffffffffffffffffffffffffffffffffffffffff168152505081816040019073ffffffffffffffffffffffffffffffffffffffff16908173ffffffffffffffffffffffffffffffffffffffff168152505080600160008a815260200190815260200160002060008201518160000160006101000a81548173ffffffffffffffffffffffffffffffffffffffff021916908373ffffffffffffffffffffffffffffffffffffffff16021790555060208201518160010160006101000a81548173ffffffffffffffffffffffffffffffffffffffff021916908373ffffffffffffffffffffffffffffffffffffffff16021790555060408201518160020160006101000a81548173ffffffffffffffffffffffffffffffffffffffff021916908373ffffffffffffffffffffffffffffffffffffffff1602179055509050508173ffffffffffffffffffffffffffffffffffffffff168373ffffffffffffffffffffffffffffffffffffffff16897f4623bb0f38e22adc26eba9d9f229779f5799ab1efa57a5ea0661b0a40d7f780588886040516200059c929190620010a6565b60405180910390a45050505050505050565b6001600084815260200190815260200160002060020160009054906101000a900473ffffffffffffffffffffffffffffffffffffffff1673ffffffffffffffffffffffffffffffffffffffff166366ccfb6e83836040518363ffffffff1660e01b815260040162000621929190620010cc565b600060405180830381600087803b1580156200063c57600080fd5b505af115801562000651573d6000803e3d6000fd5b50505050505050565b6001600084815260200190815260200160002060020160009054906101000a900473ffffffffffffffffffffffffffffffffffffffff1673ffffffffffffffffffffffffffffffffffffffff1663be2bf6f883836040518363ffffffff1660e01b8152600401620006cd929190620010cc565b600060405180830381600087803b158015620006e857600080fd5b505af1158015620006fd573d6000803e3d6000fd5b50505050505050565b60008073ffffffffffffffffffffffffffffffffffffffff166001600084815260200190815260200160002060020160009054906101000a900473ffffffffffffffffffffffffffffffffffffffff1673ffffffffffffffffffffffffffffffffffffffff1614159050919050565b7f000000000000000000000000000000000000000000000000000000000000000081565b60008181548110620007aa57600080fd5b906000526020600020016000915090505481565b60006001600084815260200190815260200160002060020160009054906101000a900473ffffffffffffffffffffffffffffffffffffffff1673ffffffffffffffffffffffffffffffffffffffff1663f2439f0c836040518263ffffffff1660e01b815260040162000831919062001040565b60206040518083038186803b1580156200084a57600080fd5b505afa1580156200085f573d6000803e3d6000fd5b505050506040513d601f19601f820116820180604052508101906200088591906200112a565b905092915050565b6001600084815260200190815260200160002060020160009054906101000a900473ffffffffffffffffffffffffffffffffffffffff1673ffffffffffffffffffffffffffffffffffffffff1663fd41c9c783836040518363ffffffff1660e01b815260040162000900929190620010cc565b600060405180830381600087803b1580156200091b57600080fd5b505af115801562000930573d6000803e3d6000fd5b50505050505050565b60016020528060005260406000206000915090508060000160009054906101000a900473ffffffffffffffffffffffffffffffffffffffff16908060010160009054906101000a900473ffffffffffffffffffffffffffffffffffffffff16908060020160009054906101000a900473ffffffffffffffffffffffffffffffffffffffff16905083565b6001600084815260200190815260200160002060020160009054906101000a900473ffffffffffffffffffffffffffffffffffffffff1673ffffffffffffffffffffffffffffffffffffffff1663586ffae883836040518363ffffffff1660e01b815260040162000a369291906200115c565b600060405180830381600087803b15801562000a5157600080fd5b505af115801562000a66573d6000803e3d6000fd5b50505050505050565b611f49806200118a83390190565b6040518060600160405280600073ffffffffffffffffffffffffffffffffffffffff168152602001600073ffffffffffffffffffffffffffffffffffffffff168152602001600073ffffffffffffffffffffffffffffffffffffffff1681525090565b600080fd5b600080fd5b6000819050919050565b62000aff8162000aea565b811462000b0b57600080fd5b50565b60008135905062000b1f8162000af4565b92915050565b600080fd5b600080fd5b600080fd5b60008083601f84011262000b4d5762000b4c62000b25565b5b8235905067ffffffffffffffff81111562000b6d5762000b6c62000b2a565b5b60208301915083600182028301111562000b8c5762000b8b62000b2f565b5b9250929050565b60008060008060006060868803121562000bb25762000bb162000ae0565b5b600062000bc28882890162000b0e565b955050602086013567ffffffffffffffff81111562000be65762000be562000ae5565b5b62000bf48882890162000b34565b9450945050604086013567ffffffffffffffff81111562000c1a5762000c1962000ae5565b5b62000c288882890162000b34565b92509250509295509295909350565b60008060006060848603121562000c535762000c5262000ae0565b5b600062000c638682870162000b0e565b935050602062000c768682870162000b0e565b925050604062000c898682870162000b0e565b9150509250925092565b60006020828403121562000cac5762000cab62000ae0565b5b600062000cbc8482850162000b0e565b91505092915050565b60008115159050919050565b62000cdc8162000cc5565b82525050565b600060208201905062000cf9600083018462000cd1565b92915050565b600073ffffffffffffffffffffffffffffffffffffffff82169050919050565b6000819050919050565b600062000d4a62000d4462000d3e8462000cff565b62000d1f565b62000cff565b9050919050565b600062000d5e8262000d29565b9050919050565b600062000d728262000d51565b9050919050565b62000d848162000d65565b82525050565b600060208201905062000da1600083018462000d79565b92915050565b6000819050919050565b62000dbc8162000da7565b82525050565b600060208201905062000dd9600083018462000db1565b92915050565b6000806040838503121562000df95762000df862000ae0565b5b600062000e098582860162000b0e565b925050602062000e1c8582860162000b0e565b9150509250929050565b600062000e338262000d51565b9050919050565b62000e458162000e26565b82525050565b600062000e588262000cff565b9050919050565b62000e6a8162000e4b565b82525050565b600062000e7d8262000d51565b9050919050565b62000e8f8162000e70565b82525050565b600060608201905062000eac600083018662000e3a565b62000ebb602083018562000e5f565b62000eca604083018462000e84565b949350505050565b62000edd8162000e4b565b811462000ee957600080fd5b50565b60008135905062000efd8162000ed2565b92915050565b60008060006060848603121562000f1f5762000f1e62000ae0565b5b600062000f2f8682870162000b0e565b935050602062000f428682870162000b0e565b925050604062000f558682870162000eec565b9150509250925092565b600082825260208201905092915050565b82818337600083830152505050565b6000601f19601f8301169050919050565b600062000f9e838562000f5f565b935062000fad83858462000f70565b62000fb88362000f7f565b840190509392505050565b6000604082019050818103600083015262000fe081868862000f90565b9050818103602083015262000ff781848662000f90565b905095945050505050565b6200100d8162000aea565b82525050565b60006040820190506200102a600083018562001002565b62001039602083018462000e3a565b9392505050565b600060208201905062001057600083018462001002565b92915050565b6000815190506200106e8162000ed2565b92915050565b6000602082840312156200108d576200108c62000ae0565b5b60006200109d848285016200105d565b91505092915050565b60006020820190508181036000830152620010c381848662000f90565b90509392505050565b6000604082019050620010e3600083018562001002565b620010f2602083018462001002565b9392505050565b620011048162000cc5565b81146200111057600080fd5b50565b6000815190506200112481620010f9565b92915050565b60006020828403121562001143576200114262000ae0565b5b6000620011538482850162001113565b91505092915050565b600060408201905062001173600083018562001002565b62001182602083018462000e5f565b939250505056fe60e06040523480156200001157600080fd5b5060405162001f4938038062001f49833981810160405281019062000037919062000382565b8181601282600090805190602001906200005392919062000135565b5081600190805190602001906200006c92919062000135565b508060ff1660808160ff16815250504660a0818152505062000093620000a560201b60201c565b60c08181525050505050505062000608565b60007f8b73c3c69bb8fe3d512ecc4cf759cc79239f7b179b0ffacaa9a75d522b39400f6000604051620000d9919062000517565b60405180910390207fc89efdaa54c0f20c7adf612882df0950f5a951637e0307cdcb4c672f298b8bc646306040516020016200011a959493929190620005ab565b60405160208183030381529060405280519060200120905090565b828054620001439062000436565b90600052602060002090601f016020900481019282620001675760008555620001b3565b82601f106200018257805160ff1916838001178555620001b3565b82800160010185558215620001b3579182015b82811115620001b257825182559160200191906001019062000195565b5b509050620001c29190620001c6565b5090565b5b80821115620001e1576000816000905550600101620001c7565b5090565b6000604051905090565b600080fd5b600080fd5b600080fd5b600080fd5b6000601f19601f8301169050919050565b7f4e487b7100000000000000000000000000000000000000000000000000000000600052604160045260246000fd5b6200024e8262000203565b810181811067ffffffffffffffff8211171562000270576200026f62000214565b5b80604052505050565b600062000285620001e5565b905062000293828262000243565b919050565b600067ffffffffffffffff821115620002b657620002b562000214565b5b620002c18262000203565b9050602081019050919050565b60005b83811015620002ee578082015181840152602081019050620002d1565b83811115620002fe576000848401525b50505050565b60006200031b620003158462000298565b62000279565b9050828152602081018484840111156200033a5762000339620001fe565b5b62000347848285620002ce565b509392505050565b600082601f830112620003675762000366620001f9565b5b81516200037984826020860162000304565b91505092915050565b600080604083850312156200039c576200039b620001ef565b5b600083015167ffffffffffffffff811115620003bd57620003bc620001f4565b5b620003cb858286016200034f565b925050602083015167ffffffffffffffff811115620003ef57620003ee620001f4565b5b620003fd858286016200034f565b9150509250929050565b7f4e487b7100000000000000000000000000000000000000000000000000000000600052602260045260246000fd5b600060028204905060018216806200044f57607f821691505b6020821081141562000466576200046562000407565b5b50919050565b600081905092915050565b60008190508160005260206000209050919050565b600081546200049b8162000436565b620004a781866200046c565b94506001821660008114620004c55760018114620004d7576200050e565b60ff198316865281860193506200050e565b620004e28562000477565b60005b838110156200050657815481890152600182019150602081019050620004e5565b838801955050505b50505092915050565b60006200052582846200048c565b915081905092915050565b6000819050919050565b620005458162000530565b82525050565b6000819050919050565b62000560816200054b565b82525050565b600073ffffffffffffffffffffffffffffffffffffffff82169050919050565b6000620005938262000566565b9050919050565b620005a58162000586565b82525050565b600060a082019050620005c260008301886200053a565b620005d160208301876200053a565b620005e060408301866200053a565b620005ef606083018562000555565b620005fe60808301846200059a565b9695505050505050565b60805160a05160c051611911620006386000396000610725015260006106f1015260006106cb01526119116000f3fe608060405234801561001057600080fd5b50600436106100ea5760003560e01c806370a082311161008c57806395d89b411161006657806395d89b411461025f578063a9059cbb1461027d578063d505accf146102ad578063dd62ed3e146102c9576100ea565b806370a08231146101e35780637ecebe001461021357806386731ff814610243576100ea565b806323b872dd116100c857806323b872dd1461015b578063313ce5671461018b5780633644e515146101a957806340c10f19146101c7576100ea565b806306fdde03146100ef578063095ea7b31461010d57806318160ddd1461013d575b600080fd5b6100f76102f9565b6040516101049190611024565b60405180910390f35b610127600480360381019061012291906110df565b610387565b604051610134919061113a565b60405180910390f35b610145610479565b6040516101529190611164565b60405180910390f35b6101756004803603810190610170919061117f565b61047f565b604051610182919061113a565b60405180910390f35b6101936106c9565b6040516101a091906111ee565b60405180910390f35b6101b16106ed565b6040516101be9190611222565b60405180910390f35b6101e160048036038101906101dc91906110df565b61074a565b005b6101fd60048036038101906101f8919061123d565b610758565b60405161020a9190611164565b60405180910390f35b61022d6004803603810190610228919061123d565b610770565b60405161023a9190611164565b60405180910390f35b61025d6004803603810190610258919061117f565b610788565b005b6102676107a4565b6040516102749190611024565b60405180910390f35b610297600480360381019061029291906110df565b610832565b6040516102a4919061113a565b60405180910390f35b6102c760048036038101906102c291906112c2565b610946565b005b6102e360048036038101906102de9190611364565b610c3f565b6040516102f09190611164565b60405180910390f35b60008054610306906113d3565b80601f0160208091040260200160405190810160405280929190818152602001828054610332906113d3565b801561037f5780601f106103545761010080835404028352916020019161037f565b820191906000526020600020905b81548152906001019060200180831161036257829003601f168201915b505050505081565b600081600460003373ffffffffffffffffffffffffffffffffffffffff1673ffffffffffffffffffffffffffffffffffffffff16815260200190815260200160002060008573ffffffffffffffffffffffffffffffffffffffff1673ffffffffffffffffffffffffffffffffffffffff168152602001908152602001600020819055508273ffffffffffffffffffffffffffffffffffffffff163373ffffffffffffffffffffffffffffffffffffffff167f8c5be1e5ebec7d5bd14f71427d1e84f3dd0314c0f7b2291e5b200ac8c7c3b925846040516104679190611164565b60405180910390a36001905092915050565b60025481565b600080600460008673ffffffffffffffffffffffffffffffffffffffff1673ffffffffffffffffffffffffffffffffffffffff16815260200190815260200160002060003373ffffffffffffffffffffffffffffffffffffffff1673ffffffffffffffffffffffffffffffffffffffff1681526020019081526020016000205490507fffffffffffffffffffffffffffffffffffffffffffffffffffffffffffffffff81146105b55782816105349190611434565b600460008773ffffffffffffffffffffffffffffffffffffffff1673ffffffffffffffffffffffffffffffffffffffff16815260200190815260200160002060003373ffffffffffffffffffffffffffffffffffffffff1673ffffffffffffffffffffffffffffffffffffffff168152602001908152602001600020819055505b82600360008773ffffffffffffffffffffffffffffffffffffffff1673ffffffffffffffffffffffffffffffffffffffff16815260200190815260200160002060008282546106049190611434565b9250508190555082600360008673ffffffffffffffffffffffffffffffffffffffff1673ffffffffffffffffffffffffffffffffffffffff168152602001908152602001600020600082825401925050819055508373ffffffffffffffffffffffffffffffffffffffff168573ffffffffffffffffffffffffffffffffffffffff167fddf252ad1be2c89b69c2b068fc378daa952ba7f163c4a11628f55a4df523b3ef856040516106b59190611164565b60405180910390a360019150509392505050565b7f000000000000000000000000000000000000000000000000000000000000000081565b60007f000000000000000000000000000000000000000000000000000000000000000046146107235761071e610c64565b610745565b7f00000000000000000000000000000000000000000000000000000000000000005b905090565b6107548282610cf0565b5050565b60036020528060005260406000206000915090505481565b60056020528060005260406000206000915090505481565b610793838383610dc0565b61079e83838361047f565b50505050565b600180546107b1906113d3565b80601f01602080910402602001604051908101604052809291908181526020018280546107dd906113d3565b801561082a5780601f106107ff5761010080835404028352916020019161082a565b820191906000526020600020905b81548152906001019060200180831161080d57829003601f168201915b505050505081565b600081600360003373ffffffffffffffffffffffffffffffffffffffff1673ffffffffffffffffffffffffffffffffffffffff16815260200190815260200160002060008282546108839190611434565b9250508190555081600360008573ffffffffffffffffffffffffffffffffffffffff1673ffffffffffffffffffffffffffffffffffffffff168152602001908152602001600020600082825401925050819055508273ffffffffffffffffffffffffffffffffffffffff163373ffffffffffffffffffffffffffffffffffffffff167fddf252ad1be2c89b69c2b068fc378daa952ba7f163c4a11628f55a4df523b3ef846040516109349190611164565b60405180910390a36001905092915050565b42841015610989576040517f08c379a0000000000000000000000000000000000000000000000000000000008152600401610980906114b4565b60405180910390fd5b600060016109956106ed565b7f6e71edae12b1b97f4d1f60370fef10105fa2faae0126114a169c64845d6126c98a8a8a600560008f73ffffffffffffffffffffffffffffffffffffffff1673ffffffffffffffffffffffffffffffffffffffff1681526020019081526020016000206000815480929190600101919050558b604051602001610a1d969594939291906114e3565b60405160208183030381529060405280519060200120604051602001610a449291906115bc565b6040516020818303038152906040528051906020012085858560405160008152602001604052604051610a7a94939291906115f3565b6020604051602081039080840390855afa158015610a9c573d6000803e3d6000fd5b505050602060405103519050600073ffffffffffffffffffffffffffffffffffffffff168173ffffffffffffffffffffffffffffffffffffffff1614158015610b1057508773ffffffffffffffffffffffffffffffffffffffff168173ffffffffffffffffffffffffffffffffffffffff16145b610b4f576040517f08c379a0000000000000000000000000000000000000000000000000000000008152600401610b4690611684565b60405180910390fd5b85600460008373ffffffffffffffffffffffffffffffffffffffff1673ffffffffffffffffffffffffffffffffffffffff16815260200190815260200160002060008973ffffffffffffffffffffffffffffffffffffffff1673ffffffffffffffffffffffffffffffffffffffff16815260200190815260200160002081905550508573ffffffffffffffffffffffffffffffffffffffff168773ffffffffffffffffffffffffffffffffffffffff167f8c5be1e5ebec7d5bd14f71427d1e84f3dd0314c0f7b2291e5b200ac8c7c3b92587604051610c2e9190611164565b60405180910390a350505050505050565b6004602052816000526040600020602052806000526040600020600091509150505481565b60007f8b73c3c69bb8fe3d512ecc4cf759cc79239f7b179b0ffacaa9a75d522b39400f6000604051610c969190611743565b60405180910390207fc89efdaa54c0f20c7adf612882df0950f5a951637e0307cdcb4c672f298b8bc64630604051602001610cd595949392919061175a565b60405160208183030381529060405280519060200120905090565b8060026000828254610d0291906117ad565b9250508190555080600360008473ffffffffffffffffffffffffffffffffffffffff1673ffffffffffffffffffffffffffffffffffffffff168152602001908152602001600020600082825401925050819055508173ffffffffffffffffffffffffffffffffffffffff16600073ffffffffffffffffffffffffffffffffffffffff167fddf252ad1be2c89b69c2b068fc378daa952ba7f163c4a11628f55a4df523b3ef83604051610db49190611164565b60405180910390a35050565b600073ffffffffffffffffffffffffffffffffffffffff168373ffffffffffffffffffffffffffffffffffffffff161415610e30576040517f08c379a0000000000000000000000000000000000000000000000000000000008152600401610e279061184f565b60405180910390fd5b600073ffffffffffffffffffffffffffffffffffffffff168273ffffffffffffffffffffffffffffffffffffffff161415610ea0576040517f08c379a0000000000000000000000000000000000000000000000000000000008152600401610e97906118bb565b60405180910390fd5b80600460008573ffffffffffffffffffffffffffffffffffffffff1673ffffffffffffffffffffffffffffffffffffffff16815260200190815260200160002060008473ffffffffffffffffffffffffffffffffffffffff1673ffffffffffffffffffffffffffffffffffffffff168152602001908152602001600020819055508173ffffffffffffffffffffffffffffffffffffffff168373ffffffffffffffffffffffffffffffffffffffff167f8c5be1e5ebec7d5bd14f71427d1e84f3dd0314c0f7b2291e5b200ac8c7c3b92583604051610f7e9190611164565b60405180910390a3505050565b600081519050919050565b600082825260208201905092915050565b60005b83811015610fc5578082015181840152602081019050610faa565b83811115610fd4576000848401525b50505050565b6000601f19601f8301169050919050565b6000610ff682610f8b565b6110008185610f96565b9350611010818560208601610fa7565b61101981610fda565b840191505092915050565b6000602082019050818103600083015261103e8184610feb565b905092915050565b600080fd5b600073ffffffffffffffffffffffffffffffffffffffff82169050919050565b60006110768261104b565b9050919050565b6110868161106b565b811461109157600080fd5b50565b6000813590506110a38161107d565b92915050565b6000819050919050565b6110bc816110a9565b81146110c757600080fd5b50565b6000813590506110d9816110b3565b92915050565b600080604083850312156110f6576110f5611046565b5b600061110485828601611094565b9250506020611115858286016110ca565b9150509250929050565b60008115159050919050565b6111348161111f565b82525050565b600060208201905061114f600083018461112b565b92915050565b61115e816110a9565b82525050565b60006020820190506111796000830184611155565b92915050565b60008060006060848603121561119857611197611046565b5b60006111a686828701611094565b93505060206111b786828701611094565b92505060406111c8868287016110ca565b9150509250925092565b600060ff82169050919050565b6111e8816111d2565b82525050565b600060208201905061120360008301846111df565b92915050565b6000819050919050565b61121c81611209565b82525050565b60006020820190506112376000830184611213565b92915050565b60006020828403121561125357611252611046565b5b600061126184828501611094565b91505092915050565b611273816111d2565b811461127e57600080fd5b50565b6000813590506112908161126a565b92915050565b61129f81611209565b81146112aa57600080fd5b50565b6000813590506112bc81611296565b92915050565b600080600080600080600060e0888a0312156112e1576112e0611046565b5b60006112ef8a828b01611094565b97505060206113008a828b01611094565b96505060406113118a828b016110ca565b95505060606113228a828b016110ca565b94505060806113338a828b01611281565b93505060a06113448a828b016112ad565b92505060c06113558a828b016112ad565b91505092959891949750929550565b6000806040838503121561137b5761137a611046565b5b600061138985828601611094565b925050602061139a85828601611094565b9150509250929050565b7f4e487b7100000000000000000000000000000000000000000000000000000000600052602260045260246000fd5b600060028204905060018216806113eb57607f821691505b602082108114156113ff576113fe6113a4565b5b50919050565b7f4e487b7100000000000000000000000000000000000000000000000000000000600052601160045260246000fd5b600061143f826110a9565b915061144a836110a9565b92508282101561145d5761145c611405565b5b828203905092915050565b7f5045524d49545f444541444c494e455f45585049524544000000000000000000600082015250565b600061149e601783610f96565b91506114a982611468565b602082019050919050565b600060208201905081810360008301526114cd81611491565b9050919050565b6114dd8161106b565b82525050565b600060c0820190506114f86000830189611213565b61150560208301886114d4565b61151260408301876114d4565b61151f6060830186611155565b61152c6080830185611155565b61153960a0830184611155565b979650505050505050565b600081905092915050565b7f1901000000000000000000000000000000000000000000000000000000000000600082015250565b6000611585600283611544565b91506115908261154f565b600282019050919050565b6000819050919050565b6115b66115b182611209565b61159b565b82525050565b60006115c782611578565b91506115d382856115a5565b6020820191506115e382846115a5565b6020820191508190509392505050565b60006080820190506116086000830187611213565b61161560208301866111df565b6116226040830185611213565b61162f6060830184611213565b95945050505050565b7f494e56414c49445f5349474e4552000000000000000000000000000000000000600082015250565b600061166e600e83610f96565b915061167982611638565b602082019050919050565b6000602082019050818103600083015261169d81611661565b9050919050565b600081905092915050565b60008190508160005260206000209050919050565b600081546116d1816113d3565b6116db81866116a4565b945060018216600081146116f657600181146117075761173a565b60ff1983168652818601935061173a565b611710856116af565b60005b8381101561173257815481890152600182019150602081019050611713565b838801955050505b50505092915050565b600061174f82846116c4565b915081905092915050565b600060a08201905061176f6000830188611213565b61177c6020830187611213565b6117896040830186611213565b6117966060830185611155565b6117a360808301846114d4565b9695505050505050565b60006117b8826110a9565b91506117c3836110a9565b9250827fffffffffffffffffffffffffffffffffffffffffffffffffffffffffffffffff038211156117f8576117f7611405565b5b828201905092915050565b7f5a45524f5f414444524553535f4f574e45520000000000000000000000000000600082015250565b6000611839601283610f96565b915061184482611803565b602082019050919050565b600060208201905081810360008301526118688161182c565b9050919050565b7f5a45524f5f414444524553535f5350454e444552000000000000000000000000600082015250565b60006118a5601483610f96565b91506118b08261186f565b602082019050919050565b600060208201905081810360008301526118d481611898565b905091905056fea26469706673582212203e54d4e1363694bc0ccd1ca273af6fb23377916ebe2ad3a4f778ecb54ad9be3c64736f6c63430008090033a2646970667358221220a34415439142eeb513e4b8fac0d436312d8bb1c9b26e11f4a8f4cfd79ffbb18264736f6c63430008090033",
  "linkReferences": {},
  "deployedLinkReferences": {}
}